:100000000C9468000C9490000C9490000C94900058
:100010000C9490000C9490000C9490000C94900020
:100020000C9490000C9490000C9490000C94900010
:100030000C9490000C9490000C9490000C94900000
:100040000C94DC0A0C9490000C94AA0A0C94840A78
:100050000C9490000C9490000C9490000C949000E0
:100060000C94260B0C949000000000002500280042
:100070002B000000000023002600290000000008DB
:10008000000201000003040700000000000000005F
:100090001F1C1F1E1F1E1F1F1E1F1E0000000024EE
:1000A0000027002A000102040810204080010204F9
:1000B00008102001020408102004040404040404AD
:1000C0000402020202020203030303030300450CBD
:1000D00011241FBECFEFD8E0DEBFCDBF23E0AEEED0
:1000E000B1E001C01D92A138B207E1F711E0A0E034
:1000F000B1E0E4E4F5E202C005900D92AE3EB10736
:10010000D9F710E0C8E6D0E004C02197FE010E94B4
:100110007511C736D107C9F70E94880C0C94A0123C
:100120000C9400008CBD9DBD089508950895AF9274
:10013000BF92CF92DF92EF92FF920F931F93CF93D4
:10014000DF936C017B018B01040F151FEB015E0136
:10015000AE18BF08C017D10759F06991D601ED91CB
:10016000FC910190F081E02DC6010995892B79F76A
:10017000C501DF91CF911F910F91FF90EF90DF901C
:10018000CF90BF90AF900895FC01538D448D252FE3
:1001900030E0842F90E0821B930B541710F0CF9621
:1001A000089501970895FC01918D828D981761F053
:1001B000A28DAE0FBF2FB11D5D968C91928D9F5F6A
:1001C0009F73928F90E008958FEF9FEF0895FC0149
:1001D000918D828D981731F0828DE80FF11D858DFC
:1001E00090E008958FEF9FEF0895FC01918D228D8F
:1001F000892F90E0805C9F4F821B91098F73992714
:10020000089584EC92E00E94F50021E0892B09F426
:1002100020E0822F089580E090E0892B29F00E9451
:10022000010181110C9400000895FC01A48DA80F18
:10023000B92FB11DA35ABF4F2C91848D90E0019628
:100240008F739927848FA689B7892C93A089B18948
:100250008C91837080648C93938D848D981306C0E9
:100260000288F389E02D80818F7D80830895EF924D
:10027000FF920F931F93CF93DF93EC0181E0888F60
:100280009B8D8C8D98131AC0E889F989808185FF30
:1002900015C09FB7F894EE89FF896083E889F989D2
:1002A00080818370806480839FBF81E090E0DF91D4
:1002B000CF911F910F91FF90EF900895F62E0B8D27
:1002C00010E00F5F1F4F0F731127E02E8C8D8E11E2
:1002D0000CC00FB607FCFACFE889F989808185FF49
:1002E000F5CFCE010E941501F1CFEB8DEC0FFD2F64
:1002F000F11DE35AFF4FF0829FB7F8940B8FEA8904
:10030000FB8980818062CFCFCF93DF93EC01888D12
:100310008823B9F0AA89BB89E889F9898C9185FD80
:1003200003C0808186FD0DC00FB607FCF7CF8C910E
:1003300085FFF2CF808185FFEDCFCE010E941501B0
:10034000E9CFDF91CF910895833081F028F4813097
:1003500099F08230A9F008958730A9F08830C9F06B
:100360008430B1F4809180008F7D03C08091800043
:100370008F7780938000089584B58F7784BD08952A
:1003800084B58F7DFBCF8091B0008F778093B000D4
:1003900008958091B0008F7DF9CFCF93DF93282F00
:1003A00030E0F901E458FF4F8491F901EB55FF4F1C
:1003B000D491F901E754FF4FC491CC23A1F08111EE
:1003C0000E94A401EC2FF0E0EE0FFF1FEE58FF4F4C
:1003D000A591B491EC91ED2381E090E009F480E0E7
:1003E000DF91CF91089580E090E0FACF1F93CF93F3
:1003F000DF93282F30E0F901E458FF4F8491F90191
:10040000EB55FF4FD491F901E754FF4FC491CC2332
:10041000A9F0162F81110E94A401EC2FF0E0EE0F3D
:10042000FF1FE859FF4FA591B4918FB7F894EC9155
:10043000111108C0D095DE23DC938FBFDF91CF91DF
:100440001F910895DE2BF8CFCF93DF9390E0FC014E
:10045000EB55FF4F249187549F4FFC0184918823D3
:10046000C9F090E0880F991FFC01E556FF4FA59158
:10047000B491FC01E859FF4FC591D49161110DC0B1
:100480009FB7F8948C91209582238C9388812823A0
:1004900028839FBFDF91CF910895623051F49FB7B9
:1004A000F8943C91822F809583238C93E8812E2BA6
:1004B000EFCF8FB7F894EC912E2B2C938FBFEACF10
:1004C0003FB7F8948091370290913802A091390299
:1004D000B0913A0226B5A89B05C02F3F19F00196AE
:1004E000A11DB11D3FBFBA2FA92F982F8827BC018E
:1004F000CD01620F711D811D911D42E0660F771FB6
:10050000881F991F4A95D1F708958F929F92AF92B5
:10051000BF92CF92DF92EF92FF924B015C010E945B
:1005200060026B017C010E9460026C197D098E09DA
:100530009F09683E734081059105A8F321E0821A66
:100540009108A108B10888EEC80E83E0D81EE11C0E
:10055000F11C81149104A104B10429F7FF90EF90DC
:10056000DF90CF90BF90AF909F908F9008952FB75E
:10057000F894609133027091340280913502909129
:1005800036022FBF089520910F02260F3327331F05
:1005900021323105ECF420919A02FC0190E080E0D8
:1005A000243069F082E00895A0910F022191AC01FE
:1005B00041515E4FA40FB52FB11D2C9301968617A4
:1005C00098F380910F02680F60930F0280E0089506
:1005D00081E0089510929A0281E08093990210922E
:1005E000740261E082E10E94F60161E083E10E9411
:1005F000F601E9EBF0E080818E7F808380818D7F42
:10060000808388E48093B80085E48093BC000895DB
:10061000CF93DF9391E09093EE018823B9F0C091DE
:10062000B800D091BA008091BC008A7B8093BC0056
:1006300060E082E10E94F60160E083E10E94F60141
:100640000E94EA02D093BA00C093B800DF91CF9124
:1006500008958F929F92AF92BF92CF92DF92EF92C6
:10066000FF920F931F93CF93DF93D091C302D132A8
:1006700008F0D7C0182FC091C2020E9460026B011F
:100680007C0180919A0281116BC082E080939A0272
:10069000109399028FEF8093980210929702D09353
:1006A0009602A2EAB2E0E6E7F2E080E0D81391C059
:1006B0001092750280917502CC0FC82BC093750201
:1006C00080917402813009F088C0109274020E94F7
:1006D00060026B017C01809175028093BB00809168
:1006E0009C0290919D02A0919E02B0919F02892B45
:1006F0008A2B8B2BA1F00E94600200919C0210912A
:100700009D0220919E0230919F026C197D098E09F5
:100710009F09061717072807390708F442C0809178
:10072000BC0083FDD8CF85EC8093BC000E946002A2
:100730006B017C0180919A02823009F450C0809153
:1007400098028F3F09F46FC080919802803209F4BB
:100750006CC080919802803309F469C084E026C09F
:1007600080919C0290919D02A0919E02B0919F0267
:10077000892B8A2B8B2B09F484CF0E9460028090F6
:100780009C0290909D02A0909E02B0909F026C19D6
:100790007D098E099F0986169706A806B90608F0F6
:1007A00070CF80919B020E94080385E01092A10205
:1007B0001092C3021092A002DF91CF911F910F916E
:1007C000FF90EF90DF90CF90BF90AF909F908F9071
:1007D00008959D9191938F5F69CF85EEA5CF80910C
:1007E0009C0290919D02A0919E02B0919F02892B44
:1007F0008A2B8B2B09F49ECF0E94600200919C02F1
:1008000010919D0220919E0230919F026C197D09EA
:100810008E099F09061717072807390708F08ACF9E
:10082000C0CF81E0C3CF80E0C1CF82E0BFCF83E003
:10083000BDCFCF93C42FDC0111968D919C91DC012B
:10084000ED91FC910280F381E02D41E050E00995AB
:10085000019729F48C2F0E94290391E0811190E0E7
:10086000892FCF9108950895E0915302809152020B
:10087000E81730F4F0E0EC5AFD4F808190E00895E5
:100880008FEF9FEF089590915302809152022FEFC6
:100890003FEF981748F4E92FF0E0EC5AFD4F208124
:1008A00030E09F5F90935302C901089580915202F6
:1008B00090915302891B990B0895CF92DF92EF928A
:1008C000FF920F931F93CF93DF937C01CB018A019B
:1008D0002091A002222389F0EB016B01C40ED51EEA
:1008E000CC15DD0569F06991D701ED91FC9101907E
:1008F000F081E02DC7010995F3CF642F0E94C30258
:10090000C801DF91CF911F910F91FF90EF90DF9081
:10091000CF900895CF93DF931F92CDB7DEB7698351
:100920002091A0022223F9F02091C302203258F036
:1009300021E030E0FC013383228390E080E00F90DF
:10094000DF91CF9108958091A102E82FF0E0EE555C
:10095000FD4F998190838F5F8093A1028093C302A2
:1009600081E090E0ECCF61E0CE0101960E94C302ED
:10097000F7CF90E080E00895CF93DF93EC018B8177
:100980008823A1F0888191E09093A0028093C20215
:100990001092A1021092C30281E00E94290391E00B
:1009A000811190E0892FDF91CF9108951092530229
:1009B000109252021092A1021092C3020E94EA0207
:1009C00085E990E090933E0280933D0286E990E0B5
:1009D00090933C0280933B0281E08B83CE010E9486
:1009E000BC04982F8111CECFDDCFBC016E5F7F4F4D
:1009F000DC01ED91FC910190F081E02D40E0099542
:100A000091E0811190E0892F089508958EBD000036
:100A10000DB407FEFDCF8EB50895DF92EF92FF92E1
:100A20000F931F93CF93DF937C01062FD42E152FA6
:100A300080E590E00E94920060E0F70186850E94C8
:100A4000F60182E10E940605CD2DD12F0C0F1D2F3E
:100A5000111DC017D10721F089910E940605F9CF19
:100A600061E0F7018685DF91CF911F910F91FF9093
:100A7000EF90DF900C94F6011F93CF93DF93EC017E
:100A8000162F80E590E00E94920060E08E850E9423
:100A9000F601812F80680E94060580E00E9406050D
:100AA000182F61E08E850E94F601812FDF91CF9192
:100AB0001F9108950F931F93CF93DF93EC01062F9F
:100AC000142F80E590E00E94920060E08E850E94E5
:100AD000F601802F0E940605812F0E94060561E025
:100AE0008E85DF91CF911F910F910C94F601CF92DB
:100AF000DF92EF92FF920F931F93CF93DF93EC015E
:100B00006B01F42E890140E062E00E945A0544E046
:100B10006AE0CE010E945A0540E864E1CE010E94DD
:100B20005A05A6016F2DCE010E940D0543E062E03B
:100B3000CE010E945A050E94B7026B017C0129E593
:100B4000C20ED11CE11CF11C6AE0CE010E943C05E2
:100B500082FF1BC040E062E0CE010E945A0564E4BF
:100B6000CE010E943C05F801808362E4CE010E9420
:100B70003C05F801818380E0DF91CF911F910F91B7
:100B8000FF90EF90DF90CF9008950E94B7026C1510
:100B90007D058E059F05C0F283E0EECF2F923F9238
:100BA0004F925F926F927F928F929F92AF92CF926D
:100BB000DF92EF92FF920F931F93CF93DF9300D0BA
:100BC000CDB7DEB74C012B01D42E390180E0E11402
:100BD000F10411F0F70180813C2C329490EF39221E
:100BE000380E40E062E0C4010E945A054FE768E019
:100BF000C4010E945A0540E864E1C4010E945A05FC
:100C0000A2016D2DC4010E940D05432D6AE1C401AE
:100C10000E945A054CE062E0C4010E945A056AE154
:100C2000C4010E943C05482F40686AE1C4010E944B
:100C30005A050E94B7021B012C01F4E22F0E311C51
:100C4000411C511C68E0C4010E943C05982F907320
:100C500009F0B7C080FF15C083E00F900F90DF91BF
:100C6000CF911F910F91FF90EF90DF90CF90AF90B9
:100C70009F908F907F906F905F904F903F902F90BC
:100C800008950E94B7026215730584059505D0F298
:100C9000E3CF6114710409F469C00115110509F469
:100CA00065C064E1C4010E943C05382EF8018081D2
:100CB000831508F480C030823320E1F180E590E0B4
:100CC0000E94920060E0F40186850E94F6013A9449
:100CD00082E90E940605CC20B1F08FEF90E09C01E4
:100CE00002C0220F331FCA94E2F7690182E90E9411
:100CF00006059C2D9095F301208192238C21982B41
:100D00009083CC24C39423014C0C511CC31440F495
:100D100082E90E940605F20181932F01C394F6CF68
:100D200080E00E940605F201808361E0F40186857F
:100D30000E94F60168E1C4010E943C058770E1143D
:100D4000F10411F0F701808323FC37C061147104B2
:100D5000B1F10115110599F1AA2089F1F80140813D
:100D6000413031F4843029F58FEF77CF80E0ECCF3C
:100D70004230F8F081111DC042509E012F5F3F4F5D
:100D8000B301C4010E947705811167CFF8019081FA
:100D9000690E711CF301329720819981291309C0D2
:100DA000F1E06F1A7108F30120819A81291709F483
:100DB00054CF87E052CF84E050CF82E04ECF80E026
:100DC0004CCF6CE0C4010E943C05282E837109F4CD
:100DD00060CF81E042CF8F929F92AF92CF92EF92FD
:100DE000FF920F931F93CF93DF9300D000D01F92F9
:100DF000CDB7DEB74C0182E08D8340E064E2C401F0
:100E00000E945A0540E066E2C4010E945A0546E28B
:100E100068E4C4010E945A0586E28B838D8182308A
:100E2000D8F16CE1C4010E943C05482F4F776CE17A
:100E3000C4010E945A0587E08C83A12CC12CCE01ED
:100E400004967C018E010B5F1F4F9E012F5F3F4F69
:100E500041E0BE016D5F7F4FC4010E94CE05982F17
:100E6000811117C08D818230B9F48C81811114C039
:100E700081E00F900F900F900F900F90DF91CF9126
:100E80001F910F91FF90EF90CF90AF909F908F9018
:100E9000089581E0923069F380E0EBCF2F923F928A
:100EA0004F925F926F927F928F929F92AF92BF927A
:100EB000CF92DF92EF92FF920F931F93CF93DF9326
:100EC000CDB7DEB72D970FB6F894DEBF0FBECDBFFE
:100ED00016E0413508F04AC1342E3B014C016CE16B
:100EE0000E943C05482F4F776CE1C4010E945A05CF
:100EF00083E98983332029F081E0F30190819530E3
:100F000008F480E022242394B12C9B2D990F990F93
:100F1000990FD32CD91AD7FCD12C32E0882319F0A1
:100F200098E89B8333E021E09D2D977009F420E041
:100F30009D2D959595959595290FC9F094E0811172
:100F400093E0291708F4922FEB2DF0E03196E60D8F
:100F5000F71D232F4191A1E0B0E0AC0FBD1FA20F00
:100F6000B11D4C932F5F422F431B491798F38823E1
:100F700011F0F8E0DF0E8FE18D150CF082C090E7E4
:100F80009A838B819C8189279D8189279E818927CE
:100F90008F839E01285F3F4F47E0BE016F5F7F4F09
:100FA000C4010E947705182F8111E0C01A86E3E082
:100FB000EB87DC86CE0107962C0199E09D87CA84D9
:100FC0004C2D4295407F4C0D6AE1C4010E945A05A8
:100FD000A12CCE010A967C018E01055F1F4F920164
:100FE0004D85BE016F5F7F4FC4010E94CE05182F53
:100FF000823009F065C06CE1C4010E943C0585FDAA
:10100000B5C08F7109F480E2282F30E04D2DDD0C42
:10101000550B421753070CF09DC0D82EE82FE595CD
:10102000E595E595EF5F982F977081E009F480E0F2
:10103000E80F81E090E08C0F9D1F8E0F911DFC0149
:10104000215031092770332781E090E002C0880FDA
:10105000991F2A95E2F79C018081822B80838BCF98
:1010600085E98983332031F081E0F3019081983064
:1010700008F04BCF80E049CF87E9898326E0B22E84
:10108000F9CF9D2D97709A878D2D8595859585959E
:101090008E5F282F2295207F290F2A8321E091112E
:1010A00001C020E0280F2D8744244394512C4C0E7E
:1010B0005D1E480E511CE9E0E81BEB87DC867FCF04
:1010C000811154C080E2D82E9C8590320CF457CF09
:1010D0008B81883809F040C083E093E0EB2DF0E08D
:1010E0003196E60DF71D980FA1E0B0E0AC0FBD1FE3
:1010F000A80FB11D2C9121938F5F8913F5CFBB846D
:10110000E3E0BE124DC08A8581114AC09E012D5F69
:101110003F4F41E0B201C4010E947705182F8111B1
:1011200025C09B81F201818198133CC09C81828102
:10113000981338C0808182FF12C02394F2E02F16EA
:1011400009F48ECF83E0281609F496CF91E0291692
:1011500009F4CECE15E00AC082E094E0BFCFF301DF
:101160008387822D880F820D8F5F8083812F2D963C
:101170000FB6F894DEBF0FBECDBFDF91CF911F91A8
:101180000F91FF90EF90DF90CF90BF90AF909F9026
:101190008F907F906F905F904F903F902F90089529
:1011A00011E0E4CF17E0E2CF2F923F924F925F928F
:1011B0006F927F928F929F92AF92BF92CF92DF9267
:1011C000EF92FF920F931F93CF93DF935C011B016C
:1011D0006A01F12CE12CD50114968D919C91860128
:1011E0000E191F098017910708F48C01F501D081B1
:1011F0000E9460022B013C0180919A02811172C011
:10120000C02F013208F0C0E2F1E0F0939A0221E031
:10121000C601801B910BE816F90608F420E0209324
:1012200099028FEF80939802109297028C0F80930F
:101230009602A1E0A093750280917502DD0FD82B74
:10124000D093750280917402813009F090C01092A1
:1012500074020E9460022B013C0180917502809310
:10126000BB0080919C0290919D02A0919E02B09142
:101270009F02892B8A2B8B2BA1F00E946002209168
:101280009C0230919D0240919E0250919F026419F0
:10129000750986099709261737074807590708F47B
:1012A00042C08091BC0083FDD8CFB5ECB093BC00A8
:1012B0000E9460022B013C0180919A02813009F466
:1012C0005AC0809197028C1710F4C0919702A6E73C
:1012D000B2E0E4E5F2E080E08C1751F19D9191934A
:1012E0008F5FFACF80919C0290919D02A0919E0207
:1012F000B0919F02892B8A2B8B2B09F47DCF0E9402
:10130000600220919C0230919D0240919E0250917A
:101310009F02641975098609970926173707480738
:10132000590708F069CF80919B020E940803C0E032
:1013300010925302C0935202C017110609F057C011
:1013400041018E0C9F1CE401CE0188199909801778
:10135000910798F5D50111968D919C91DC01ED9145
:10136000FC910284F385E02D09958993EDCFE5EE9C
:10137000E093BC009DCF80919C0290919D02A09132
:101380009E02B0919F02892B8A2B8B2B09F494CF5C
:101390000E94600220919C0230919D0240919E0229
:1013A00050919F0264197509860997092617370716
:1013B0004807590708F080CFB6CFE00EF11EEC14B5
:1013C000FD0408F408CF81E0DF91CF911F910F91C8
:1013D000FF90EF90DF90CF90BF90AF909F908F9055
:1013E0007F906F905F904F903F902F90089580E096
:1013F000EBCFFC0101900020E9F73197AF01481BCA
:10140000590BBC0184EC92E00C9497008F929F9250
:10141000AF92BF920F931F93CF93DF93CDB7DEB7F9
:10142000A1970FB6F894DEBF0FBECDBF19A2423010
:1014300008F44AE08E010F5D1F4F842E912CB12CD1
:10144000A12CA50194010E945311E62FB901CA01F4
:10145000EA30F4F4E05DD801EE938D01232B242BC8
:10146000252B79F790E080E0109719F0CD010E94CC
:10147000F909A1960FB6F894DEBF0FBECDBFDF917C
:10148000CF911F910F91BF90AF909F908F90089533
:10149000E95CE1CF0C94F90985ED8093BC00809163
:1014A0009C0290919D02A0919E02B0919F0207968E
:1014B000A11DB11D23E0B695A795979587952A950F
:1014C000D1F72091BC0024FD03C010929A02089528
:1014D00040919C0250919D0260919E0270919F02EA
:1014E000452B462B472B69F30097A105B10541F029
:1014F0002AE22A95F1F700C00197A109B109E1CFCD
:1015000080919B020C9408031F920F920FB60F92CA
:1015100011242F933F934F935F936F937F938F93F8
:101520009F93AF93BF93EF93FF9384EC92E00E945D
:101530001501FF91EF91BF91AF919F918F917F9195
:101540006F915F914F913F912F910F900FBE0F9030
:101550001F9018951F920F920FB60F9211242F9380
:101560008F939F93EF93FF93E091D402F091D50274
:101570008081E091DA02F091DB0282FD1BC0908154
:101580008091DD028F5F8F732091DE02821741F020
:10159000E091DD02F0E0EC53FD4F958F8093DD028A
:1015A000FF91EF919F918F912F910F900FBE0F9010
:1015B0001F9018958081F4CF1F920F920FB60F9253
:1015C00011242F933F938F939F93AF93BF93809159
:1015D000330290913402A0913502B09136023091DD
:1015E000320223E0230F2D3758F50196A11DB11DBE
:1015F000209332028093330290933402A0933502F9
:10160000B09336028091370290913802A09139024E
:10161000B0913A020196A11DB11D809337029093BB
:101620003802A0933902B0933A02BF91AF919F91D3
:101630008F913F912F910F900FBE0F901F90189593
:1016400026E8230F0296A11DB11DD2CF1F920F9243
:101650000FB60F9211242F933F934F935F936F9385
:101660007F938F939F93AF93BF93EF93FF9380915B
:10167000B900887F803609F44AC0F0F5883209F451
:10168000A7C018F5803109F49BC0B8F4882309F489
:10169000F9C0883009F494C0FF91EF91BF91AF91E8
:1016A0009F918F917F916F915F914F913F912F917A
:1016B0000F900FBE0F901F901895883109F488C0C5
:1016C000803251F78093980214C0803409F49DC091
:1016D00040F48033B9F38833F9F68093980285ECAF
:1016E000B0C0803509F485C0883509F496C08834C7
:1016F00099F60E944C0AD0CF883909F48CC038F58D
:10170000883729F050F4883611F0803729F683E0C5
:1017100080939A021092310257C0883809F47BC036
:10172000803919F0803809F0B7CF809131028032CA
:1017300008F071C0E091310281E08E0F8093310298
:101740008091BB00F0E0EF5EFD4F80833DC0803BA9
:1017500039F0E0F4803A09F479C0883A09F09CCF76
:1017600084E080939A021092100210920F02E0918E
:101770003D02F0913E02099580910F0281110FC048
:1017800081E080930F021092EF0109C0803C09F4C0
:10179000A6CF883C09F4A3CF883B09F07DCFE09128
:1017A000100281E08E0F80931002F0E0E151FE4FB5
:1017B00080818093BB009091100280910F0229C01C
:1017C000809175028093BB0085EC8093BC0064CF50
:1017D0009091970280919602981758F5E0919702A0
:1017E00081E08E0F80939702F0E0EA58FD4F8081F0
:1017F000E9CFE091970281E08E0F8093970280916C
:10180000BB00F0E0EA58FD4F8083909197028091F1
:1018100096029817C8F285E8D8CFE091970281E048
:101820008E0F809397028091BB00F0E0EA58FD4F45
:1018300080838091990281115CCF81E08093740252
:1018400084EA8093BC0010929A0226CF85EC8093A4
:10185000BC0010929A0280913102803230F4E09103
:101860003102F0E0EF5EFD4F10826091310270E0D6
:10187000E0913B02F0913C0281E192E009951092E7
:1018800031020ACF1092980234CFE4ECF2E01382D6
:10189000128288EE93E0A0E0B0E084839583A68373
:1018A000B78320E131E03183208325EC30E03587B8
:1018B000248724EC30E03787268720EC30E0318B1A
:1018C000208B21EC30E0338B228B22EC30E0358B07
:1018D000248B26EC30E0378B268B118E128E138EE4
:1018E000148EE1E6F3E01382128284839583A6834B
:1018F000B78382E291E091838083EDE6F3E084E3B5
:1019000091E0918380838AE0868789E087870895C4
:10191000CF93DF93CDB7DEB728970FB6F894DEBF2D
:101920000FBECDBF789484B5826084BD84B58160DC
:1019300084BD85B5826085BD85B5816085BD80919A
:101940006E00816080936E00109281008091810012
:10195000826080938100809181008160809381000A
:10196000809180008160809380008091B1008460CC
:101970008093B1008091B00081608093B00080912D
:101980007A00846080937A0080917A0082608093EC
:101990007A0080917A00816080937A0080917A0049
:1019A000806880937A001092C100E091D402F09197
:1019B000D50282E08083E091D002F091D1021082C2
:1019C000E091D202F091D30280E180831092DC0298
:1019D000E091D802F091D90286E08083E091D602AE
:1019E000F091D702808180618083E091D602F091EE
:1019F000D702808188608083E091D602F091D7027F
:101A0000808180688083E091D602F091D702808146
:101A10008F7D808361E086E00E94240260E086E0A2
:101A20000E94F60180913F0290914002009711F0D0
:101A30000E94171286E090E00E947B118C0188E6DC
:101A4000F801808381E693E092838183138280E2B0
:101A500090E0958384831093400200933F0210929C
:101A60005302109252021092A1021092C3020E94DD
:101A7000EA0285E990E090933E0280933D0286E978
:101A800090E090933C0280933B0281E0F8018383D5
:101A9000C8010E94BC0481110CC08AE391E00E943D
:101AA000F9098CE491E00E94F90984EC92E00E942B
:101AB0008401188680913F0290914002FC012481AC
:101AC0003581232B81F0208131E03093A0022093D7
:101AD000C2021092A1021092C30241E0BE01685FEF
:101AE0007F4F0E94190441E050E0BE016F5F7F4FBD
:101AF00080913F02909140020E94D408898190E039
:101B0000880F892F881F990B892B41F08FE491E072
:101B10000E94F9098CE491E00E94F9091982009170
:101B20003F0210914002F80184819581892BD9F000
:101B3000808191E09093A0028093C2021092A10252
:101B40001092C30240E0BE016F5F7F4FC8010E9448
:101B50001904882341F047E050E0BE016F5F7F4FDA
:101B6000C8010E94D4082E81822F90E0E4E0959570
:101B70008795EA95E1F7982F990F990F891B880FA0
:101B8000820FE0E9F0E091E0981720F424919F5F44
:101B90003196FACF1FB7F89480914102811127C086
:101BA000E3ECF0E08491EFEAF0E09491E82FF0E0CC
:101BB000EE0FFF1FE556FF4FA591B491EC91E9237D
:101BC00021F461E08AE00E94F60161E08AE00E946F
:101BD00024028CB580618CBD8CB580648CBD61E0C5
:101BE0008DE00E94240261E08BE00E94240280913B
:101BF00041028F5F809341021FBF61E080917B03B0
:101C00000E94240261E080917B030E94F601809192
:101C10007C038F3F09F4E4C060E00E9424028091BD
:101C20007C030E94CD01892B09F0DAC061E080912C
:101C30007C030E94240260E080917C030E94F601F4
:101C400083E090E00197F1F761E080917C030E94CE
:101C5000F60162E370E080E090E00E94850240E0DF
:101C600064E28DE693E00E945A0540E066E28DE66C
:101C700093E00E945A0546E268E48DE693E00E94F4
:101C80005A0540E864E58DE693E00E945A0549EA6A
:101C900066E58DE693E00E945A0543E068E58DE62F
:101CA00093E00E945A0548EE6AE58DE693E00E94B3
:101CB0005A0540E46AE28DE693E00E945A054DE33E
:101CC00062E28DE693E00E945A0568E28DE693E0B9
:101CD0000E943C05982F9370933039F0482F436051
:101CE00068E28DE693E00E945A0562E088E00E9477
:101CF000240262E085E00E94240262E084E00E9407
:101D00002402109246021092450261E087E00E9490
:101D1000240260E087E00E94F60185E080934202A1
:101D200081E08093430282E08093440265E088E092
:101D300090E00E9445116091430289E090E00E948A
:101D40004511609144028AE090E00E9445110E9492
:101D5000B7026B017C018091450290914602892B6C
:101D6000E9F488E00E94CD010197C1F461E087E0C9
:101D70000E94F60188E00E94CD01019759F40E946B
:101D8000B7026C197D098E099F09603D7740810576
:101D9000910560F360E087E00E94F60168EB7BE06C
:101DA00080E090E00E94850240E0E42E40E0F42EC6
:101DB00052E0B52ECC24C394D12CE0914D02F09189
:101DC0004E02E730F10508F03DC0E751F14F0C94A9
:101DD00075111E0F070F051078108D1078107810F0
:101DE0004FE062E08DE693E00E945A0513E062E363
:101DF00070E080E090E00E94850262E08DE693E072
:101E00000E943C0584FF2BCF115089F728CF0E94F8
:101E1000B7020091490210914A0220914B02309181
:101E20004C02601B710B820B930B643671058105AC
:101E3000910540F010924E0210924D0260E086E053
:101E40000E94F6010E94B70287E791E00E944A0AC9
:101E500062E082E00E94240262E08EE00E9424029E
:101E600062E08FE00E94240262E081E10E9424028D
:101E700062E083E00E94240262E080E00E9424028B
:101E800062E080E10E94240238E0832E31E0932E4C
:101E900000E0F40111914F0161E0812F0E942402C2
:101EA00060E0812F0E94F60183E00E94CD01892B22
:101EB00009F4A6C180E00E94CD01892B09F4BCC1C0
:101EC00080E10E94CD01892B09F4B9C162E0812F24
:101ED0000E9424020F5F0430E1F68FEF809301012E
:101EE0008CE791E00E944A0A8EE891E00E944A0A3B
:101EF0006091010170E090E080E04AE00E94060AF3
:101F00008BE991E00E944A0A6091000170E090E044
:101F100080E04AE00E94060A8AEA91E00E944A0AAA
:101F20006091510270E090E080E04AE00E94060A71
:101F30008CEB91E00E944A0A60914F02709150022E
:101F400090E080E04AE00E94060A909101018091B1
:101F5000000198137CC180914F02909150020B9721
:101F600068F485ED91E00E944A0A80914F029091B9
:101F7000500201969093500280934F0280914F023D
:101F8000909150020A9708F470C18091510281111A
:101F90006CC189ED91E00E944A0A81E08093510270
:101FA0001092500210924F02809101018F3F91F0E8
:101FB000D0924E02C0924D020E94B7026093490235
:101FC00070934A0280934B0290934C0261E086E04A
:101FD0000E94F6018DED91E00E944A0A6091010194
:101FE0006F3F09F047C162E370E080E090E00E943B
:101FF0008502E114F10409F4E0CE0E940101882376
:1020000009F4DBCE0E940000D8CE809148028111F5
:1020100026C00E94B7020091490210914A02209105
:102020004B0230914C02601B710B820B930B643698
:1020300071058105910508F405CF60E086E00E94F6
:10204000F6010E94B7026093490270934A0280939E
:102050004B0290934C0281E080934802F3CE813092
:1020600029F50E94B7020091490210914A0220917D
:102070004B0230914C02601B710B820B930B62334D
:1020800071058105910508F4DDCE61E086E00E94CE
:10209000F6010E94B7026093490270934A0280934E
:1020A0004B0290934C02B0924802CCCE823009F0A1
:1020B000C9CE0E94B7020091490210914A022091B4
:1020C0004B0230914C02601B710B820B930B6436F8
:1020D00071058105910508F4B5CE60E086E00E94A7
:1020E000F60110924E0210924D0210924802AACEB2
:1020F0000E94B7020091490210914A0220914B02BE
:1021000030914C02601B710B820B930B643F71404A
:102110008105910508F08ECE95CE80914702811100
:1021200026C00E94B7020091490210914A022091F4
:102130004B0230914C02601B710B820B930B643687
:1021400071058105910508F47DCE60E086E00E946E
:10215000F6010E94B7026093490270934A0280938D
:102160004B0290934C0281E0809347026BCE81300A
:1021700029F50E94B7020091490210914A0220916C
:102180004B0230914C02601B710B820B930B62333C
:1021900071058105910508F455CE61E086E00E9445
:1021A000F6010E94B7026093490270934A0280933D
:1021B0004B0290934C02B092470244CE823009F019
:1021C00041CE0E94B7020091490210914A0220912B
:1021D0004B0230914C02601B710B820B930B6436E7
:1021E00071058105910508F42DCE60E086E00E941E
:1021F000F60110924E0210924D021092470222CE2A
:1022000010E023E0922E83E0A82E892D0E94CD01BC
:10221000019709F462CEAA94A110F7CF1F5F802F17
:10222000880F800F810F8B3071F08C3071F08A3005
:1022300009F054CE8AE252CE11E0912CE4CF12E0A4
:1022400090E1992EE0CF80E049CE83E247CE81EE47
:1022500091E00E944A0A1092500210924F0210928E
:102260005102809101018093000187EE91E00E946C
:102270004A0AB9CE70E090E080E04AE00E94060A87
:102280008CE491E00E94F909AECE262FF999FECF99
:102290001FBA92BD81BD20BD0FB6F894FA9AF99A83
:1022A0000FBE01960895A1E21A2EAA1BBB1BFD01C9
:1022B0000DC0AA1FBB1FEE1FFF1FA217B307E40725
:1022C000F50720F0A21BB30BE40BF50B661F771F7D
:1022D000881F991F1A9469F760957095809590955D
:1022E0009B01AC01BD01CF010895EE0FFF1F0590CA
:1022F000F491E02D09940F931F93CF93DF938230D5
:10230000910510F482E090E0E0917F03F09180036A
:1023100030E020E0B0E0A0E0309799F421153105DD
:1023200009F44AC0281B390B24303105D8F58A81BD
:102330009B816115710589F1FB0193838283FE0105
:1023400011C0408151810281138148175907E0F083
:102350004817590799F4109761F012960C93129749
:1023600013961C933296CF01DF91CF911F910F915D
:10237000089500937F0310938003F4CF2115310556
:1023800051F04217530738F0A901DB019A01BD0152
:10239000DF01F801C1CFEF01F9CF90938003809363
:1023A0007F03CDCFFE01E20FF31F81939193225063
:1023B000310939832883D7CF20917D0330917E0363
:1023C000232B41F4209104013091050130937E03C9
:1023D00020937D03209102013091030121153105E5
:1023E00041F42DB73EB74091060150910701241BDF
:1023F000350BE0917D03F0917E03E217F307A0F423
:102400002E1B3F0B2817390778F0AC014E5F5F4F4A
:102410002417350748F04E0F5F1F50937E034093FB
:102420007D03819391939FCFF0E0E0E09CCFCF9329
:10243000DF930097E9F0FC01329713821282A0919A
:102440007F03B0918003ED0130E020E01097A1F40C
:1024500020813181820F931F20917D0330917E0373
:102460002817390709F061C0F0937E03E0937D03DC
:10247000DF91CF910895EA01CE17DF07E8F54A8191
:102480005B819E0141155105B1F7E901FB83EA83A8
:1024900049915991C40FD51FEC17FD0761F4808154
:1024A00091810296840F951FE90199838883828127
:1024B00093819B838A83F0E0E0E012968D919C915A
:1024C00013970097B9F52D913C911197CD01029684
:1024D000820F931F20917D0330917E0328173907C7
:1024E00039F6309751F51092800310927F03B09324
:1024F0007E03A0937D03BCCFD383C28340815181EF
:10250000840F951FC817D90761F44E5F5F4F88810C
:102510009981480F591F518340838A819B819383FE
:1025200082832115310509F0B0CFF0938003E09349
:102530007F039ECFFD01DC01C0CF13821282D7CF73
:04254000F894FFCF3D
:10254400FFFF000081038000020E0F110000000055
:1025540037019700C4008401F500D300E7000000B0
:1025640000008A045D04B9043304560443043404AB
:10257400000000004E07EB06F504436F756C646EB3
:1025840027742066696E6420525443000D0A005279
:102594005443206973204E4F542072756E6E696ED9
:1025A400672C206C657427732073657420746865C8
:1025B4002074696D652100646F6E65000A20736C78
:1025C4005F6375727265744B6579203D2000736C8E
:1025D4005F6375727265744B65790020736C5F700C
:1025E4007265764B6579203D200020736C5F6E65C3
:1025F400774B6579466C6167203D200020736C5FE2
:102604006465626F756E63696E67436F756E74653A
:1026140072203D2000312D3E00322D3E00332D3EF0
:0E262400002020342D3E002020352D3E0000E9
:107E0000112484B714BE81FFF0D085E080938100F7
:107E100082E08093C00088E18093C10086E0809377
:107E2000C20080E18093C4008EE0C9D0259A86E02C
:107E300020E33CEF91E0309385002093840096BBD3
:107E4000B09BFECF1D9AA8958150A9F7CC24DD24C4
:107E500088248394B5E0AB2EA1E19A2EF3E0BF2EE7
:107E6000A2D0813461F49FD0082FAFD0023811F036
:107E7000013811F484E001C083E08DD089C08234E0
:107E800011F484E103C0853419F485E0A6D080C0E4
:107E9000853579F488D0E82EFF2485D0082F10E0AE
:107EA000102F00270E291F29000F111F8ED06801E7
:107EB0006FC0863521F484E090D080E0DECF843638
:107EC00009F040C070D06FD0082F6DD080E0C81688
:107ED00080E7D80618F4F601B7BEE895C0E0D1E017
:107EE00062D089930C17E1F7F0E0CF16F0E7DF06D8
:107EF00018F0F601B7BEE89568D007B600FCFDCFD4
:107F0000A601A0E0B1E02C9130E011968C91119780
:107F100090E0982F8827822B932B1296FA010C0160
:107F200087BEE89511244E5F5F4FF1E0A038BF0790
:107F300051F7F601A7BEE89507B600FCFDCF97BE46
:107F4000E89526C08437B1F42ED02DD0F82E2BD052
:107F50003CD0F601EF2C8F010F5F1F4F84911BD097
:107F6000EA94F801C1F70894C11CD11CFA94CF0C13
:107F7000D11C0EC0853739F428D08EE10CD085E9AC
:107F80000AD08FE07ACF813511F488E018D01DD067
:107F900080E101D065CF982F8091C00085FFFCCF94
:107FA0009093C60008958091C00087FFFCCF809118
:107FB000C00084FD01C0A8958091C6000895E0E648
:107FC000F0E098E1908380830895EDDF803219F02E
:107FD00088E0F5DFFFCF84E1DECF1F93182FE3DFCA
:107FE0001150E9F7F2DF1F91089580E0E8DFEE27F6
:047FF000FF270994CA
:027FFE00040479
:0400000300007E007B
:00000001FF
