:100000000C9468000C9490000C9490000C94900058
:100010000C9490000C9490000C9490000C94900020
:100020000C9490000C9490000C9490000C94900010
:100030000C9490000C9490000C9490000C94900000
:100040000C94C10D0C9490000C948F0D0C94690DC0
:100050000C9490000C9490000C9490000C949000E0
:100060000C940B0E0C94900000000000250028005A
:100070002B000000000023002600290000000008DB
:10008000000201000003040700000000000000005F
:100090001F1C1F1E1F1E1F1F1E1F1E0000000024EE
:1000A0000027002A000102040810204080010204F9
:1000B00008102001020408102004040404040404AD
:1000C00004020202020202030303030303002A0FD5
:1000D00011241FBECFEFD8E0DEBFCDBF23E0A8E7DD
:1000E000B1E001C01D92A531B207E1F711E0A0E037
:1000F000B1E0EAE6F7E202C005900D92A837B10739
:10010000D9F710E0C8E6D0E004C02197FE010E94B4
:100110008812C736D107C9F70E946D0F0C94B3132C
:100120000C9400008CBD9DBD089508950895AF9274
:10013000BF92CF92DF92EF92FF920F931F93CF93D4
:10014000DF936C017B018B01040F151FEB015E0136
:10015000AE18BF08C017D10759F06991D601ED91CB
:10016000FC910190F081E02DC6010995892B79F76A
:10017000C501DF91CF911F910F91FF90EF90DF901C
:10018000CF90BF90AF900895FC01538D448D252FE3
:1001900030E0842F90E0821B930B541710F0CF9621
:1001A000089501970895FC01918D828D981761F053
:1001B000A28DAE0FBF2FB11D5D968C91928D9F5F6A
:1001C0009F73928F90E008958FEF9FEF0895FC0149
:1001D000918D828D981731F0828DE80FF11D858DFC
:1001E00090E008958FEF9FEF0895FC01918D228D8F
:1001F000892F90E0805C9F4F821B91098F73992714
:10020000089588E592E00E94F50021E0892B09F429
:1002100020E0822F089580E090E0892B29F00E9451
:10022000010181110C9400000895FC01A48DA80F18
:10023000B92FB11DA35ABF4F2C91848D90E0019628
:100240008F739927848FA689B7892C93A089B18948
:100250008C91837080648C93938D848D981306C0E9
:100260000288F389E02D80818F7D80830895EF924D
:10027000FF920F931F93CF93DF93EC0181E0888F60
:100280009B8D8C8D98131AC0E889F989808185FF30
:1002900015C09FB7F894EE89FF896083E889F989D2
:1002A00080818370806480839FBF81E090E0DF91D4
:1002B000CF911F910F91FF90EF900895F62E0B8D27
:1002C00010E00F5F1F4F0F731127E02E8C8D8E11E2
:1002D0000CC00FB607FCFACFE889F989808185FF49
:1002E000F5CFCE010E941501F1CFEB8DEC0FFD2F64
:1002F000F11DE35AFF4FF0829FB7F8940B8FEA8904
:10030000FB8980818062CFCFCF93DF93EC01888D12
:100310008823B9F0AA89BB89E889F9898C9185FD80
:1003200003C0808186FD0DC00FB607FCF7CF8C910E
:1003300085FFF2CF808185FFEDCFCE010E941501B0
:10034000E9CFDF91CF910895833081F028F4813097
:1003500099F08230A9F008958730A9F08830C9F06B
:100360008430B1F4809180008F7D03C08091800043
:100370008F7780938000089584B58F7784BD08952A
:1003800084B58F7DFBCF8091B0008F778093B000D4
:1003900008958091B0008F7DF9CFCF93DF93282F00
:1003A00030E0F901E458FF4F8491F901EB55FF4F1C
:1003B000D491F901E754FF4FC491CC23A1F08111EE
:1003C0000E94A401EC2FF0E0EE0FFF1FEE58FF4F4C
:1003D000A591B491EC91ED2381E090E009F480E0E7
:1003E000DF91CF91089580E090E0FACF1F93CF93F3
:1003F000DF93282F30E0F901E458FF4F8491F90191
:10040000EB55FF4FD491F901E754FF4FC491CC2332
:10041000A9F0162F81110E94A401EC2FF0E0EE0F3D
:10042000FF1FE859FF4FA591B4918FB7F894EC9155
:10043000111108C0D095DE23DC938FBFDF91CF91DF
:100440001F910895DE2BF8CFCF93DF9390E0FC014E
:10045000EB55FF4F249187549F4FFC0184918823D3
:10046000C9F090E0880F991FFC01E556FF4FA59158
:10047000B491FC01E859FF4FC591D49161110DC0B1
:100480009FB7F8948C91209582238C9388812823A0
:1004900028839FBFDF91CF910895623051F49FB7B9
:1004A000F8943C91822F809583238C93E8812E2BA6
:1004B000EFCF8FB7F894EC912E2B2C938FBFEACF10
:1004C0003FB7F8948091CA019091CB01A091CC01E3
:1004D000B091CD0126B5A89B05C02F3F19F001961C
:1004E000A11DB11D3FBFBA2FA92F982F8827BC018E
:1004F000CD01620F711D811D911D42E0660F771FB6
:10050000881F991F4A95D1F708958F929F92AF92B5
:10051000BF92CF92DF92EF92FF924B015C010E945B
:1005200060026B017C010E9460026C197D098E09DA
:100530009F09683E734081059105A8F321E0821A66
:100540009108A108B10888EEC80E83E0D81EE11C0E
:10055000F11C81149104A104B10429F7FF90EF90DC
:10056000DF90CF90BF90AF909F908F9008952FB75E
:10057000F8946091C6017091C7018091C801909173
:10058000C9012FBF08952091A201260F3327331FE1
:1005900021323105ECF420912E02FC0190E080E044
:1005A000243069F082E00895A091A2012191AC016C
:1005B0004E575E4FA40FB52FB11D2C930196861791
:1005C00098F38091A201680F6093A20180E00895E2
:1005D00081E0089510922E0281E080932D02109206
:1005E000080261E082E10E94F60161E083E10E947D
:1005F000F601E9EBF0E080818E7F808380818D7F42
:10060000808388E48093B80085E48093BC000895DB
:10061000CF93DF9391E0909381018823B9F0C0914B
:10062000B800D091BA008091BC008A7B8093BC0056
:1006300060E082E10E94F60160E083E10E94F60141
:100640000E94EA02D093BA00C093B800DF91CF9124
:1006500008958F929F92AF92BF92CF92DF92EF92C6
:10066000FF920F931F93CF93DF93D0915702D13214
:1006700008F0D7C0182FC09156020E9460026B018B
:100680007C0180912E0281116BC082E080932E024A
:1006900010932D028FEF80932C0210922B02D09397
:1006A0002A02A6E3B2E0EAE0F2E080E0D81391C0CB
:1006B0001092090280910902CC0FC82BC093090245
:1006C00080910802813009F088C0109208020E94CF
:1006D00060026B017C01809109028093BB008091D4
:1006E000300290913102A0913202B0913302892BF5
:1006F0008A2B8B2BA1F00E94600200913002109196
:10070000310220913202309133026C197D098E0939
:100710009F09061717072807390708F442C0809178
:10072000BC0083FDD8CF85EC8093BC000E946002A2
:100730006B017C0180912E02823009F450C08091BF
:100740002C028F3F09F46FC080912C02803209F493
:100750006CC080912C02803309F469C084E026C00B
:100760008091300290913102A0913202B091330217
:10077000892B8A2B8B2B09F484CF0E9460028090F6
:10078000300290903102A0903202B09033026C1986
:100790007D098E099F0986169706A806B90608F0F6
:1007A00070CF80912F020E94080385E010923502DD
:1007B0001092570210923402DF91CF911F910F9146
:1007C000FF90EF90DF90CF90BF90AF909F908F9071
:1007D00008959D9191938F5F69CF85EEA5CF80910C
:1007E000300290913102A0913202B0913302892BF4
:1007F0008A2B8B2B09F49ECF0E946002009130025D
:100800001091310220913202309133026C197D092E
:100810008E099F09061717072807390708F08ACF9E
:10082000C0CF81E0C3CF80E0C1CF82E0BFCF83E003
:10083000BDCFCF93C42FDC0111968D919C91DC012B
:10084000ED91FC910280F381E02D41E050E00995AB
:10085000019729F48C2F0E94290391E0811190E0E7
:10086000892FCF9108950895E091E7018091E601E5
:10087000E81730F4F0E0E851FE4F808190E00895F1
:100880008FEF9FEF08959091E7018091E6012FEFA0
:100890003FEF981748F4E92FF0E0E851FE4F208130
:1008A00030E09F5F9093E701C90108958091E601D0
:1008B0009091E701891B990B0895CF92DF92EF92F7
:1008C000FF920F931F93CF93DF937C01CB018A019B
:1008D00020913402222389F0EB016B01C40ED51E56
:1008E000CC15DD0569F06991D701ED91FC9101907E
:1008F000F081E02DC7010995F3CF642F0E94C30258
:10090000C801DF91CF911F910F91FF90EF90DF9081
:10091000CF900895CF93DF931F92CDB7DEB7698351
:10092000209134022223F9F020915702203258F00E
:1009300021E030E0FC013383228390E080E00F90DF
:10094000DF91CF91089580913502E82FF0E0EA5CC5
:10095000FD4F998190838F5F80933502809357027A
:1009600081E090E0ECCF61E0CE0101960E94C302ED
:10097000F7CF90E080E00895CF93DF93EC018B8177
:100980008823A1F0888191E09093340280935602ED
:10099000109235021092570281E00E94290391E0E3
:1009A000811190E0892FDF91CF9108951092E70196
:1009B0001092E60110923502109257020E94EA024C
:1009C00085E990E09093D1018093D00186E990E091
:1009D0009093CF018093CE0181E08B83CE010E9462
:1009E000BC04982F8111CECFDDCFBC016E5F7F4F4D
:1009F000DC01ED91FC910190F081E02D40E0099542
:100A000091E0811190E0892F089508958EBD000036
:100A10000DB407FEFDCF8EB50895DF92EF92FF92E1
:100A20000F931F93CF93DF937C01062FD42E152FA6
:100A300080E590E00E94920060E0F70186850E94C8
:100A4000F60182E10E940605CD2DD12F0C0F1D2F3E
:100A5000111DC017D10721F089910E940605F9CF19
:100A600061E0F7018685DF91CF911F910F91FF9093
:100A7000EF90DF900C94F6011F93CF93DF93EC017E
:100A8000162F80E590E00E94920060E08E850E9423
:100A9000F601812F80680E94060580E00E9406050D
:100AA000182F61E08E850E94F601812FDF91CF9192
:100AB0001F9108950F931F93CF93DF93EC01062F9F
:100AC000142F80E590E00E94920060E08E850E94E5
:100AD000F601802F0E940605812F0E94060561E025
:100AE0008E85DF91CF911F910F910C94F601CF92DB
:100AF000DF92EF92FF920F931F93CF93DF93EC015E
:100B00006B01F42E890140E062E00E945A0544E046
:100B10006AE0CE010E945A0540E864E1CE010E94DD
:100B20005A05A6016F2DCE010E940D0543E062E03B
:100B3000CE010E945A050E94B7026B017C0129E593
:100B4000C20ED11CE11CF11C6AE0CE010E943C05E2
:100B500082FF1BC040E062E0CE010E945A0564E4BF
:100B6000CE010E943C05F801808362E4CE010E9420
:100B70003C05F801818380E0DF91CF911F910F91B7
:100B8000FF90EF90DF90CF9008950E94B7026C1510
:100B90007D058E059F05C0F283E0EECF2F923F9238
:100BA0004F925F926F927F928F929F92AF92CF926D
:100BB000DF92EF92FF920F931F93CF93DF9300D0BA
:100BC000CDB7DEB74C012B01D42E390180E0E11402
:100BD000F10411F0F70180813C2C329490EF39221E
:100BE000380E40E062E0C4010E945A054FE768E019
:100BF000C4010E945A0540E864E1C4010E945A05FC
:100C0000A2016D2DC4010E940D05432D6AE1C401AE
:100C10000E945A054CE062E0C4010E945A056AE154
:100C2000C4010E943C05482F40686AE1C4010E944B
:100C30005A050E94B7021B012C01F4E22F0E311C51
:100C4000411C511C68E0C4010E943C05982F907320
:100C500009F0B7C080FF15C083E00F900F90DF91BF
:100C6000CF911F910F91FF90EF90DF90CF90AF90B9
:100C70009F908F907F906F905F904F903F902F90BC
:100C800008950E94B7026215730584059505D0F298
:100C9000E3CF6114710409F469C00115110509F469
:100CA00065C064E1C4010E943C05382EF8018081D2
:100CB000831508F480C030823320E1F180E590E0B4
:100CC0000E94920060E0F40186850E94F6013A9449
:100CD00082E90E940605CC20B1F08FEF90E09C01E4
:100CE00002C0220F331FCA94E2F7690182E90E9411
:100CF00006059C2D9095F301208192238C21982B41
:100D00009083CC24C39423014C0C511CC31440F495
:100D100082E90E940605F20181932F01C394F6CF68
:100D200080E00E940605F201808361E0F40186857F
:100D30000E94F60168E1C4010E943C058770E1143D
:100D4000F10411F0F701808323FC37C061147104B2
:100D5000B1F10115110599F1AA2089F1F80140813D
:100D6000413031F4843029F58FEF77CF80E0ECCF3C
:100D70004230F8F081111DC042509E012F5F3F4F5D
:100D8000B301C4010E947705811167CFF8019081FA
:100D9000690E711CF301329720819981291309C0D2
:100DA000F1E06F1A7108F30120819A81291709F483
:100DB00054CF87E052CF84E050CF82E04ECF80E026
:100DC0004CCF6CE0C4010E943C05282E837109F4CD
:100DD00060CF81E042CF8F929F92AF92CF92EF92FD
:100DE000FF920F931F93CF93DF9300D000D01F92F9
:100DF000CDB7DEB74C0182E08D8340E064E2C401F0
:100E00000E945A0540E066E2C4010E945A0546E28B
:100E100068E4C4010E945A0586E28B838D8182308A
:100E2000D8F16CE1C4010E943C05482F4F776CE17A
:100E3000C4010E945A0587E08C83A12CC12CCE01ED
:100E400004967C018E010B5F1F4F9E012F5F3F4F69
:100E500041E0BE016D5F7F4FC4010E94CE05982F17
:100E6000811117C08D818230B9F48C81811114C039
:100E700081E00F900F900F900F900F90DF91CF9126
:100E80001F910F91FF90EF90CF90AF909F908F9018
:100E9000089581E0923069F380E0EBCF2F923F928A
:100EA0004F925F926F927F928F929F92AF92BF927A
:100EB000CF92DF92EF92FF920F931F93CF93DF9326
:100EC000CDB7DEB72D970FB6F894DEBF0FBECDBFFE
:100ED00016E0413508F04AC1342E3B014C016CE16B
:100EE0000E943C05482F4F776CE1C4010E945A05CF
:100EF00083E98983332029F081E0F30190819530E3
:100F000008F480E022242394B12C9B2D990F990F93
:100F1000990FD32CD91AD7FCD12C32E0882319F0A1
:100F200098E89B8333E021E09D2D977009F420E041
:100F30009D2D959595959595290FC9F094E0811172
:100F400093E0291708F4922FEB2DF0E03196E60D8F
:100F5000F71D232F4191A1E0B0E0AC0FBD1FA20F00
:100F6000B11D4C932F5F422F431B491798F38823E1
:100F700011F0F8E0DF0E8FE18D150CF082C090E7E4
:100F80009A838B819C8189279D8189279E818927CE
:100F90008F839E01285F3F4F47E0BE016F5F7F4F09
:100FA000C4010E947705182F8111E0C01A86E3E082
:100FB000EB87DC86CE0107962C0199E09D87CA84D9
:100FC0004C2D4295407F4C0D6AE1C4010E945A05A8
:100FD000A12CCE010A967C018E01055F1F4F920164
:100FE0004D85BE016F5F7F4FC4010E94CE05182F53
:100FF000823009F065C06CE1C4010E943C0585FDAA
:10100000B5C08F7109F480E2282F30E04D2DDD0C42
:10101000550B421753070CF09DC0D82EE82FE595CD
:10102000E595E595EF5F982F977081E009F480E0F2
:10103000E80F81E090E08C0F9D1F8E0F911DFC0149
:10104000215031092770332781E090E002C0880FDA
:10105000991F2A95E2F79C018081822B80838BCF98
:1010600085E98983332031F081E0F3019081983064
:1010700008F04BCF80E049CF87E9898326E0B22E84
:10108000F9CF9D2D97709A878D2D8595859585959E
:101090008E5F282F2295207F290F2A8321E091112E
:1010A00001C020E0280F2D8744244394512C4C0E7E
:1010B0005D1E480E511CE9E0E81BEB87DC867FCF04
:1010C000811154C080E2D82E9C8590320CF457CF09
:1010D0008B81883809F040C083E093E0EB2DF0E08D
:1010E0003196E60DF71D980FA1E0B0E0AC0FBD1FE3
:1010F000A80FB11D2C9121938F5F8913F5CFBB846D
:10110000E3E0BE124DC08A8581114AC09E012D5F69
:101110003F4F41E0B201C4010E947705182F8111B1
:1011200025C09B81F201818198133CC09C81828102
:10113000981338C0808182FF12C02394F2E02F16EA
:1011400009F48ECF83E0281609F496CF91E0291692
:1011500009F4CECE15E00AC082E094E0BFCFF301DF
:101160008387822D880F820D8F5F8083812F2D963C
:101170000FB6F894DEBF0FBECDBFDF91CF911F91A8
:101180000F91FF90EF90DF90CF90BF90AF909F9026
:101190008F907F906F905F904F903F902F90089529
:1011A00011E0E4CF17E0E2CF0E94B70260937A012A
:1011B00070937B0180937C0190937D0161E086E0D8
:1011C0000C94F601EF92FF920F931F93CF93DF934E
:1011D00062E082E00E94240262E08EE00E9424022B
:1011E00062E08FE00E94240262E081E10E9424021A
:1011F00062E083E00E94240262E080E00E94240218
:1012000062E080E10E94240288E0E82E81E0F82E6E
:1012100010E0F701C1917F0161E08C2F0E94240250
:1012200060E08C2F0E94F60183E00E94CD01892BA3
:1012300099F180E00E94CD01892B09F44AC080E138
:101240000E94CD01892B09F447C062E08C2F0E94D7
:1012500024021F5F1430E9F6CFEFC09301018091A3
:1012600000018C1340C080917E01811140C081E05B
:1012700080937E01CF3F41F081E090E09093800128
:1012800080937F010E94D4088C2FDF91CF911F9112
:101290000F91FF90EF900895D0E003E0C5E0802F1C
:1012A0000E94CD010197C1F262E070E080E090E021
:1012B0000E948502C15099F7C12FCC0FC10FDF5F8B
:1012C000CD0FCB3061F0CC3061F0CA3031F6CAE2DC
:1012D000C4CFD1E000E0E2CFD2E000E1DFCFC0E058
:1012E000BCCFC3E2BACF10927E01C0930001CFEF12
:1012F000CBCF0F931F93E0917F01F0918001E730F6
:10130000F10508F050C0E957F64F0C948812A50972
:101310008E09AB091B0A300A1B0A1B0A0E94B7027E
:1013200000917A0110917B0120917C0130917D0127
:10133000601B710B820B930B64367105810591055F
:1013400090F11092800110927F0160E086E01F9181
:101350000F910C94F60180917901811127C00E94B0
:10136000B70200917A0110917B0120917C013091AC
:101370007D01601B710B820B930B64367105810537
:10138000910588F060E086E00E94F6010E94B702B5
:1013900060937A0170937B0180937C0190937D012F
:1013A00081E0809379011F910F910895813019F5A3
:1013B0000E94B70200917A0110917B0120917C017B
:1013C00030917D01601B710B820B930B62337105B1
:1013D0008105910540F361E086E00E94F6010E94DC
:1013E000B70260937A0170937B0180937C019093A4
:1013F0007D0182E0D6CF8230B1F60E94B702009123
:101400007A0110917B0120917C0130917D01601B5C
:10141000710B820B930B643671058105910518F2EF
:1014200060E086E00E94F6011092800110927F0138
:1014300010927901B8CF0E94B70200917A01109101
:101440007B0120917C0130917D01601B710B820B2F
:10145000930B643F71408105910508F072CFA3CFD3
:1014600080917801811126C00E94B70200917A0113
:1014700010917B0120917C0130917D01601B710BEB
:10148000820B930B643671058105910508F48BCFAF
:1014900060E086E00E94F6010E94B70260937A0144
:1014A00070937B0180937C0190937D0181E0809318
:1014B000780179CF813021F50E94B70200917A013D
:1014C00010917B0120917C0130917D01601B710B9B
:1014D000820B930B623371058105910508F463CF8C
:1014E00061E086E00E94F6010E94B70260937A01F3
:1014F00070937B0180937C0190937D0182E0D7CF34
:10150000823009F050CF0E94B70200917A01109109
:101510007B0120917C0130917D01601B710B820B5E
:10152000930B643671058105910508F43CCF60E0AA
:1015300086E00E94F6011092800110927F011092C5
:10154000780131CF6F927F928F929F92AF92BF922C
:10155000CF92DF92EF92FF920F931F93CF93DF937F
:1015600000D000D0CDB7DEB7782EE92E0E94B702AA
:101570004B015C018E010F5F1F4F680184E0682EF4
:10158000600E0E94E208F82E0E9479090E94B702BC
:10159000681979098A099B0960327E4481059105A1
:1015A000E8F082E090E09093800180937F010E94B8
:1015B000D40890E080E00F900F900F900F90DF9193
:1015C000CF911F910F91FF90EF90DF90CF90BF9040
:1015D000AF909F908F907F906F9008958FEFF81647
:1015E00081F2AAE2FA16E9F2B3E2FB16D1F2F601B1
:1015F000F1926F016E12C5CF0E94E208F82E0E9490
:1016000079090E94B702681979098A099B09603231
:101610007E448105910528F62FEFF21669F383E2E7
:10162000F812BFCFE72DFE2DCF010496D8012D91E2
:101630008D0121938E179F07C9F783E090E0909367
:10164000800180937F010E94D40881E090E0B3CFB5
:101650000F931F93CF93DF93CDB7DEB728970FB6C5
:10166000F894DEBF0FBECDBF8C01CE0101960E9463
:10167000A20A892BA9F482E090E0909380018093E4
:101680007F010E94D40890E080E028960FB6F8947D
:10169000DEBF0FBECDBFDF91CF911F910F91089597
:1016A00086E090E09093800180937F010E94D408AF
:1016B000CE0105960E94A20A892BE9F29D818981BB
:1016C0009813D9CF9A818E819813D5CF9B818F8122
:1016D0009813D1CF9C8188859813CDCFDE011196C8
:1016E000F801C80104962D912193E817F907D9F75D
:1016F00083E090E09093800180937F010E94D40862
:1017000081E090E0C2CF2F923F924F925F926F9212
:101710007F928F929F92AF92BF92CF92DF92EF9281
:10172000FF920F931F93CF93DF935C011B016A011C
:10173000F12CE12CD50114968D919C9186010E1906
:101740001F098017910708F48C01F501D0810E94D0
:1017500060022B013C0180912E02811172C0C02FCA
:10176000013208F0C0E2F1E0F0932E0221E0C60160
:10177000801B910BE816F90608F420E020932D0257
:101780008FEF80932C0210922B028C0F80932A02F1
:10179000A1E0A093090280910902DD0FD82BD0931C
:1017A000090280910802813009F090C0109208026D
:1017B0000E9460022B013C01809109028093BB00D2
:1017C0008091300290913102A0913202B0913302A7
:1017D000892B8A2B8B2BA1F00E9460022091300272
:1017E00030913102409132025091330264197509EF
:1017F00086099709261737074807590708F442C092
:101800008091BC0083FDD8CFB5ECB093BC000E94A2
:1018100060022B013C0180912E02813009F45AC0F4
:1018200080912B028C1710F4C0912B02AAE0B2E039
:10183000E8EEF1E080E08C1751F19D9191938F5F7C
:10184000FACF8091300290913102A0913202B09192
:101850003302892B8A2B8B2B09F47DCF0E946002E7
:101860002091300230913102409132025091330286
:101870006419750986099709261737074807590714
:1018800008F069CF80912F020E940803C0E01092F7
:10189000E701C093E601C017110609F057C04101E6
:1018A0008E0C9F1CE401CE018819990980179107BD
:1018B00098F5D50111968D919C91DC01ED91FC91EB
:1018C0000284F385E02D09958993EDCFE5EEE09351
:1018D000BC009DCF8091300290913102A0913202E4
:1018E000B0913302892B8A2B8B2B09F494CF0E9461
:1018F00060022091300230913102409132025091C9
:1019000033026419750986099709261737074807AE
:10191000590708F080CFB6CFE00EF11EEC14FD049D
:1019200008F408CF81E0DF91CF911F910F91FF90D4
:10193000EF90DF90CF90BF90AF909F908F907F906F
:101940006F905F904F903F902F90089580E0EBCF85
:10195000FC0101900020E9F73197AF01481B590BBA
:10196000BC0188E592E00C9497008F929F92AF9211
:10197000BF920F931F93CF93DF93CDB7DEB7A1979D
:101980000FB6F894DEBF0FBECDBF19A2423008F4E7
:101990004AE08E010F5D1F4F842E912CB12CA12C9B
:1019A000A50194010E946612E62FB901CA01EA302E
:1019B000F4F4E05DD801EE938D01232B242B252B2D
:1019C00079F790E080E0109719F0CD010E94A80C03
:1019D000A1960FB6F894DEBF0FBECDBFDF91CF91B9
:1019E0001F910F91BF90AF909F908F900895E95CE9
:1019F000E1CF0F931F93CF93DF93EC018C010C5F2A
:101A00001F4F699170E090E080E04AE00E94B50CC1
:101A1000C017D107B1F78DE491E0DF91CF911F910D
:101A20000F910C94A80CEF92FF920F931F93CF93FA
:101A3000DF937C01D0E0C0E0062F10E0F701619158
:101A40007F01C8018C0F9D1F0E9458122196C4303F
:101A5000D105A1F7DF91CF911F910F91FF90EF90EA
:101A6000089585ED8093BC00809130029091310201
:101A7000A0913202B09133020796A11DB11D23E05F
:101A8000B695A795979587952A95D1F72091BC0093
:101A900024FD03C010922E0208954091300250910F
:101AA00031026091320270913302452B462B472B55
:101AB00069F30097A105B10541F02AE22A95F1F7F3
:101AC00000C00197A109B109E1CF80912F020C94C8
:101AD00008031F920F920FB60F9211242F933F937A
:101AE0004F935F936F937F938F939F93AF93BF9326
:101AF000EF93FF9388E592E00E941501FF91EF912B
:101B0000BF91AF919F918F917F916F915F914F9115
:101B10003F912F910F900FBE0F901F9018951F921D
:101B20000F920FB60F9211242F938F939F93EF93E1
:101B3000FF93E0916802F09169028081E0916E026A
:101B4000F0916F0282FD1BC09081809171028F5FC6
:101B50008F7320917202821741F0E0917102F0E0E0
:101B6000E85AFD4F958F80937102FF91EF919F91FD
:101B70008F912F910F900FBE0F901F90189580811D
:101B8000F4CF1F920F920FB60F9211242F933F9311
:101B90008F939F93AF93BF938091C6019091C7019C
:101BA000A091C801B091C9013091C50123E0230F74
:101BB0002D3758F50196A11DB11D2093C5018093C5
:101BC000C6019093C701A093C801B093C901809149
:101BD000CA019091CB01A091CC01B091CD010196A9
:101BE000A11DB11D8093CA019093CB01A093CC019C
:101BF000B093CD01BF91AF919F918F913F912F9164
:101C00000F900FBE0F901F90189526E8230F029695
:101C1000A11DB11DD2CF1F920F920FB60F921124AA
:101C20002F933F934F935F936F937F938F939F93E4
:101C3000AF93BF93EF93FF938091B900887F803675
:101C400009F44AC0F0F5883209F4A7C018F58031CC
:101C500009F49BC0B8F4882309F4F9C0883009F46A
:101C600094C0FF91EF91BF91AF919F918F917F9120
:101C70006F915F914F913F912F910F900FBE0F90F9
:101C80001F901895883109F488C0803251F78093ED
:101C90002C0214C0803409F49DC040F48033B9F3A1
:101CA0008833F9F680932C0285ECB0C0803509F4B6
:101CB00085C0883509F496C0883499F60E94310DA4
:101CC000D0CF883909F48CC038F5883729F050F422
:101CD000883611F0803729F683E080932E02109227
:101CE000C40157C0883809F47BC0803919F08038A6
:101CF00009F0B7CF8091C401803208F071C0E09143
:101D0000C40181E08E0F8093C4018091BB00F0E09C
:101D1000EC55FE4F80833DC0803B39F0E0F4803AC3
:101D200009F479C0883A09F09CCF84E080932E02B0
:101D30001092A3011092A201E091D001F091D10183
:101D400009958091A20181110FC081E08093A201C9
:101D50001092820109C0803C09F4A6CF883C09F4A6
:101D6000A3CF883B09F07DCFE091A30181E08E0FE6
:101D70008093A301F0E0EE57FE4F80818093BB007B
:101D80009091A3018091A20129C0809109028093C2
:101D9000BB0085EC8093BC0064CF90912B028091B6
:101DA0002A02981758F5E0912B0281E08E0F80935C
:101DB0002B02F0E0E65FFD4F8081E9CFE0912B023E
:101DC00081E08E0F80932B028091BB00F0E0E65FF4
:101DD000FD4F808390912B0280912A029817C8F2C0
:101DE00085E8D8CFE0912B0281E08E0F80932B0203
:101DF0008091BB00F0E0E65FFD4F808380912D0273
:101E000081115CCF81E08093080284EA8093BC005A
:101E100010922E0226CF85EC8093BC0010922E02E9
:101E20008091C401803230F4E091C401F0E0EC55BF
:101E3000FE4F10826091C40170E0E091CE01F091FC
:101E4000CF0184EA91E009951092C4010ACF109263
:101E50002C0234CFE8E5F2E01382128288EE93E0A0
:101E6000A0E0B0E084839583A683B78320E131E0CE
:101E70003183208325EC30E03587248724EC30E063
:101E80003787268720EC30E0318B208B21EC30E047
:101E9000338B228B22EC30E0358B248B26EC30E028
:101EA000378B268B118E128E138E148EE5EFF2E097
:101EB0001382128284839583A683B78382E291E0A2
:101EC00091838083E1E0F3E084E391E09183808378
:101ED0008AE0868789E087870895CF93DF93CDB71F
:101EE000DEB728970FB6F894DEBF0FBECDBF78944B
:101EF00084B5826084BD84B5816084BD85B582600F
:101F000085BD85B5816085BD80916E0081608093BF
:101F10006E00109281008091810082608093810028
:101F20008091810081608093810080918000816038
:101F3000809380008091B10084608093B100809193
:101F4000B00081608093B00080917A0084608093BB
:101F50007A0080917A00826080937A0080917A0082
:101F6000816080937A0080917A00806880937A0003
:101F70001092C100E0916802F091690282E08083D2
:101F8000E0916402F09165021082E0916602F091A6
:101F9000670280E1808310927002E0916C02F09100
:101FA0006D0286E08083E0916A02F0916B0280818D
:101FB00080618083E0916A02F0916B028081886089
:101FC0008083E0916A02F0916B0280818068808357
:101FD000E0916A02F0916B0280818F7D808361E0E5
:101FE00086E00E94240260E086E00E94F60152EE44
:101FF000C52E51E0D52E6EEDE62E61E0F62E10E0F6
:1020000000E0C8010E945012F60181936F01C801DF
:1020100004960E945012F70181937F010F5F1F4FBA
:102020000430110571F78091D2019091D30100978E
:1020300011F00E942A1386E090E00E948E128C011B
:1020400088E6F801808385EF92E092838183138292
:1020500080E290E0958384831093D3010093D201B2
:102060001092E7011092E601109235021092570289
:102070000E94EA0285E990E09093D1018093D0011B
:1020800086E990E09093CF018093CE0181E0F80142
:102090008383C8010E94BC0481110CC08AE391E0D3
:1020A0000E94A80C8CE491E00E94A80C88E592E0C4
:1020B0000E94840118868091D2019091D301FC0185
:1020C00024813581232B81F0208131E0309334024B
:1020D00020935602109235021092570241E0BE0141
:1020E000685F7F4F0E94190441E050E0BE016F5FBE
:1020F0007F4F8091D2019091D3010E94830B8981FF
:1021000090E0880F892F881F990B892B41F08FE46D
:1021100091E00E94A80C8CE491E00E94A80C198226
:102120000091D2011091D301F80184819581892B0E
:10213000D9F0808191E090933402809356021092FE
:1021400035021092570240E0BE016F5F7F4FC80119
:102150000E941904882341F047E050E0BE016F5F00
:102160007F4FC8010E94830B2E81822F90E034E0C4
:10217000959587953A95E1F7982F990F990F891BB7
:10218000880F820FE0E9F0E091E0981720F42491A5
:102190009F5F3196FACF1FB7F8948091D4018111D7
:1021A00027C0E3ECF0E08491EFEAF0E09491E82FAF
:1021B000F0E0EE0FFF1FE556FF4FA591B491EC91B3
:1021C000E92321F461E08AE00E94F60161E08AE0FF
:1021D0000E9424028CB580618CBD8CB580648CBD5E
:1021E00061E08DE00E94240261E08BE00E94240205
:1021F0008091D4018F5F8093D4011FBF61E08091F3
:102200000F030E94240261E080910F030E94F601F7
:10221000809110038F3F09F42CC160E00E942402DA
:10222000809110030E94CD01892B09F022C161E049
:10223000809110030E94240260E0809110030E94AC
:10224000F60183E090E00197F1F761E080911003DF
:102250000E94F60162E370E080E090E00E94850257
:1022600040E064E281E093E00E945A0540E066E2CB
:1022700081E093E00E945A0546E268E481E093E041
:102280000E945A0540E864E581E093E00E945A0507
:1022900049EA66E581E093E00E945A0543E068E57B
:1022A00081E093E00E945A0548EE6AE581E093E000
:1022B0000E945A0540E46AE281E093E00E945A05D8
:1022C0004DE362E281E093E00E945A0568E281E01A
:1022D00093E00E943C05982F9370933039F0482F7B
:1022E000436068E281E093E00E945A0562E088E082
:1022F0000E94240262E085E00E94240262E084E001
:102300000E9424021092D9011092D80161E087E066
:102310000E94240260E087E00E94F60185E080933D
:10232000D50181E08093D60182E08093D70165E0FA
:1023300088E090E00E9458126091D60189E090E018
:102340000E9458126091D7018AE090E00E945812D2
:102350000E94B7026B017C018091D8019091D90154
:10236000892BE9F488E00E94CD010197C1F461E076
:1023700087E00E94F60188E00E94CD01019759F4A0
:102380000E94B7026C197D098E099F09603D774054
:102390008105910560F360E087E00E94F60168EB3B
:1023A0007BE080E090E00E94850200E010E082EE99
:1023B00091E00E94280B6C01990FEE08FF084AE09B
:1023C000C701B601F7FE0DC06DE288E592E00E94FC
:1023D000370166277727CB016C197D098E099F0984
:1023E0004AE00E94B50C8CE491E00E94A80C60E0E9
:1023F00082EE91E00E94130D8EED91E00E94280B79
:102400006C01990FEE08FF084AE0C701B601F7FE1C
:102410000DC06DE288E592E00E94370166277727BC
:10242000CB016C197D098E099F094AE00E94B50C09
:102430008CE491E00E94A80C64E08EED91E00E9493
:10244000130D8AED91E00E94F90C82EE91E00E945A
:10245000F90C8EED91E00E94F90C0115110509F4BB
:10246000A6CF0E940101882309F4A1CF0E94000099
:102470009ECF4FE062E081E093E00E945A0513E0B6
:1024800062E370E080E090E00E94850262E081E01B
:1024900093E00E943C0584FFE3CE115089F7E0CE23
:1024A000F999FECF92BD81BDF89A992780B508951C
:1024B000262FF999FECF1FBA92BD81BD20BD0FB660
:1024C000F894FA9AF99A0FBE01960895A1E21A2E8D
:1024D000AA1BBB1BFD010DC0AA1FBB1FEE1FFF1FC8
:1024E000A217B307E407F50720F0A21BB30BE40B18
:1024F000F50B661F771F881F991F1A9469F760955F
:102500007095809590959B01AC01BD01CF01089518
:10251000EE0FFF1F0590F491E02D09940F931F9388
:10252000CF93DF938230910510F482E090E0E09148
:102530001303F091140330E020E0B0E0A0E0309706
:1025400099F42115310509F44AC0281B390B2430B0
:102550003105D8F58A819B816115710589F1FB01EF
:1025600093838283FE0111C04081518102811381D6
:1025700048175907E0F04817590799F4109761F088
:1025800012960C93129713961C933296CF01DF91FB
:10259000CF911F910F91089500931303109314038B
:1025A000F4CF2115310551F04217530738F0A90136
:1025B000DB019A01BD01DF01F801C1CFEF01F9CFC5
:1025C0009093140380931303CDCFFE01E20FF31F0A
:1025D000819391932250310939832883D7CF209159
:1025E000110330911203232B41F420910401309107
:1025F00005013093120320931103209102013091C1
:1026000003012115310541F42DB73EB74091060174
:1026100050910701241B350BE0911103F091120337
:10262000E217F307A0F42E1B3F0B2817390778F0A9
:10263000AC014E5F5F4F2417350748F04E0F5F1F08
:102640005093120340931103819391939FCFF0E035
:10265000E0E09CCFCF93DF930097E9F0FC01329745
:1026600013821282A0911303B0911403ED0130E0A4
:1026700020E01097A1F420813181820F931F2091D7
:102680001103309112032817390709F061C0F09344
:102690001203E0931103DF91CF910895EA01CE1761
:1026A000DF07E8F54A815B819E0141155105B1F7CD
:1026B000E901FB83EA8349915991C40FD51FEC17B7
:1026C000FD0761F4808191810296840F951FE901D5
:1026D00099838883828193819B838A83F0E0E0E001
:1026E00012968D919C9113970097B9F52D913C917D
:1026F0001197CD010296820F931F20911103309103
:1027000012032817390739F6309751F51092140340
:1027100010921303B0931203A0931103BCCFD38381
:10272000C28340815181840F951FC817D90761F476
:102730004E5F5F4F88819981480F591F51834083B5
:102740008A819B81938382832115310509F0B0CF63
:10275000F0931403E09313039ECFFD01DC01C0CF7F
:0A27600013821282D7CFF894FFCF46
:10276A00FFFF000015038000020E0F110000000099
:10277A0037019700C4008401F500D300E700000088
:10278A0000008A045D04B904330456044304340483
:10279A00000000004E07EB06F504436F756C646E8B
:1027AA0027742066696E6420525443000D0A005251
:1027BA005443206973204E4F542072756E6E696EB1
:1027CA00672C206C657427732073657420746865A0
:0827DA002074696D6521000007
:107E0000112484B714BE81FFF0D085E080938100F7
:107E100082E08093C00088E18093C10086E0809377
:107E2000C20080E18093C4008EE0C9D0259A86E02C
:107E300020E33CEF91E0309385002093840096BBD3
:107E4000B09BFECF1D9AA8958150A9F7CC24DD24C4
:107E500088248394B5E0AB2EA1E19A2EF3E0BF2EE7
:107E6000A2D0813461F49FD0082FAFD0023811F036
:107E7000013811F484E001C083E08DD089C08234E0
:107E800011F484E103C0853419F485E0A6D080C0E4
:107E9000853579F488D0E82EFF2485D0082F10E0AE
:107EA000102F00270E291F29000F111F8ED06801E7
:107EB0006FC0863521F484E090D080E0DECF843638
:107EC00009F040C070D06FD0082F6DD080E0C81688
:107ED00080E7D80618F4F601B7BEE895C0E0D1E017
:107EE00062D089930C17E1F7F0E0CF16F0E7DF06D8
:107EF00018F0F601B7BEE89568D007B600FCFDCFD4
:107F0000A601A0E0B1E02C9130E011968C91119780
:107F100090E0982F8827822B932B1296FA010C0160
:107F200087BEE89511244E5F5F4FF1E0A038BF0790
:107F300051F7F601A7BEE89507B600FCFDCF97BE46
:107F4000E89526C08437B1F42ED02DD0F82E2BD052
:107F50003CD0F601EF2C8F010F5F1F4F84911BD097
:107F6000EA94F801C1F70894C11CD11CFA94CF0C13
:107F7000D11C0EC0853739F428D08EE10CD085E9AC
:107F80000AD08FE07ACF813511F488E018D01DD067
:107F900080E101D065CF982F8091C00085FFFCCF94
:107FA0009093C60008958091C00087FFFCCF809118
:107FB000C00084FD01C0A8958091C6000895E0E648
:107FC000F0E098E1908380830895EDDF803219F02E
:107FD00088E0F5DFFFCF84E1DECF1F93182FE3DFCA
:107FE0001150E9F7F2DF1F91089580E0E8DFEE27F6
:047FF000FF270994CA
:027FFE00040479
:0400000300007E007B
:00000001FF
