:100000000C9417020C943F020C943F020C943F0294
:100010000C943F020C943F020C943F020C943F025C
:100020000C943F020C943F020C943F020C943F024C
:100030000C943F020C943F020C943F020C943F023C
:100040000C94C60E0C943F020C94940E0C946E0EFD
:100050000C943F020C943F020C943F020C943F021C
:100060000C94100F0C943F021F1C1F1E1F1E1F1FFD
:100070001E1F1E556E6B6E6F776E206572726F72EB
:100080000041204D4946415245205049434320728A
:100090006573706F6E6465642077697468204E4183
:1000A0004B2E00546865204352435F4120646F65C6
:1000B00073206E6F74206D617463682E00496E76D4
:1000C000616C696420617267756D656E742E00499C
:1000D0006E7465726E616C206572726F7220696EEB
:1000E0002074686520636F64652E2053686F756C9B
:1000F00064206E6F742068617070656E2E00412000
:10010000627566666572206973206E6F742062691D
:100110006720656E6F7567682E0054696D656F7531
:100120007420696E20636F6D6D756E6963617469AB
:100130006F6E2E00436F6C6C6973696F6E2064651F
:100140007465637465642E004572726F7220696E07
:1001500020636F6D6D756E69636174696F6E2E00DB
:10016000537563636573732E00000000002500283B
:10017000002B0000000000230026002900000000E2
:100180000800020100000304070000000000000056
:100190000000000000240027002A000102040810CB
:1001A00020408001020408102001020408102004ED
:1001B000040404040404040202020202020303030E
:1001C000030303556E6B6E6F776E20747970650054
:1001D00053414B20696E64696361746573205549AE
:1001E00044206973206E6F7420636F6D706C65744A
:1001F000652E004D494641524520544E50335858C3
:1002000058004D4946415245204445534669726560
:10021000004D494641524520506C7573004D49468A
:1002200041524520556C7472616C69676874206F27
:100230007220556C7472616C696768742043004D5C
:10024000494641524520344B42004D4946415245B2
:1002500020314B42004D4946415245204D696E695F
:100260002C20333230206279746573005049434347
:1002700020636F6D706C69616E742077697468209B
:1002800049534F2F49454320313830393220284EC9
:10029000464329005049434320636F6D706C696188
:1002A0006E7420776974682049534F2F4945432065
:1002B00031343434332D3400204164723D307800C1
:1002C0002056616C75653D30780020496E76657208
:1002D000746564206163636573732062697473205D
:1002E000646964206E6F74206D61746368212000FE
:1002F000205D200020002000205B20002000200046
:100300002030004D49464152455F526561642829BD
:10031000206661696C65643A20005043445F417512
:100320007468656E74696361746528292066616903
:100330006C65643A2000202000202000202020202E
:100340002020200020202000202020003A004461AE
:10035000746120696E20626C6F636B20004D4946AA
:100360004152455F526561642829206661696C6568
:10037000643A2000202E2E2E0052656164696E675B
:1003800020646174612066726F6D20626C6F636BB4
:10039000200043757272656E742064617461206917
:1003A0006E20736563746F723A005043445F417509
:1003B0007468656E74696361746528292066616973
:1003C0006C65643A200041757468656E7469636198
:1003D00074696E67207573696E67206B657920415B
:1003E0002E2E2E00546869732073616D706C652029
:1003F0006F6E6C7920776F726B73207769746820E9
:100400004D494641524520436C61737369632063D3
:10041000617264732E005049434320747970653AC9
:10042000200043617264205549443A002F10112482
:100430001FBECFEFD8E0DEBFCDBF24E0A4E8B2E01E
:1004400001C01D92A035B207E1F712E0A0E0B1E0D3
:10045000EAE5F2E302C005900D92A438B107D9F79E
:1004600012E0C7E1D2E004C02197FE010E9400180B
:10047000C631D107C9F70E9472100C942B190C9445
:1004800000008CBD9DBD0895EF92FF920F931F93C6
:1004900060911B0330911C03432F50E020911A03FD
:1004A000822F90E0E8E4F1E021E0261728F4719132
:1004B000870F911D2F5FF9CF633018F0337009F467
:1004C00001966DE671E0469F9001479F300D569F63
:1004D000300D1124215031094D5F5F4F56954795DE
:1004E00056954795240F351F280F391FA8E1B0E016
:1004F0000E94CF17209119037B018C01E20EF11CA1
:10050000011D111DA8019701ACE3B0E00E94C417C2
:10051000209118037B018C01E20EF11C011D111DBD
:10052000A80197010E94C41760587C4B8249974CE0
:100530001F910F91FF90EF90089508950895AF9245
:10054000BF92CF92DF92EF92FF920F931F93CF93C0
:10055000DF936C017B018B01040F151FEB015E0122
:10056000AE18BF08C017D10759F06991D601ED91B7
:10057000FC910190F081E02DC6010995892B79F756
:10058000C501DF91CF911F910F91FF90EF90DF9008
:10059000CF90BF90AF900895FC01538D448D252FCF
:1005A00030E0842F90E0821B930B541710F0CF960D
:1005B000089501970895FC01918D828D981761F03F
:1005C000A28DAE0FBF2FB11D5D968C91928D9F5F56
:1005D0009F73928F90E008958FEF9FEF0895FC0135
:1005E000918D828D981731F0828DE80FF11D858DE8
:1005F00090E008958FEF9FEF0895FC01918D228D7B
:10060000892F90E0805C9F4F821B91098F739927FF
:10061000089583E993E00E94FD0221E0892B09F40B
:1006200020E0822F089580E090E0892B29F00E943D
:10063000090381110C9400000895FC01A48DA80FFA
:10064000B92FB11DA35ABF4F2C91848D90E0019614
:100650008F739927848FA689B7892C93A089B18934
:100660008C91837080648C93938D848D981306C0D5
:100670000288F389E02D80818F7D80830895EF9239
:10068000FF920F931F93CF93DF93EC0181E0888F4C
:100690009B8D8C8D98131AC0E889F989808185FF1C
:1006A00015C09FB7F894EE89FF896083E889F989BE
:1006B00080818370806480839FBF81E090E0DF91C0
:1006C000CF911F910F91FF90EF900895F62E0B8D13
:1006D00010E00F5F1F4F0F731127E02E8C8D8E11CE
:1006E0000CC00FB607FCFACFE889F989808185FF35
:1006F000F5CFCE010E941D03F1CFEB8DEC0FFD2F46
:10070000F11DE35AFF4FF0829FB7F8940B8FEA89EF
:10071000FB8980818062CFCF0F931F93CF93DF93AC
:100720008C01D0E0C0E0F801EC0FFD1F649166235E
:1007300041F083E993E00E943F03892B11F0219659
:10074000F2CFCE01DF91CF911F910F910895CF93FA
:10075000DF93EC01888D8823B9F0AA89BB89E889E9
:10076000F9898C9185FD03C0808186FD0DC00FB68F
:1007700007FCF7CF8C9185FFF2CF808185FFEDCF0D
:10078000CE010E941D03E9CFDF91CF910895833000
:1007900081F028F4813099F08230A9F008958730F3
:1007A000A9F08830C9F08430B1F4809180008F7D49
:1007B00003C0809180008F7780938000089584B576
:1007C0008F7784BD089584B58F7DFBCF8091B00075
:1007D0008F778093B00008958091B0008F7DF9CF1E
:1007E000CF93DF93282F30E0F901E358FE4F849137
:1007F000F901E556FE4FD491F901E155FE4FC49140
:10080000CC23A1F081110E94C703EC2FF0E0EE0F82
:10081000FF1FED58FE4FA591B491EC91ED2381E0BF
:1008200090E009F480E0DF91CF91089580E090E0BE
:10083000FACF1F93CF93DF93282F30E0F901E358CD
:10084000FE4F8491F901E556FE4FD491F901E1552F
:10085000FE4FC491CC23A9F0162F81110E94C7032B
:10086000EC2FF0E0EE0FFF1FE759FE4FA591B4917A
:100870008FB7F894EC91111108C0D095DE23DC936A
:100880008FBFDF91CF911F910895DE2BF8CFCF93CB
:10089000DF9390E0FC01E556FE4F249181559E4F79
:1008A000FC0184918823C9F090E0880F991FFC0116
:1008B000EF56FE4FA591B491FC01E759FE4FC5914B
:1008C000D49161110DC09FB7F8948C91209582232B
:1008D0008C938881282328839FBFDF91CF9108952F
:1008E000623051F49FB7F8943C91822F8095832316
:1008F0008C93E8812E2BEFCF8FB7F894EC912E2BB1
:100900002C938FBFEACF3FB7F8948091CD0290919E
:10091000CE02A091CF02B091D00226B5A89B05C00F
:100920002F3F19F00196A11DB11D3FBFBA2FA92F6E
:10093000982F8827BC01CD01620F711D811D911D6B
:1009400042E0660F771F881F991F4A95D1F70895D7
:100950008F929F92AF92BF92CF92DF92EF92FF92CF
:100960004B015C010E9483046B017C010E948304A3
:100970006C197D098E099F09683E734081059105B8
:10098000A8F321E0821A9108A108B10888EEC80EE8
:1009900083E0D81EE11CF11C81149104A104B10470
:1009A00029F7FF90EF90DF90CF90BF90AF909F908E
:1009B0008F9008952FB7F8946091C9027091CA0280
:1009C0008091CB029091CC022FBF08952091A50277
:1009D000260F3327331F21323105ECF420916903B0
:1009E000FC0190E080E0243069F082E00895A0915D
:1009F000A5022191AC014B575D4FA40FB52FB11D3E
:100A00002C930196861798F38091A502680F609346
:100A1000A50280E0089581E008951092690381E0C5
:100A2000809368031092430361E082E10E941904FD
:100A300061E083E10E941904E9EBF0E080818E7FA0
:100A4000808380818D7F808388E48093B80085E4F3
:100A50008093BC000895CF93DF9391E0909384023C
:100A60008823B9F0C091B800D091BA008091BC0041
:100A70008A7B8093BC0060E082E10E94190460E000
:100A800083E10E9419040E940D05D093BA00C0931F
:100A9000B800DF91CF9108958F929F92AF92BF924D
:100AA000CF92DF92EF92FF920F931F93CF93DF933A
:100AB000D0919203D13208F0D7C0182FC091910382
:100AC0000E9483046B017C018091690381116BC0DA
:100AD00082E080936903109368038FEF809367032C
:100AE00010926603D0936503A1E7B3E0E5E4F3E079
:100AF00080E0D81391C01092440380914403CC0F3E
:100B0000C82BC093440380914303813009F088C00F
:100B1000109243030E9483046B017C018091440383
:100B20008093BB0080916B0390916C03A0916D0347
:100B3000B0916E03892B8A2B8B2BA1F00E9483042A
:100B400000916B0310916C0320916D0330916E0343
:100B50006C197D098E099F090617170728073907A1
:100B600008F442C08091BC0083FDD8CF85EC80930F
:100B7000BC000E9483046B017C0180916903823078
:100B800009F450C0809167038F3F09F46FC08091D2
:100B90006703803209F46CC080916703803309F4E5
:100BA00069C084E026C080916B0390916C03A09192
:100BB0006D03B0916E03892B8A2B8B2B09F484CFA4
:100BC0000E94830480906B0390906C03A0906D034F
:100BD000B0906E036C197D098E099F0986169706E1
:100BE000A806B90608F070CF80916A030E942B0511
:100BF00085E0109270031092920310926F03DF91C0
:100C0000CF911F910F91FF90EF90DF90CF90BF9009
:100C1000AF909F908F9008959D9191938F5F69CF32
:100C200085EEA5CF80916B0390916C03A0916D032D
:100C3000B0916E03892B8A2B8B2B09F49ECF0E94D7
:100C4000830400916B0310916C0320916D0330912C
:100C50006E036C197D098E099F090617170728076F
:100C6000390708F08ACFC0CF81E0C3CF80E0C1CF81
:100C700082E0BFCF83E0BDCFCF93C42FDC011196BC
:100C80008D919C91DC01ED91FC910280F381E02D2E
:100C900041E050E00995019729F48C2F0E944C0502
:100CA00091E0811190E0892FCF9108950895E0910E
:100CB000220380912103E81730F4F0E0ED5DFC4F52
:100CC000808190E008958FEF9FEF08959091220327
:100CD000809121032FEF3FEF981748F4E92FF0E0C0
:100CE000ED5DFC4F208130E09F5F90932203C901AE
:100CF00008958091210390912203891B990B0895F7
:100D0000CF92DF92EF92FF920F931F93CF93DF93D7
:100D10007C01CB018A0120916F03222389F0EB0132
:100D20006B01C40ED51ECC15DD0569F06991D701A4
:100D3000ED91FC910190F081E02DC7010995F3CF71
:100D4000642F0E94E604C801DF91CF911F910F919B
:100D5000FF90EF90DF90CF900895CF93DF931F9295
:100D6000CDB7DEB7698320916F032223F9F020917C
:100D70009203203258F021E030E0FC0133832283DB
:100D800090E080E00F90DF91CF9108958091700303
:100D9000E82FF0E0EF58FC4F998190838F5F8093AC
:100DA00070038093920381E090E0ECCF61E0CE018C
:100DB00001960E94E604F7CF90E080E00895CF937B
:100DC000DF93EC018B818823A1F0888191E09093DF
:100DD0006F0380939103109270031092920381E04D
:100DE0000E944C0591E0811190E0892FDF91CF9115
:100DF0000895109222031092210310927003109212
:100E000092030E940D058DE992E09093D4028093A5
:100E1000D3028EE992E09093D2028093D10281E0D6
:100E20008B83CE010E94DF06982F8111CECFDDCFBC
:100E3000BC016E5F7F4FDC01ED91FC910190F08170
:100E4000E02D40E0099591E0811190E0892F08950F
:100E50008430F1F050F4813091F030F1823091F033
:100E6000833099F083E790E008958630B9F098F0E8
:100E70008730B9F08F3FB1F781E890E0089588E4BA
:100E800091E0089584E391E008958AE191E0089566
:100E90008EEF90E008958FEC90E008958DEB90E058
:100EA000089583EA90E0089580E691E0089508951A
:100EB0008EBD00000DB407FEFDCF8EB50895DF9204
:100EC000EF92FF920F931F93CF93DF937C01062F36
:100ED000D42E152F80E590E00E94410260E0F701DA
:100EE00086850E94190482E10E945807CD2DD12FDA
:100EF0000C0F1D2F111DC017D10721F089910E94E1
:100F00005807F9CF61E0F7018685DF91CF911F91F6
:100F10000F91FF90EF90DF900C9419041F93CF93E3
:100F2000DF93EC01162F80E590E00E94410260E023
:100F30008E850E941904812F80680E94580780E0E6
:100F40000E945807182F61E08E850E941904812F96
:100F5000DF91CF911F9108950F931F93CF93DF934C
:100F6000EC01062F142F80E590E00E94410260E022
:100F70008E850E941904802F0E945807812F0E949D
:100F8000580761E08E85DF91CF911F910F910C94EE
:100F90001904CF92DF92EF92FF920F931F93CF939A
:100FA000DF93EC016B01F42E890140E062E00E94C6
:100FB000AC0744E06AE0CE010E94AC0740E864E17F
:100FC000CE010E94AC07A6016F2DCE010E945F07E3
:100FD00043E062E0CE010E94AC070E94DA046B019C
:100FE0007C0129E5C20ED11CE11CF11C6AE0CE0196
:100FF0000E948E0782FF1BC040E062E0CE010E948B
:10100000AC0764E4CE010E948E07F801808362E49D
:10101000CE010E948E07F801818380E0DF91CF919D
:101020001F910F91FF90EF90DF90CF9008950E9455
:10103000DA046C157D058E059F05C0F283E0EECFC6
:101040002F923F924F925F926F927F928F929F92D8
:10105000AF92BF92CF92DF92EF92FF920F931F93C6
:10106000CF93DF9300D0CDB7DEB73C01162F942E7F
:10107000290180E0A114B10411F0F5018081382C20
:10108000329490EF3922380E40E062E0C3010E94B2
:10109000AC074FE768E0C3010E94AC0740E864E199
:1010A000C3010E94AC07A201602FC3010E945F0729
:1010B000432D6AE1C3010E94AC07412F62E0C301E6
:1010C0000E94AC071C3051F46AE1C3010E948E07F4
:1010D000482F40686AE1C3010E94AC070E94DA040D
:1010E0001B012C01F4E22F0E311C411C511C68E045
:1010F000C3010E948E07982F992109F0B6C080FF86
:1011000016C083E00F900F90DF91CF911F910F9148
:10111000FF90EF90DF90CF90BF90AF909F908F9017
:101120007F906F905F904F903F902F9008950E9416
:10113000DA046215730584059505C8F2E2CFE1145F
:10114000F10409F467C0C114D10409F463C064E177
:10115000C3010E948E07982EF6018081891508F43C
:101160007EC090829920C9F180E590E00E94410202
:1011700060E0F30186850E9419049A9482E90E9436
:101180005807882099F00FEF10E001C0000F8A94F3
:10119000EAF782E90E945807902F9095F701208185
:1011A00092238023982B9083882483948701080DB1
:1011B000111D891440F482E90E945807F8018193B7
:1011C0008F018394F6CF80E00E945807F801808356
:1011D00061E0F30186850E94190468E1C3010E9461
:1011E0008E078770A114B10411F0F501808353FCC0
:1011F00038C0E114F104B9F1C114D104A1F19F89FF
:10120000992389F1F6014081413031F4843029F588
:101210008FEF78CF80E0EBCF4230F8F081111DC026
:1012200042509E012F5F3F4FB701C3010E94C90783
:10123000811168CFF6019081E90EF11CF701329718
:1012400020819981291309C0F1E0EF1AF108F70113
:1012500020819A81291709F455CF87E053CF84E084
:1012600051CF82E04FCF80E04DCF6CE0C3010E94B0
:101270008E07582E837109F462CF81E043CF8F929D
:10128000AF92BF92CF92DF92EF92FF920F93CF93E4
:10129000DF93CDB7DEB72C970FB6F894DEBF0FBE45
:1012A000CDBF90E699838A83E0E1F3E0DE011396F7
:1012B00081918D9383E0E631F807D1F7E0913E0408
:1012C000E150FF0BE45CFB4FDE011996CE010D9659
:1012D00021912D93A817B907D9F71F92812CB12C12
:1012E000A12CD12CC12CF12CE12C0CE09E012F5F04
:1012F0003F4F40E16EE08CE394E00E9420080F90A5
:101300002C960FB6F894DEBF0FBECDBFDF91CF9104
:101310000F91FF90EF90DF90CF90BF90AF908F90A4
:1013200008950F931F93CF93DF938C01D62FC42F73
:101330000E948E07C0954C2F48236D2FC801DF9166
:10134000CF911F910F910C94AC076F927F928F9267
:10135000AF92BF92CF92DF92EF92FF920F93CF9313
:10136000DF9300D000D01F92CDB7DEB73C0182E002
:101370008D8340E064E2C3010E94AC0740E066E276
:10138000C3010E94AC0746E268E4C3010E94AC07B7
:1013900086E28B838D818230C8F140E86CE1C30125
:1013A0000E94910987E08C831F92812CCE010496C4
:1013B0005C0101966C0104977C0101E09E012D5FA8
:1013C0003F4F40E36CE0C3010E942008982F0F902C
:1013D000811119C08D818230C9F48C81811116C0B0
:1013E00081E00F900F900F900F900F90DF91CF91B1
:1013F0000F91FF90EF90DF90CF90BF90AF908F90C4
:101400007F906F90089581E0923059F380E0E9CFAA
:101410002F923F924F925F926F927F928F929F9204
:10142000AF92BF92CF92DF92EF92FF920F931F93F2
:10143000CF93DF93CDB7DEB72E970FB6F894DEBF0C
:101440000FBECDBF06E0413508F046C14E873B01D7
:101450002C0140E86CE10E94910983E989832E8583
:10146000222329F081E0F3019081953008F480E097
:10147000992493941C869C85990F990F990F1E852A
:10148000191B17FD10E032E0882319F098E89B83C0
:1014900033E021E0912F977009F420E0912F95958A
:1014A00095959595290FD1F094E0811193E0291736
:1014B00008F4922F2C85E22FF0E03196E60DF71D0F
:1014C000232F4191A1E0B0E0AC0FBD1FA20FB11DD1
:1014D0004C932F5F422F431B491798F38111185FDC
:1014E00010320CF484C080E78A838B819C81892729
:1014F0009D8189279E8189278F839E01285F3F4F89
:1015000047E0BE016F5F7F4FC2010E94C907082FED
:101510008111E2C01A8693E09B871D87FE013796F2
:101520001F0109E08A84482D4295407F480D6AE1F9
:10153000C2010E94AC071F92CE010A965C01FE0117
:101540003B966F0171019E012F5F3F4F40E36CE0BE
:10155000C2010E942008082F0F90823009F065C058
:101560006CE1C2010E948E0785FDB6C08F7109F43F
:1015700080E2282F30E0412F110F550B42175307FF
:101580000CF09EC0182FE22FE595E595E595EF5FED
:10159000922F977081E009F480E0E80F81E090E0FD
:1015A0008C0F9D1F8E0F911DFC012150310927705A
:1015B000332781E090E002C0880F991F2A95E2F757
:1015C0009C018081822B80838BCF85E98983FE8576
:1015D000FF2331F081E0F3019081983008F04BCF88
:1015E00080E049CF87E98983F6E0FC87F9CF912F26
:1015F00097709A87812F8595859585958E5F282F81
:101600002295207F290F2A8301E0911101C000E07B
:10161000080F22242394312C2C0E3D1E280E311C41
:10162000F9E0F81BFB871D877DCF811155C010E2C3
:101630009D8590320CF457CF8B81883809F042C0D9
:1016400083E093E02C85E22FF0E03196E60DF71D64
:10165000980FA1E0B0E0AC0FBD1FA80FB11D2C91F9
:1016600021938F5F8913F5CF8B858C87833009F0A9
:101670004DC08A8581114AC09E012D5F3F4F41E0D8
:10168000B101C2010E94C907082F811125C09B81A9
:10169000F101818198133CC09C818281981338C0EC
:1016A000808182FF12C09394F2E09F1609F48DCFDF
:1016B00023E0921609F496CF81E0981609F4CDCE76
:1016C00005E00AC082E094E0BDCFF3018387892D55
:1016D000880F980E93949082802F2E960FB6F894D0
:1016E000DEBF0FBECDBFDF91CF911F910F91FF9055
:1016F000EF90DF90CF90BF90AF909F908F907F90B2
:101700006F905F904F903F902F90089501E0E4CF4D
:1017100007E0E2CF2F923F924F925F926F927F92BB
:101720008F929F92AF92BF92CF92DF92EF92FF92F1
:101730000F931F93CF93DF935C011B016A01F12C80
:10174000E12CD50114968D919C9186010E191F09EB
:101750008017910708F48C01F501D0810E94830461
:101760002B013C0180916903811172C0C02F0132AD
:1017700008F0C0E2F1E0F093690321E0C601801BAC
:10178000910BE816F90608F420E0209368038FEF28
:1017900080936703109266038C0F80936503A1E02A
:1017A000A093440380914403DD0FD82BD0934403CE
:1017B00080914303813009F090C0109243030E944E
:1017C00083042B013C01809144038093BB008091F2
:1017D0006B0390916C03A0916D03B0916E03892B04
:1017E0008A2B8B2BA1F00E94830420916B033091F4
:1017F0006C0340916D0350916E036419750986095D
:101800009709261737074807590708F442C08091FF
:10181000BC0083FDD8CFB5ECB093BC000E9483041C
:101820002B013C0180916903813009F45AC08091F9
:1018300066038C1710F4C0916603A5E4B3E0E3E2FD
:10184000F3E080E08C1751F19D9191938F5FFACF77
:1018500080916B0390916C03A0916D03B0916E0326
:10186000892B8A2B8B2B09F47DCF0E948304209136
:101870006B0330916C0340916D0350916E036419BA
:10188000750986099709261737074807590708F089
:1018900069CF80916A030E942B05C0E01092220359
:1018A000C0932103C017110609F057C041018E0CE7
:1018B0009F1CE401CE01881999098017910798F5BA
:1018C000D50111968D919C91DC01ED91FC910284E2
:1018D000F385E02D09958993EDCFE5EEE093BC000B
:1018E0009DCF80916B0390916C03A0916D03B0919B
:1018F0006E03892B8A2B8B2B09F494CF0E948304CF
:1019000020916B0330916C0340916D0350916E03F5
:101910006419750986099709261737074807590773
:1019200008F080CFB6CFE00EF11EEC14FD0408F4F1
:1019300008CF81E0DF91CF911F910F91FF90EF9041
:10194000DF90CF90BF90AF909F908F907F906F90DF
:101950005F904F903F902F90089580E0EBCFFF92E3
:101960000F931F93CF93DF9300D000D000D01F922E
:10197000CDB7DEB719820091D5021091D602F801D9
:1019800084819581892BD9F0808191E090936F03B8
:1019900080939103109270031092920340E0BE0175
:1019A0006F5F7F4FC8010E943C06882341F047E0EB
:1019B00050E0BE016F5F7F4FC8010E948A0B2981F2
:1019C0002F77822F90E054E0959587955A95E1F70F
:1019D000982F990F990F182F191B110F120F2A8189
:1019E000822F90E064E0959587956A95E1F7982FAE
:1019F000990F990F082F091B000F020F2B81822FBF
:101A000090E074E0959587957A95E1F7982F990F76
:101A1000990FF82EF91AFF0CF20E3D812E81822FBC
:101A200090E0E4E095958795EA95E1F7982F990F76
:101A3000990FA82FA91BAA0FA20F2F81822F90E028
:101A4000F4E095958795FA95E1F7982F990F990FFE
:101A5000891B880F820F682F70E0432F50E0B4E09D
:101A600055954795BA95E1F7942F990F990F242F23
:101A7000291B220F230F30E0E8E6F0E091E09A17EF
:101A800030F44491240F311D9F5F3196F8CFA3307D
:101A900020F0837011F42F5F3F4F4DE651E0649FBB
:101AA000C001659F900D749F900D112401976D5F8B
:101AB0007F4F7695679576956795680F791F260F06
:101AC000371FA8E1B0E00E94CF179B01AC012F0D9A
:101AD000311D411D511DACE3B0E00E94C4179B01B4
:101AE000AC01200F311D411D511D0E94C417AB01D7
:101AF000BC01812F90E0B0E0A0E080589C4BA2494F
:101B0000B74C840F951FA61FB71F809300039093B7
:101B10000103A0930203B093030327960FB6F89432
:101B2000DEBF0FBECDBFDF91CF911F910F91FF9010
:101B30000895FC0101900020E9F73197AF01481B9F
:101B4000590BBC0183E993E00C949F0281E891E07A
:101B50000C94990DCF93DF930E948C03EC010E94AB
:101B6000A60D8C0F9D1FDF91CF9108958F929F92AC
:101B7000AF92BF920F931F93CF93DF93CDB7DEB792
:101B8000A1970FB6F894DEBF0FBECDBF19A24230A9
:101B900008F44AE08E010F5D1F4F842E912CB12C6A
:101BA000A12CA50194010E94DE17E62FB901CA01FC
:101BB000EA30F4F4E05DD801EE938D01232B242B61
:101BC000252B79F790E080E0109719F0CD010E9465
:101BD000990DA1960FB6F894DEBF0FBECDBFDF9171
:101BE000CF911F910F91BF90AF909F908F900895CC
:101BF000E95CE1CFCF92DF92EF92FF92CF93DF9338
:101C00006C01990FEE08FF08F7FE19C06DE283E939
:101C100093E00E943F03EC0166277727CB016C1904
:101C20007D098E099F094AE00E94B60D8C0F9D1F09
:101C3000DF91CF91FF90EF90DF90CF9008954AE031
:101C4000C701B601DF91CF91FF90EF90DF90CF9069
:101C50000C94B60DCF93DF930E94990DEC010E9476
:101C6000A60D8C0F9D1FDF91CF91089585ED809378
:101C7000BC0080916B0390916C03A0916D03B091B7
:101C80006E030796A11DB11D23E0B695A795979504
:101C900087952A95D1F72091BC0024FD03C01092AE
:101CA0006903089540916B0350916C0360916D033B
:101CB00070916E03452B462B472B69F30097A105C6
:101CC000B10541F02AE22A95F1F700C00197A10978
:101CD000B109E1CF80916A030C942B051F920F92FA
:101CE0000FB60F9211242F933F934F935F936F93EF
:101CF0007F938F939F93AF93BF93EF93FF9383E96A
:101D000093E00E941D03FF91EF91BF91AF919F91CE
:101D10008F917F916F915F914F913F912F910F9094
:101D20000FBE0F901F9018951F920F920FB60F9233
:101D300011242F938F939F93EF93FF93E091A3032D
:101D4000F091A4038081E091A903F091AA0382FDA0
:101D50001BC090818091AC038F5F8F732091AD0386
:101D6000821741F0E091AC03F0E0ED56FC4F958F07
:101D70008093AC03FF91EF919F918F912F910F90E2
:101D80000FBE0F901F9018958081F4CF1F920F9275
:101D90000FB60F9211242F933F938F939F93AF937E
:101DA000BF938091C9029091CA02A091CB02B091D9
:101DB000CC023091C80223E0230F2D3758F501964D
:101DC000A11DB11D2093C8028093C9029093CA023D
:101DD000A093CB02B093CC028091CD029091CE0221
:101DE000A091CF02B091D0020196A11DB11D8093A8
:101DF000CD029093CE02A093CF02B093D002BF91B8
:101E0000AF919F918F913F912F910F900FBE0F90A7
:101E10001F90189526E8230F0296A11DB11DD2CF61
:101E20001F920F920FB60F9211242F933F934F934F
:101E30005F936F937F938F939F93AF93BF93EF9332
:101E4000FF938091B900887F803609F44AC0F0F58D
:101E5000883209F4A7C018F5803109F49BC0B8F4A2
:101E6000882309F4F9C0883009F494C0FF91EF91F8
:101E7000BF91AF919F918F917F916F915F914F91A2
:101E80003F912F910F900FBE0F901F9018958831A2
:101E900009F488C0803251F78093670314C08034FE
:101EA00009F49DC040F48033B9F38833F9F6809388
:101EB000670385ECB0C0803509F485C0883509F426
:101EC00096C0883499F60E94360ED0CF883909F42E
:101ED0008CC038F5883729F050F4883611F08037F7
:101EE00029F683E0809369031092C70257C08838AF
:101EF00009F47BC0803919F0803809F0B7CF8091A0
:101F0000C702803208F071C0E091C70281E08E0FF5
:101F10008093C7028091BB00F0E0E955FD4F8083BC
:101F20003DC0803B39F0E0F4803A09F479C0883A4A
:101F300009F09CCF84E0809369031092A60210926E
:101F4000A502E091D302F091D40209958091A502F7
:101F500081110FC081E08093A5021092850209C013
:101F6000803C09F4A6CF883C09F4A3CF883B09F054
:101F70007DCFE091A60281E08E0F8093A602F0E073
:101F8000EB57FD4F80818093BB009091A60280911A
:101F9000A50229C0809144038093BB0085EC809307
:101FA000BC0064CF9091660380916503981758F543
:101FB000E091660381E08E0F80936603F0E0EB5BB7
:101FC000FC4F8081E9CFE091660381E08E0F809322
:101FD00066038091BB00F0E0EB5BFC4F8083909147
:101FE0006603809165039817C8F285E8D8CFE09121
:101FF000660381E08E0F809366038091BB00F0E062
:10200000EB5BFC4F80838091680381115CCF81E0A2
:102010008093430384EA8093BC001092690326CF27
:1020200085EC8093BC00109269038091C7028032D6
:1020300030F4E091C702F0E0E955FD4F1082609165
:10204000C70270E0E091D102F091D20287EA92E0FB
:1020500009951092C7020ACF1092670334CFE3E9C3
:10206000F3E01382128288EE93E0A0E0B0E0848374
:102070009583A683B78327E531E03183208325EC60
:1020800030E03587248724EC30E03787268720EC42
:1020900030E0318B208B21EC30E0338B228B22EC33
:1020A00030E0358B248B26EC30E0378B268B118E7D
:1020B000128E138E148EE0E3F4E013821282848376
:1020C0009583A683B78389E691E091838083ECE3CF
:1020D000F4E08BE791E0918380838AE0868789E052
:1020E00087870895CF93DF93CDB7DEB76B970FB691
:1020F000F894DEBF0FBECDBF789484B5826084BDF6
:1021000084B5816084BD85B5826085BD85B58160FB
:1021100085BD80916E00816080936E001092810079
:102120008091810082608093810080918100816034
:1021300080938100809180008160809380008091F5
:10214000B10084608093B1008091B0008160809381
:10215000B00080917A00846080937A0080917A0048
:10216000826080937A0080917A00816080937A0007
:1021700080917A00806880937A001092C100E0918B
:10218000A303F091A40382E08083E0919F03F09188
:10219000A0031082E091A103F091A20380E180836B
:1021A0001092AB03E091A703F091A80386E080832F
:1021B000E091A503F091A603808180618083E09186
:1021C000A503F091A603808188608083E091A50338
:1021D000F091A603808180688083E091A503F0914F
:1021E000A60380818F7D808361E086E00E944704A2
:1021F00060E086E00E9419048091D5029091D60299
:10220000009711F00E94A21886E090E00E94061844
:102210008C0188E6D8018C9380E394E012969C931D
:102220008E93119713961C92139780E290E0159667
:102230009C938E9314971093D6020093D50210921C
:1022400022031092210310927003109292030E94B5
:102250000D058DE992E09093D4028093D3028EE92C
:1022600092E09093D2028093D10281E0F8018383BF
:10227000C8010E94DF06811110C084E891E00E942D
:102280002A0E83E993E00E94A703109200031092A4
:1022900001031092020310920303188E8091D5025D
:1022A0009091D602DC0114962D913C911597232B29
:1022B00081F02C9131E030936F03209391031092C1
:1022C00070031092920341E0BE01685E7F4F0E944E
:1022D0003C0641E050E0BE016F5F7F4F8091D50228
:1022E0009091D6020E948A0B898190E0880F892FF5
:1022F000881F990B892B21F086E991E00E942A0E14
:102300000E94AF0C8FEF8093160310921703109268
:1023100018031092190310921A0310921B031092C3
:102320001C0380931D0380931E0380931F038093DF
:1023300020031FB7F8948091D702811127C0E9EBE1
:10234000F1E08491E5EAF1E09491E82FF0E0EE0FFE
:10235000FF1FEF56FE4FA591B491EC91E92321F4B4
:1023600061E08AE00E94190461E08AE00E9447046B
:102370008CB580618CBD8CB580648CBD61E08DE0D6
:102380000E94470461E08BE00E9447048091D702DD
:102390008F5F8093D7021FBF61E080914A040E9443
:1023A000470461E080914A040E94190480914B0423
:1023B0008F3F09F4EBC060E00E94470480914B041A
:1023C0000E94F003892B09F0E1C061E080914B0489
:1023D0000E94470460E080914B040E94190483E04E
:1023E00090E00197F1F761E080914B040E9419049D
:1023F00062E370E080E090E00E94A80440E064E2C4
:102400008CE394E00E94AC0740E066E28CE394E049
:102410000E94AC0746E268E48CE394E00E94AC07BB
:1024200040E864E58CE394E00E94AC0749EA66E585
:102430008CE394E00E94AC0743E068E58CE394E011
:102440000E94AC0748EE6AE58CE394E00E94AC077A
:1024500040E46AE28CE394E00E94AC074DE362E260
:102460008CE394E00E94AC0768E28CE394E00E9465
:102470008E07982F9370933039F0482F436068E2AD
:102480008CE394E00E94AC078FEF8093100380935D
:10249000110380931203809313038093140380939A
:1024A000150362E088E00E94470462E085E00E9434
:1024B000470462E084E00E944704109207031092F0
:1024C000060361E087E00E94470460E087E00E9425
:1024D000190485E08093FD0281E08093FE0282E092
:1024E0008093FF0265E088E090E00E94B61760915B
:1024F000FE0289E090E00E94B6176091FF028AE038
:1025000090E00E94B6170E94DA046B017C01809172
:10251000060390910703892BE9F488E00E94F003F9
:102520000197C1F461E087E00E94190488E00E94ED
:10253000F003019759F40E94DA046C197D098E09A1
:102540009F09603D77408105910560F360E087E079
:102550000E94190468EB7BE080E090E00E94A804F0
:102560008EEB91E00E942A0E8091000190E0EBEE4C
:10257000F2E0FB8FEA8FA9EDB2E09F012B5E3240C3
:1025800028173907D4F421912D93F7CF4FE062E05B
:102590008CE394E00E94AC0713E062E370E080E01B
:1025A00090E00E94A80462E08CE394E00E948E0711
:1025B00084FF24CF115089F721CF8CE394E00E944F
:1025C000A509811126C08091D8028F5F8093D8021F
:1025D000863080F08091000190E0EBEEF2E02FEF8A
:1025E000AF014B5E52404817590714F42193F8CFBE
:1025F0001092D8028091EB028C3009F458C208F096
:102600004FC2882309F456C2883009F450C28FEFB4
:102610004EC28CE394E00E941807182F882351F3D0
:102620001092D80282E294E00E948C030E94A60DD0
:1026300086E194E00E948C03E0914904EF77E13455
:1026400008F04FC0F0E0E95FFE4F00818FE392E0B9
:102650000530A9F078F58CE692E0023081F038F48C
:1026600084E992E0013059F083EC91E008C085E5FF
:1026700092E0033021F08AE492E00430A9F70E944E
:10268000AA0D035084EE93E0033088F486EC93E0C7
:102690000E94AA0D87E00E943F09082F882319F1A4
:1026A0008AEA93E00E948C03802F0E9428070E94F0
:1026B000AA0DA0CF82E092E0083009F348F48DE142
:1026C00092E00630E1F281E192E00730C1F2CCCF36
:1026D00083EF91E0093099F280ED91E00F3F79F2BC
:1026E000C3CF00E0C1CF82E993E00E94AA0D3E0172
:1026F000F3E16F0E711C53E1252E312C412C512C2E
:10270000912C298E8CE393E0112369F088E493E007
:102710000E948C034AE064E070E080E090E00E9458
:10272000B60D84E493E00E948C0389E393E00E9459
:102730008C034AE0C201B1010E94B60D86E393E02A
:102740000E948C03111145C002E10F8B20E3298305
:10275000398D3A839E012D5F3F4F42E0BE016F5F8E
:102760007F4F8CE394E00E94C907082F811118C0A5
:1027700081E08F93812CB12CA12CDE0157966D0145
:10278000FE0131967F0104E09F0140E36CE08CE3A1
:1027900094E00E942008082F0F90882309F487C036
:1027A00083E093E00E948C03802F0E9428070E9400
:1027B000AA0DE1E06E1A7108F1E02F1A3108410804
:1027C00051080FE0201631044104510409F099CF5B
:1027D00010C080E10E943F09082F882309F4B4CF7C
:1027E0008AE193E00E948C03802F0E9428070E94B8
:1027F000AA0D0E94A60D89E793E00E948C034AE08F
:1028000060E170E080E090E00E94B60D84E793E024
:102810000E94AA0D80910001823108F427C180E353
:102820008093EB0280E18093EC022DEE32E042E0F7
:102830006BEE72E08CE394E00E94C907182F8111BF
:102840001AC021E02F93812CB12CA12C40E0C42E82
:1028500041E0D42E5BEEE52E52E0F52E04E0970128
:1028600040E36CE08CE394E00E942008182F0F9066
:10287000882309F4FDC08DE593E00E948C03812F2D
:102880000E9428070E94AA0D8091000190E0E9EDC6
:10289000F2E09F01295D3240281739070CF0E8C0AB
:1028A0002191AA8DBB8D2D93BB8FAA8FF2CF9E0154
:1028B0002F5F3F4F790100E0D7018D917D0180317D
:1028C00008F0D1C080E093E00E948C03F7013197BB
:1028D000608170E090E080E040E10E94B60D802FC2
:1028E0008370833021F48CEF92E00E948C030F5FA1
:1028F000003111F7112309F469C0F8848F2D90E09D
:10290000FC0124E0F595E7952A95E1F72985B22F9A
:10291000BF70DB2E30E0D90144E0B595A7954A950C
:10292000E1F76F814D2D50E0762F70957F707E1707
:102930001F0699F470E004E0759567950A95E1F734
:102940000FE060276417750741F46F2D60956F7075
:1029500011E06A171B0609F410E0BF01660F771F2C
:10296000660F771F64707A01EE0CFF1C7E2D72706B
:10297000672BA1706A2B6B8B25FB662760F90D2DE9
:102980000270062BBF01660F771F6470062B0C8B3D
:1029900026FB662760F9E470E62BBA01759567950A
:1029A0006270E62BED8BB5E095958795BA95E1F7CA
:1029B0008470220F232F221F330B822B55954795AE
:1029C000559547954270842B8E8B912E88EF92E01F
:1029D0000E948C03D30113961C9112FB882780F967
:1029E00090E00E94FA0D86EF92E00E948C0311FBAA
:1029F000882780F990E00E94FA0D84EF92E00E940F
:102A00008C03812F817090E00E94FA0D80EF92E09C
:102A10000E948C03992021F08AEC92E00E948C03A2
:102A2000B98DB331E1F0113011F01630C1F4C98025
:102A3000DA80EB80FC8080EC92E00E948C0340E125
:102A4000C701B6010E94B60D88EB92E00E948C038C
:102A50006D8570E090E080E040E10E94B60D0E943C
:102A6000A60D10E0A6CE8EEF92E02ECF14E003CF9D
:102A70008EE493E00E948C034AE060E170E080E025
:102A800090E00E94B60D8CE493E00E94AA0D0E9493
:102A9000A60D48E060E18CE394E00E949109AACD84
:102AA000893229F08E3219F0883109F0B0CD809347
:102AB000160302C0109216038091EE028093170352
:102AC0008091F402982F9F779093180386958695AE
:102AD000869580719091F50292959F70892B8093D5
:102AE00019038091F2022091F302922F9695969508
:102AF00096959071382F3F70932B90931A0390E026
:102B000034E0959587953A95E1F780931B032F77ED
:102B100020931C038091F60280931D038091F7029D
:102B200080931E038091F80280931F038091FA0224
:102B3000809320030E94AF0C809116038F3F09F011
:102B400082C08BEC91E00E942A0E84E00E94F00388
:102B5000892B09F0D4C010920503809104038230C0
:102B600019F08F5F80930403809104038230C0F1D9
:102B700081E090E0909307038093060364EF71E097
:102B800080E090E00E94A8040E94DA042B013C013E
:102B900085E00E94F003019719F561E087E00E944B
:102BA00019040E94DA0464197509860997094AE034
:102BB0000E94B60D0E94A60D85E00E94F0030197C9
:102BC00059F40E94DA046419750986099709603D71
:102BD00077408105910508F360E087E00E941904C1
:102BE0008BE792E00E94990D4090060350900703F6
:102BF000052C000C660877084AE0C301B20177FE95
:102C00000DC06DE283E993E00E943F0366277727BA
:102C1000CB0164197509860997094AE00E94B60D2F
:102C2000E0910E03F0910F03E730F10508F095C035
:102C3000E45EF94E0C940018A9169216BA162D17D8
:102C400042172D172D170E94440200910003109186
:102C50000103209102033091030306171707280789
:102C6000390708F049C08AED91E00E942A0E809150
:102C70001603982F977F11F08C3019F484EE91E0B1
:102C800062CF8E3211F0893219F482E092E05BCF8C
:102C9000883191F585E192E00E942A0E9091FD0223
:102CA00080911D0398130CC09091FE0280911E0329
:102CB000981306C09091FF0280911F03981719F096
:102CC0008CE192E040CF8BE392E00E942A0E0E94BA
:102CD00044020091000310910103209102033091FE
:102CE0000303061717072807390718F084E592E051
:102CF0002ACF83E692E027CF8DE692E024CF109290
:102D0000040380910503823019F08F5F80930503DF
:102D100080910503823008F463CF1092070310926C
:102D200006035ECF0E94DA0400910A0310910B03A0
:102D300020910C0330910D03601B710B820B930BE0
:102D4000643671058105910540F010920F031092D1
:102D50000E0360E086E00E94190480E090E0892B79
:102D600009F4FECB0E940903882309F4F9CB0E94E1
:102D70000000F6CB80910903811125C00E94DA047E
:102D800000910A0310910B0320910C0330910D0365
:102D9000601B710B820B930B6436710581059105E5
:102DA000E0F260E086E00E9419040E94DA04609379
:102DB0000A0370930B0380930C0390930D03E1E0DF
:102DC000E0930903CACF813031F50E94DA04009103
:102DD0000A0310910B0320910C0330910D03601B2B
:102DE000710B820B930B623371058105910508F419
:102DF000B4CF61E086E00E9419040E94DA04609377
:102E00000A0370930B0380930C0390930D0382E0ED
:102E100080930903A2CF823009F09FCF0E94DA0489
:102E200000910A0310910B0320910C0330910D03C4
:102E3000601B710B820B930B643671058105910544
:102E400008F48BCF60E086E00E94190410920F0313
:102E500010920E031092090380CF0E94DA040091B1
:102E60000A0310910B0320910C0330910D03601B9A
:102E7000710B820B930B643F71408105910508F043
:102E800064CF6BCF80910803811126C00E94DA04C1
:102E900000910A0310910B0320910C0330910D0354
:102EA000601B710B820B930B6436710581059105D4
:102EB00008F453CF60E086E00E9419040E94DA040F
:102EC00060930A0370930B0380930C0390930D039C
:102ED00001E00093080341CF813031F50E94DA040C
:102EE00000910A0310910B0320910C0330910D0304
:102EF000601B710B820B930B623371058105910589
:102F000008F42BCF61E086E00E9419040E94DA04E5
:102F100060930A0370930B0380930C0390930D034B
:102F200082E08093080319CF823009F016CF0E9407
:102F3000DA0400910A0310910B0320910C033091E5
:102F40000D03601B710B820B930B643671058105B9
:102F5000910508F402CF60E086E00E941904109207
:102F60000F0310920E0310920803F7CE262FF99943
:102F7000FECF1FBA92BD81BD20BD0FB6F894FA9A5C
:102F8000F99A0FBE019608950E94CF17A59F900D44
:102F9000B49F900DA49F800D911D11240895A29FB0
:102FA000B001B39FC001A39F700D811D1124911D1D
:102FB000B29F700D811D1124911D0895A1E21A2E5A
:102FC000AA1BBB1BFD010DC0AA1FBB1FEE1FFF1FCD
:102FD000A217B307E407F50720F0A21BB30BE40B1D
:102FE000F50B661F771F881F991F1A9469F7609564
:102FF0007095809590959B01AC01BD01CF0108951E
:10300000EE0FFF1F0590F491E02D09940F931F938D
:10301000CF93DF938230910510F482E090E0E0914D
:103020004E04F0914F0430E020E0B0E0A0E0309793
:1030300099F42115310509F44AC0281B390B2430B5
:103040003105D8F58A819B816115710589F1FB01F4
:1030500093838283FE0111C04081518102811381DB
:1030600048175907E0F04817590799F4109761F08D
:1030700012960C93129713961C933296CF01DF9100
:10308000CF911F910F91089500934E0410934F0418
:10309000F4CF2115310551F04217530738F0A9013B
:1030A000DB019A01BD01DF01F801C1CFEF01F9CFCA
:1030B00090934F0480934E04CDCFFE01E20FF31F97
:1030C000819391932250310939832883D7CF20915E
:1030D0004C0430914D04232B41F420910301309195
:1030E000040130934D0420934C0420910101309150
:1030F00002012115310541F42DB73EB7409105017C
:1031000050910601241B350BE0914C04F0914D04C5
:10311000E217F307A0F42E1B3F0B2817390778F0AE
:10312000AC014E5F5F4F2417350748F04E0F5F1F0D
:1031300050934D0440934C04819391939FCFF0E0C2
:10314000E0E09CCFCF93DF930097E9F0FC0132974A
:1031500013821282A0914E04B0914F04ED0130E031
:1031600020E01097A1F420813181820F931F2091DC
:103170004C0430914D042817390709F061C0F093D1
:103180004D04E0934C04DF91CF910895EA01CE17EE
:10319000DF07E8F54A815B819E0141155105B1F7D2
:1031A000E901FB83EA8349915991C40FD51FEC17BC
:1031B000FD0761F4808191810296840F951FE901DA
:1031C00099838883828193819B838A83F0E0E0E006
:1031D00012968D919C9113970097B9F52D913C9182
:1031E0001197CD010296820F931F20914C043091CC
:1031F0004D042817390739F6309751F510924F04CE
:1032000010924E04B0934D04A0934C04BCCFD383D2
:10321000C28340815181840F951FC817D90761F47B
:103220004E5F5F4F88819981480F591F51834083BA
:103230008A819B81938382832115310509F0B0CF68
:10324000F0934F04E0934E049ECFFD01DC01C0CF0C
:0A32500013821282D7CFF894FFCF4B
:10325A001200005004800006090000FF000000046C
:10326A00030000000000000707000000000000053E
:10327A000000000000000001000000000000000043
:10328A000000000000000000000000000000000034
:10329A0000000000000000021F1C1F1E1F1E1F1F2F
:1032AA001E1F1E000000003F039F02CC02A703FD61
:1032BA0002DB02EF0200000000AD068006DC0656C3
:1032CA000679066606570600000000080AA50918CE
:1032DA00070D0A00436F756C646E27742066696E69
:1032EA00642052544300525443206973204E4F5471
:1032FA002072756E6E696E672C206C657427732058
:10330A00736574207468652074696D65210052655F
:10331A006164436172644865726500494E56414C66
:10332A0049445F53544154453100646174652064D3
:10333A006F6E6500415554484F52495345442D52CA
:10334A004F4F4D5F54494D4553594E4320646F6E5C
:10335A0065004D4153544552206F7220454D5247E6
:10336A00414E435900434C49454E5400526F6F6DCC
:10337A002C20466C6F6F722C20616E642042756936
:10338A006C64696E6720646F6E6500554E49545FC0
:10339A00497353616D654C6F636174696F6E206424
:1033AA006F6E6500494E56414C49445F535441542F
:1033BA0045320054696D6520646F6E6500494E564A
:1033CA00414C49445F535441544500446F6F722045
:0433DA003D20000092
:00000001FF
