:100000000C9417020C943F020C943F020C943F0294
:100010000C943F020C943F020C943F020C943F025C
:100020000C943F020C943F020C943F020C943F024C
:100030000C943F020C943F020C943F020C943F023C
:100040000C94830D0C943F020C94510D0C942B0DC9
:100050000C943F020C943F020C943F020C943F021C
:100060000C94CD0D0C943F02556E6B6E6F776E2025
:100070006572726F720041204D49464152452050D1
:1000800049434320726573706F6E646564207769BD
:100090007468204E414B2E00546865204352435FE4
:1000A0004120646F6573206E6F74206D61746368A6
:1000B0002E00496E76616C696420617267756D65AA
:1000C0006E742E00496E7465726E616C206572727A
:1000D0006F7220696E2074686520636F64652E20DE
:1000E00053686F756C64206E6F7420686170706502
:1000F0006E2E004120627566666572206973206EFF
:100100006F742062696720656E6F7567682E005492
:10011000696D656F757420696E20636F6D6D756EA6
:1001200069636174696F6E2E00436F6C6C697369EB
:100130006F6E2064657465637465642E0045727229
:100140006F7220696E20636F6D6D756E6963617487
:10015000696F6E2E00537563636573732E00000024
:100160000000250028002B000000000023002600CE
:10017000290000000008000201000003040700003D
:1001800000000000000000000000240027002A00FA
:10019000010204081020408001020408102001021E
:1001A00004081020040404040404040402020202EB
:1001B0000202030303030303556E6B6E6F776E2019
:1001C000747970650053414B20696E646963617492
:1001D000657320554944206973206E6F7420636FE6
:1001E0006D706C6574652E004D4946415245205432
:1001F0004E5033585858004D4946415245204445C9
:100200005346697265004D494641524520506C7510
:1002100073004D494641524520556C7472616C69BA
:10022000676874206F7220556C7472616C696768BE
:10023000742043004D494641524520344B42004D05
:10024000494641524520314B42004D4946415245B5
:10025000204D696E692C20333230206279746573C9
:10026000005049434320636F6D706C69616E742068
:10027000776974682049534F2F49454320313830FE
:10028000393220284E464329005049434320636FAA
:100290006D706C69616E7420776974682049534F82
:1002A0002F4945432031343434332D340020416408
:1002B000723D3078002056616C75653D30780020C5
:1002C000496E76657274656420616363657373203B
:1002D0006269747320646964206E6F74206D617448
:1002E0006368212000205D200020002000205B208A
:1002F00000200020002030004D49464152455F5209
:100300006561642829206661696C65643A20005043
:1003100043445F41757468656E74696361746528F0
:1003200029206661696C65643A2000202000202045
:10033000002020202020202000202020002020201D
:10034000003A004461746120696E20626C6F636BD7
:1003500020004D49464152455F526561642829207D
:100360006661696C65643A2000202E2E2E0052656D
:100370006164696E6720646174612066726F6D20CC
:10038000626C6F636B200043757272656E742064DB
:1003900061746120696E20736563746F723A0050F6
:1003A00043445F41757468656E7469636174652860
:1003B00029206661696C65643A200041757468653E
:1003C0006E7469636174696E67207573696E672006
:1003D0006B657920412E2E2E00546869732073615D
:1003E0006D706C65206F6E6C7920776F726B732007
:1003F00077697468204D494641524520436C6173CA
:100400007369632063617264732E00504943432013
:10041000747970653A200043617264205549443A0A
:10042000001F1C1F1E1F1E1F1F1E1F1EEC0E11244F
:100430001FBECFEFD8E0DEBFCDBF24E0A2E5B2E023
:1004400001C01D92A232B207E1F712E0A0E0B1E0D4
:10045000E0E4F2E302C005900D92A235B107D9F7AE
:1004600012E0C7E1D2E004C02197FE010E94F31719
:10047000C631D107C9F70E942F0F0C941E190C9496
:1004800000008CBD9DBD089508950895AF92BF9260
:10049000CF92DF92EF92FF920F931F93CF93DF9350
:1004A0006C017B018B01040F151FEB015E01AE187F
:1004B000BF08C017D10759F06991D601ED91FC91A1
:1004C0000190F081E02DC6010995892B79F7C501CE
:1004D000DF91CF911F910F91FF90EF90DF90CF9020
:1004E000BF90AF900895FC01538D448D252F30E0CF
:1004F000842F90E0821B930B541710F0CF96089531
:1005000001970895FC01918D828D981761F0A28D5D
:10051000AE0FBF2FB11D5D968C91928D9F5F9F7323
:10052000928F90E008958FEF9FEF0895FC01918DD9
:10053000828D981731F0828DE80FF11D858D90E046
:1005400008958FEF9FEF0895FC01918D228D892FE3
:1005500090E0805C9F4F821B91098F7399270895CB
:1005600085E693E00E94A40221E0892B09F420E0B3
:10057000822F089580E090E0892B29F00E94B0023C
:1005800081110C9400000895FC01A48DA80FB92FCF
:10059000B11DA35ABF4F2C91848D90E001968F73AB
:1005A0009927848FA689B7892C93A089B1898C91CA
:1005B000837080648C93938D848D981306C0028819
:1005C000F389E02D80818F7D80830895EF92FF92E3
:1005D0000F931F93CF93DF93EC0181E0888F9B8D66
:1005E0008C8D98131AC0E889F989808185FF15C020
:1005F0009FB7F894EE89FF896083E889F989808143
:100600008370806480839FBF81E090E0DF91CF9111
:100610001F910F91FF90EF900895F62E0B8D10E033
:100620000F5F1F4F0F731127E02E8C8D8E110CC0A2
:100630000FB607FCFACFE889F989808185FFF5CFED
:10064000CE010E94C402F1CFEB8DEC0FFD2FF11D06
:10065000E35AFF4FF0829FB7F8940B8FEA89FB892A
:1006600080818062CFCF0F931F93CF93DF938C0154
:10067000D0E0C0E0F801EC0FFD1F6491662341F06B
:1006800085E693E00E94E602892B11F02196F2CFD5
:10069000CE01DF91CF911F910F910895CF93DF93FA
:1006A000EC01888D8823B9F0AA89BB89E889F9898A
:1006B0008C9185FD03C0808186FD0DC00FB607FCBF
:1006C000F7CF8C9185FFF2CF808185FFEDCFCE01F2
:1006D0000E94C402E9CFDF91CF910895833081F069
:1006E00028F4813099F08230A9F008958730A9F07C
:1006F0008830C9F08430B1F4809180008F7D03C0D0
:10070000809180008F7780938000089584B58F77E3
:1007100084BD089584B58F7DFBCF8091B0008F7725
:100720008093B00008958091B0008F7DF9CFCF9372
:10073000DF93282F30E0F901EE58FE4F8491F90144
:10074000E057FE4FD491F901EC55FE4FC491CC23F4
:10075000A1F081110E946E03EC2FF0E0EE0FFF1F5D
:10076000E859FE4FA591B491EC91ED2381E090E022
:1007700009F480E0DF91CF91089580E090E0FACF16
:100780001F93CF93DF93282F30E0F901EE58FE4FEF
:100790008491F901E057FE4FD491F901EC55FE4FD9
:1007A000C491CC23A9F0162F81110E946E03EC2F67
:1007B000F0E0EE0FFF1FE25AFE4FA591B4918FB704
:1007C000F894EC91111108C0D095DE23DC938FBF13
:1007D000DF91CF911F910895DE2BF8CFCF93DF9358
:1007E00090E0FC01E057FE4F24918C559E4FFC0198
:1007F00084918823C9F090E0880F991FFC01EA5783
:10080000FE4FA591B491FC01E25AFE4FC591D491DF
:1008100061110DC09FB7F8948C91209582238C9321
:100820008881282328839FBFDF91CF91089562306C
:1008300051F49FB7F8943C91822F809583238C9339
:10084000E8812E2BEFCF8FB7F894EC912E2B2C93C1
:100850008FBFEACF3FB7F89480919B0290919C02A2
:10086000A0919D02B0919E0226B5A89B05C02F3F86
:1008700019F00196A11DB11D3FBFBA2FA92F982FC6
:100880008827BC01CD01620F711D811D911D42E0C1
:10089000660F771F881F991F4A95D1F708958F9289
:1008A0009F92AF92BF92CF92DF92EF92FF924B0155
:1008B0005C010E942A046B017C010E942A046C19CD
:1008C0007D098E099F09683E734081059105A8F353
:1008D00021E0821A9108A108B10888EEC80E83E0D1
:1008E000D81EE11CF11C81149104A104B10429F764
:1008F000FF90EF90DF90CF90BF90AF909F908F9040
:1009000008952FB7F89460919702709198028091A2
:10091000990290919A022FBF089520917302260F99
:100920003327331F21323105ECF420913B03FC01C6
:1009300090E080E0243069F082E00895A091730295
:100940002191AC014D5A5D4FA40FB52FB11D2C93D1
:100950000196861798F380917302680F6093730273
:1009600080E0089581E0089510923B0381E0809338
:100970003A031092150361E082E10E94C00361E036
:1009800083E10E94C003E9EBF0E080818E7F8083E9
:1009900080818D7F808388E48093B80085E4809394
:1009A000BC000895CF93DF9391E090935202882387
:1009B000B9F0C091B800D091BA008091BC008A7B98
:1009C0008093BC0060E082E10E94C00360E083E1AC
:1009D0000E94C0030E94B404D093BA00C093B80030
:1009E000DF91CF9108958F929F92AF92BF92CF9255
:1009F000DF92EF92FF920F931F93CF93DF93D091EB
:100A00006403D13208F0D7C0182FC09163030E944D
:100A10002A046B017C0180913B0381116BC082E051
:100A200080933B0310933A038FEF80933903109226
:100A30003803D0933703A3E4B3E0E7E1F3E080E0C9
:100A4000D81391C01092160380911603CC0FC82BB7
:100A5000C093160380911503813009F088C010926D
:100A600015030E942A046B017C0180911603809378
:100A7000BB0080913D0390913E03A0913F03B09154
:100A80004003892B8A2B8B2BA1F00E942A04009112
:100A90003D0310913E0320913F03309140036C19B8
:100AA0007D098E099F09061717072807390708F4DB
:100AB00042C08091BC0083FDD8CF85EC8093BC0000
:100AC0000E942A046B017C0180913B03823009F46F
:100AD00050C0809139038F3F09F46FC08091390372
:100AE000803209F46CC080913903803309F469C005
:100AF00084E026C080913D0390913E03A0913F0386
:100B0000B0914003892B8A2B8B2B09F484CF0E9450
:100B10002A0480903D0390903E03A0903F03B09044
:100B200040036C197D098E099F0986169706A80651
:100B3000B90608F070CF80913C030E94D20485E092
:100B4000109242031092640310924103DF91CF91FF
:100B50001F910F91FF90EF90DF90CF90BF90AF90DB
:100B60009F908F9008959D9191938F5F69CF85EEAF
:100B7000A5CF80913D0390913E03A0913F03B0919A
:100B80004003892B8A2B8B2B09F49ECF0E942A04C9
:100B900000913D0310913E0320913F0330914003AB
:100BA0006C197D098E099F09061717072807390751
:100BB00008F08ACFC0CF81E0C3CF80E0C1CF82E010
:100BC000BFCF83E0BDCFCF93C42FDC0111968D91B1
:100BD0009C91DC01ED91FC910280F381E02D41E0DC
:100BE00050E00995019729F48C2F0E94F30491E0BD
:100BF000811190E0892FCF9108950895E091F4023A
:100C00008091F302E81730F4F0E0EB50FD4F808163
:100C100090E008958FEF9FEF08959091F4028091F6
:100C2000F3022FEF3FEF981748F4E92FF0E0EB5075
:100C3000FD4F208130E09F5F9093F402C901089539
:100C40008091F3029091F402891B990B0895CF9241
:100C5000DF92EF92FF920F931F93CF93DF937C016C
:100C6000CB018A0120914103222389F0EB016B0122
:100C7000C40ED51ECC15DD0569F06991D701ED9143
:100C8000FC910190F081E02DC7010995F3CF642F0D
:100C90000E948D04C801DF91CF911F910F91FF90A9
:100CA000EF90DF90CF900895CF93DF931F92CDB751
:100CB000DEB76983209141032223F9F02091640378
:100CC000203258F021E030E0FC013383228390E0B1
:100CD00080E00F90DF91CF91089580914203E82F3B
:100CE000F0E0ED5BFC4F998190838F5F809342032E
:100CF0008093640381E090E0ECCF61E0CE01019647
:100D00000E948D04F7CF90E080E00895CF93DF93A9
:100D1000EC018B818823A1F0888191E090934103BD
:100D200080936303109242031092640381E00E9457
:100D3000F30491E0811190E0892FDF91CF91089524
:100D40001092F4021092F302109242031092640384
:100D50000E94B40484E492E09093A2028093A102E2
:100D600085E492E09093A00280939F0281E08B83C0
:100D7000CE010E948606982F8111CECFDDCFBC0117
:100D80006E5F7F4FDC01ED91FC910190F081E02DD1
:100D900040E0099591E0811190E0892F0895843019
:100DA000F1F050F4813091F030F1823091F08330E5
:100DB00099F088E690E008958630B9F098F0873091
:100DC000B9F08F3FB1F786E790E008958DE391E0A9
:100DD000089589E291E008958FE091E0089583EF0E
:100DE00090E0089584EC90E0089582EB90E00895FF
:100DF00088E990E0089585E591E0089508958EBD15
:100E000000000DB407FEFDCF8EB50895DF92EF927E
:100E1000FF920F931F93CF93DF937C01062FD42E65
:100E2000152F80E590E00E94410260E0F701868581
:100E30000E94C00382E10E94FF06CD2DD12F0C0F2E
:100E40001D2F111DC017D10721F089910E94FF06A7
:100E5000F9CF61E0F7018685DF91CF911F910F9166
:100E6000FF90EF90DF900C94C0031F93CF93DF931C
:100E7000EC01162F80E590E00E94410260E08E8533
:100E80000E94C003812F80680E94FF0680E00E94BC
:100E9000FF06182F61E08E850E94C003812FDF912D
:100EA000CF911F9108950F931F93CF93DF93EC0180
:100EB000062F142F80E590E00E94410260E08E85AD
:100EC0000E94C003802F0E94FF06812F0E94FF0610
:100ED00061E08E85DF91CF911F910F910C94C0033B
:100EE000CF92DF92EF92FF920F931F93CF93DF93F6
:100EF000EC016B01F42E890140E062E00E9453078F
:100F000044E06AE0CE010E94530740E864E1CE016C
:100F10000E945307A6016F2DCE010E94060743E0F1
:100F200062E0CE010E9453070E9481046B017C01A4
:100F300029E5C20ED11CE11CF11C6AE0CE010E9421
:100F4000350782FF1BC040E062E0CE010E945307DC
:100F500064E4CE010E943507F801808362E4CE018B
:100F60000E943507F801818380E0DF91CF911F91C6
:100F70000F91FF90EF90DF90CF9008950E94810431
:100F80006C157D058E059F05C0F283E0EECF2F9294
:100F90003F924F925F926F927F928F929F92AF9209
:100FA000BF92CF92DF92EF92FF920F931F93CF9356
:100FB000DF9300D0CDB7DEB73C01162F942E290168
:100FC00080E0A114B10411F0F5018081382C329435
:100FD00090EF3922380E40E062E0C3010E945307CF
:100FE0004FE768E0C3010E94530740E864E1C30192
:100FF0000E945307A201602FC3010E940607432DE0
:101000006AE1C3010E945307412F62E0C3010E94BD
:1010100053071C3051F46AE1C3010E943507482F81
:1010200040686AE1C3010E9453070E9481041B01CA
:101030002C01F4E22F0E311C411C511C68E0C3014D
:101040000E943507982F992109F0B6C080FF16C07D
:1010500083E00F900F90DF91CF911F910F91FF9040
:10106000EF90DF90CF90BF90AF909F908F907F9048
:101070006F905F904F903F902F9008950E94810451
:101080006215730584059505C8F2E2CFE114F104F9
:1010900009F467C0C114D10409F463C064E1C30159
:1010A0000E943507982EF6018081891508F47EC0CC
:1010B00090829920C9F180E590E00E94410260E0B1
:1010C000F30186850E94C0039A9482E90E94FF067C
:1010D000882099F00FEF10E001C0000F8A94EAF722
:1010E00082E90E94FF06902F9095F70120819223BC
:1010F0008023982B9083882483948701080D111DE9
:10110000891440F482E90E94FF06F80181938F015F
:101110008394F6CF80E00E94FF06F801808361E0AF
:10112000F30186850E94C00368E1C3010E94350770
:101130008770A114B10411F0F501808353FC38C00D
:10114000E114F104B9F1C114D104A1F19F899923EB
:1011500089F1F6014081413031F4843029F58FEF77
:1011600078CF80E0EBCF4230F8F081111DC04250C3
:101170009E012F5F3F4FB701C3010E94700781118D
:1011800068CFF6019081E90EF11CF70132972081BA
:101190009981291309C0F1E0EF1AF108F7012081C4
:1011A0009A81291709F455CF87E053CF84E051CFB6
:1011B00082E04FCF80E04DCF6CE0C3010E94350745
:1011C000582E837109F462CF81E043CF8F92AF92A2
:1011D000BF92CF92DF92EF92FF920F93CF93DF9364
:1011E000CDB7DEB72C970FB6F894DEBF0FBECDBFDC
:1011F00090E699838A83EDEEF2E0DE011396819109
:101200008D9382E0E33FF807D1F7E0911004E150BD
:10121000FF0BE25FFB4FDE011996CE010D96219187
:101220002D93A817B907D9F71F92812CB12CA12CA7
:10123000D12CC12CF12CE12C0CE09E012F5F3F4FF3
:1012400040E16EE08EE094E00E94C7070F902C967C
:101250000FB6F894DEBF0FBECDBFDF91CF910F91D7
:10126000FF90EF90DF90CF90BF90AF908F90089558
:101270000F931F93CF93DF938C01D62FC42F0E941F
:101280003507C0954C2F48236D2FC801DF91CF91B2
:101290001F910F910C9453076F927F928F92AF9290
:1012A000BF92CF92DF92EF92FF920F93CF93DF9393
:1012B00000D000D01F92CDB7DEB73C0182E08D8315
:1012C00040E064E2C3010E94530740E066E2C301CC
:1012D0000E94530746E268E4C3010E94530786E276
:1012E0008B838D818230C8F140E86CE1C3010E949C
:1012F000380987E08C831F92812CCE0104965C0113
:1013000001966C0104977C0101E09E012D5F3F4F27
:1013100040E36CE0C3010E94C707982F0F90811132
:1013200019C08D818230C9F48C81811116C081E091
:101330000F900F900F900F900F90DF91CF910F9122
:10134000FF90EF90DF90CF90BF90AF908F907F9005
:101350006F90089581E0923059F380E0E9CF2F92A9
:101360003F924F925F926F927F928F929F92AF9235
:10137000BF92CF92DF92EF92FF920F931F93CF9382
:10138000DF93CDB7DEB72E970FB6F894DEBF0FBE52
:10139000CDBF06E0413508F046C14E873B012C0128
:1013A00040E86CE10E94380983E989832E85222375
:1013B00029F081E0F3019081953008F480E09924D0
:1013C00093941C869C85990F990F990F1E85191B64
:1013D00017FD10E032E0882319F098E89B8333E092
:1013E00021E0912F977009F420E0912F9595959524
:1013F0009595290FD1F094E0811193E0291708F415
:10140000922F2C85E22FF0E03196E60DF71D232F69
:101410004191A1E0B0E0AC0FBD1FA20FB11D4C93F4
:101420002F5F422F431B491798F38111185F103229
:101430000CF484C080E78A838B819C8189279D81FD
:1014400089279E8189278F839E01285F3F4F47E030
:10145000BE016F5F7F4FC2010E947007082F81118C
:10146000E2C01A8693E09B871D87FE0137961F0115
:1014700009E08A84482D4295407F480D6AE1C20107
:101480000E9453071F92CE010A965C01FE013B9613
:101490006F0171019E012F5F3F4F40E36CE0C2017D
:1014A0000E94C707082F0F90823009F065C06CE1D9
:1014B000C2010E94350785FDB6C08F7109F480E234
:1014C000282F30E0412F110F550B421753070CF016
:1014D0009EC0182FE22FE595E595E595EF5F922FD9
:1014E000977081E009F480E0E80F81E090E08C0FD4
:1014F0009D1F8E0F911DFC0121503109277033274C
:1015000081E090E002C0880F991F2A95E2F79C01C4
:101510008081822B80838BCF85E98983FE85FF23A1
:1015200031F081E0F3019081983008F04BCF80E0FA
:1015300049CF87E98983F6E0FC87F9CF912F97702F
:101540009A87812F8595859585958E5F282F229581
:10155000207F290F2A8301E0911101C000E0080FCC
:1015600022242394312C2C0E3D1E280E311CF9E030
:10157000F81BFB871D877DCF811155C010E29D852B
:1015800090320CF457CF8B81883809F042C083E049
:1015900093E02C85E22FF0E03196E60DF71D980FD1
:1015A000A1E0B0E0AC0FBD1FA80FB11D2C9121939D
:1015B0008F5F8913F5CF8B858C87833009F04DC001
:1015C0008A8581114AC09E012D5F3F4F41E0B101E4
:1015D000C2010E947007082F811125C09B81F10173
:1015E000818198133CC09C818281981338C080818E
:1015F00082FF12C09394F2E09F1609F48DCF23E08E
:10160000921609F496CF81E0981609F4CDCE05E044
:101610000AC082E094E0BDCFF3018387892D880F53
:10162000980E93949082802F2E960FB6F894DEBF7A
:101630000FBECDBFDF91CF911F910F91FF90EF9023
:10164000DF90CF90BF90AF909F908F907F906F90E2
:101650005F904F903F902F90089501E0E4CF07E016
:10166000E2CFFC0101900020E9F73197AF01481B60
:10167000590BBC0185E693E00C9446028F929F9231
:10168000AF92BF920F931F93CF93DF93CDB7DEB787
:10169000A1970FB6F894DEBF0FBECDBF19A242309E
:1016A00008F44AE08E010F5D1F4F842E912CB12C5F
:1016B000A12CA50194010E94D117E62FB901CA01FE
:1016C000EA30F4F4E05DD801EE938D01232B242B56
:1016D000252B79F790E080E0109719F0CD010E945A
:1016E000310BA1960FB6F894DEBF0FBECDBFDF91D0
:1016F000CF911F910F91BF90AF909F908F900895C1
:10170000E95CE1CF81E891E00C94310BCF93DF935A
:101710000E943303EC010E94820B8C0F9D1FDF910E
:10172000CF910895CF93DF930E94310BEC010E947B
:10173000820B8C0F9D1FDF91CF9108952F923F92C6
:101740004F925F926F927F928F929F92AF92BF92D1
:10175000CF92DF92EF92FF920F931F93CF93DF937D
:101760005C011B016A01F12CE12CD50114968D91CD
:101770009C9186010E191F098017910708F48C01AE
:10178000F501D0810E942A042B013C0180913B038A
:10179000811172C0C02F013208F0C0E2F1E0F09375
:1017A0003B0321E0C601801B910BE816F90608F403
:1017B00020E020933A038FEF80933903109238038F
:1017C0008C0F80933703A1E0A0931603809116033A
:1017D000DD0FD82BD093160380911503813009F0CB
:1017E00090C0109215030E942A042B013C018091A5
:1017F00016038093BB0080913D0390913E03A0911E
:101800003F03B0914003892B8A2B8B2BA1F00E94C0
:101810002A0420913D0330913E0340913F035091B3
:101820004003641975098609970926173707480781
:10183000590708F442C08091BC0083FDD8CFB5ECB5
:10184000B093BC000E942A042B013C0180913B0311
:10185000813009F45AC0809138038C1710F4C0917C
:101860003803A7E1B3E0E5EFF2E080E08C1751F137
:101870009D9191938F5FFACF80913D0390913E03AC
:10188000A0913F03B0914003892B8A2B8B2B09F445
:101890007DCF0E942A0420913D0330913E03409168
:1018A0003F0350914003641975098609970926176B
:1018B00037074807590708F069CF80913C030E9419
:1018C000D204C0E01092F402C093F302C0171106D4
:1018D00009F057C041018E0C9F1CE401CE0188190C
:1018E00099098017910798F5D50111968D919C91D2
:1018F000DC01ED91FC910284F385E02D099589933B
:10190000EDCFE5EEE093BC009DCF80913D0390913B
:101910003E03A0913F03B0914003892B8A2B8B2B70
:1019200009F494CF0E942A0420913D0330913E0394
:1019300040913F0350914003641975098609970946
:10194000261737074807590708F080CFB6CFE00EB3
:10195000F11EEC14FD0408F408CF81E0DF91CF9173
:101960001F910F91FF90EF90DF90CF90BF90AF90BD
:101970009F908F907F906F905F904F903F902F90AF
:10198000089580E0EBCFCF92DF92EF92FF92CF935A
:10199000DF936C01990FEE08FF08F7FE19C06DE2A6
:1019A00085E693E00E94E602EC0166277727CB01EB
:1019B0006C197D098E099F094AE00E943E0B8C0F2D
:1019C0009D1FDF91CF91FF90EF90DF90CF90089512
:1019D0004AE0C701B601DF91CF91FF90EF90DF9011
:1019E000CF900C943E0B85ED8093BC0080913D031D
:1019F00090913E03A0913F03B09140030796A11D33
:101A0000B11D23E0B695A795979587952A95D1F7AF
:101A10002091BC0024FD03C010923B030895409127
:101A20003D0350913E0360913F0370914003452B6D
:101A3000462B472B69F30097A105B10541F02AE237
:101A40002A95F1F700C00197A109B109E1CF809172
:101A50003C030C94D2041F920F920FB60F921124E4
:101A60002F933F934F935F936F937F938F939F93A6
:101A7000AF93BF93EF93FF9385E693E00E94C40278
:101A8000FF91EF91BF91AF919F918F917F916F9156
:101A90005F914F913F912F910F900FBE0F901F902C
:101AA00018951F920F920FB60F9211242F938F93B8
:101AB0009F93EF93FF93E0917503F09176038081FC
:101AC000E0917B03F0917C0382FD1BC090818091AB
:101AD0007E038F5F8F7320917F03821741F0E09127
:101AE0007E03F0E0EB59FC4F958F80937E03FF91CE
:101AF000EF919F918F912F910F900FBE0F901F909C
:101B000018958081F4CF1F920F920FB60F92112477
:101B10002F933F938F939F93AF93BF93809197029F
:101B200090919802A0919902B0919A0230919602F8
:101B300023E0230F2D3758F50196A11DB11D2093E9
:101B400096028093970290939802A0939902B09383
:101B50009A0280919B0290919C02A0919D02B0916B
:101B60009E020196A11DB11D80939B0290939C0241
:101B7000A0939D02B0939E02BF91AF919F918F91D0
:101B80003F912F910F900FBE0F901F90189526E850
:101B9000230F0296A11DB11DD2CF1F920F920FB637
:101BA0000F9211242F933F934F935F936F937F93E3
:101BB0008F939F93AF93BF93EF93FF938091B9005F
:101BC000887F803609F44AC0F0F5883209F4A7C04E
:101BD00018F5803109F49BC0B8F4882309F4F9C0E2
:101BE000883009F494C0FF91EF91BF91AF919F911C
:101BF0008F917F916F915F914F913F912F910F90B6
:101C00000FBE0F901F901895883109F488C080325C
:101C100051F78093390314C0803409F49DC040F417
:101C20008033B9F38833F9F68093390385ECB0C07B
:101C3000803509F485C0883509F496C0883499F652
:101C40000E94F30CD0CF883909F48CC038F588375E
:101C500029F050F4883611F0803729F683E080931C
:101C60003B031092950257C0883809F47BC0803935
:101C700019F0803809F0B7CF80919502803208F0D2
:101C800071C0E091950281E08E0F80939502809162
:101C9000BB00F0E0EB58FD4F80833DC0803B39F046
:101CA000E0F4803A09F479C0883A09F09CCF84E0E6
:101CB00080933B031092740210927302E091A10290
:101CC000F091A20209958091730281110FC081E009
:101CD000809373021092530209C0803C09F4A6CF8E
:101CE000883C09F4A3CF883B09F07DCFE0917402D2
:101CF00081E08E0F80937402F0E0ED5AFD4F8081F9
:101D00008093BB00909174028091730229C08091EE
:101D100016038093BB0085EC8093BC0064CF909148
:101D2000380380913703981758F5E091380381E024
:101D30008E0F80933803F0E0E95EFC4F8081E9CF9D
:101D4000E091380381E08E0F809338038091BB00CF
:101D5000F0E0E95EFC4F8083909138038091370377
:101D60009817C8F285E8D8CFE091380381E08E0F4C
:101D7000809338038091BB00F0E0E95EFC4F8083E4
:101D800080913A0381115CCF81E08093150384EA4E
:101D90008093BC0010923B0326CF85EC8093BC005F
:101DA00010923B0380919502803230F4E0919502CD
:101DB000F0E0EB58FD4F10826091950270E0E091E9
:101DC0009F02F091A00285E792E00995109295029A
:101DD0000ACF1092390334CFE5E6F3E01382128282
:101DE00088EE93E0A0E0B0E084839583A683B78378
:101DF00027E531E03183208325EC30E035872487E7
:101E000024EC30E03787268720EC30E0318B208BC4
:101E100021EC30E0338B228B22EC30E0358B248BAD
:101E200026EC30E0378B268B118E128E138E148E9B
:101E3000E2E0F4E01382128284839583A683B78361
:101E400089E691E091838083EEE0F4E08BE791E016
:101E5000918380838AE0868789E087870895CF937E
:101E6000DF93CDB7DEB76C970FB6F894DEBF0FBE29
:101E7000CDBF789484B5826084BD84B5816084BD13
:101E800085B5826085BD85B5816085BD80916E0018
:101E9000816080936E001092810080918100826049
:101EA0008093810080918100816080938100809186
:101EB00080008160809380008091B1008460809375
:101EC000B1008091B00081608093B00080917A0071
:101ED000846080937A0080917A00826080937A0097
:101EE00080917A00816080937A0080917A00806886
:101EF00080937A001092C100E0917503F09176030F
:101F000082E08083E0917103F09172031082E0918E
:101F10007303F091740380E1808310927D03E0915C
:101F20007903F0917A0386E08083E0917703F09162
:101F30007803808180618083E0917703F09178035A
:101F4000808188608083E0917703F09178038081BD
:101F500080688083E0917703F091780380818F7DA2
:101F6000808361E086E00E94EE0360E086E00E94EC
:101F7000C0038091C9029091CA02009711F00E949B
:101F8000951886E090E00E94F9178C0188E6D80148
:101F90008C9382E094E012969C938E931197139603
:101FA0001C92139780E290E015969C938E93149761
:101FB0001093CA020093C9021092F4021092F30225
:101FC00010924203109264030E94B40484E492E0ED
:101FD0009093A2028093A10285E492E09093A002E4
:101FE00080939F02FF24F394F801F382C8010E94BA
:101FF000860681110FC084E891E00E94920B85E66D
:1020000093E00E944E036AE070E080E090E00E945E
:102010004F04F9CF188E8091C9029091CA02DC0159
:1020200014962D913C91232B81F0FC012081F0929C
:10203000410320936303109242031092640341E032
:10204000BE01685E7F4F0E94E30541E050E0BE01A3
:102050006F5F7F4F8091C9029091CA020E949E0BD0
:10206000898190E0880F892F881F990B892B21F097
:1020700086E991E00E94920B8FEF8093D602109236
:10208000D7021092D8021092D9021092DA0210925E
:10209000DB021092DC028093DD028093DE028093EB
:1020A000DF028093E0021FB7F8948091A3028111B0
:1020B00027C0EEEAF1E08491EAE9F1E09491E82F9B
:1020C000F0E0EE0FFF1FEA57FE4FA591B491EC919F
:1020D000E92321F461E08AE00E94C00361E08AE024
:1020E0000E94EE038CB580618CBD8CB580648CBD84
:1020F00061E08DE00E94EE0361E08BE00E94EE0360
:102100008091A3028F5F8093A3021FBF61E0809143
:102110001C040E94EE0361E080911C040E94C00335
:1021200080911D048F3F09F400C160E00E94EE031E
:1021300080911D040E949703892B09F0F6C061E08D
:1021400080911D040E94EE0360E080911D040E94B6
:10215000C00383E090E00197F1F761E080911D04F6
:102160000E94C00362E370E080E090E00E944F04B0
:1021700040E064E28EE094E00E94530740E066E2B3
:102180008EE094E00E94530746E268E48EE094E01B
:102190000E94530740E864E58EE094E00E945307F4
:1021A00049EA66E58EE094E00E94530743E068E563
:1021B0008EE094E00E94530748EE6AE58EE094E0DA
:1021C0000E94530740E46AE28EE094E00E945307C5
:1021D0004DE362E28EE094E00E94530768E28EE0F5
:1021E00094E00E943507982F9370933039F0482F70
:1021F000436068E28EE094E00E9453078FEF809383
:10220000ED028093EE028093EF028093F0028093C0
:10221000F1028093F20262E088E00E94EE0362E045
:1022200085E00E94EE0362E084E00E94EE031092DB
:10223000E4021092E30261E087E00E94EE0360E0B6
:1022400087E00E94C00385E08093CB0281E0809309
:10225000CC0282E08093CD0265E088E090E00E94AD
:10226000A9176091CC0289E090E00E94A9176091C3
:10227000CD028AE090E00E94A91788E090E00E94D9
:10228000A1178093CB0289E090E00E94A117809370
:10229000CC028AE090E00E94A1178093CD020E94B8
:1022A00081046B017C018091E3029091E402892B0F
:1022B000E9F488E00E9497030197C1F461E087E0A8
:1022C0000E94C00388E00E949703019759F40E947E
:1022D00081046C197D098E099F09603D7740810555
:1022E000910560F360E087E00E94C00368EB7BE04B
:1022F00080E090E00E944F04992493948EEB91E04B
:102300000E94920B8091000190E027EB32E03C8F1D
:102310002B8FA5EAB2E0F9019F01275B3240281715
:102320003907D4F421912D93F7CF4FE062E08EE08E
:1023300094E00E94530713E062E370E080E090E0D5
:102340000E944F0462E08EE094E00E94350784FF13
:102350000FCF115089F70CCF8EE094E00E944C090A
:10236000811126C08091A4028F5F8093A4028630E1
:1023700080F08091000190E0E7EBF2E02FEFAF01F9
:10238000475B52404817590714F42193F8CF109235
:10239000A4028091B7028C3009F458C208F04FC2F1
:1023A000882309F456C2883009F450C28FEF4EC218
:1023B0008EE094E00E94BF06182F882351F31092FC
:1023C000A40287E194E00E9433030E94820B8BE019
:1023D00094E00E943303E0911B04EF77E13408F0AE
:1023E0004FC0F0E0E95FFE4F008184E392E00530EA
:1023F000A9F078F581E692E0023081F038F489E8BE
:1024000092E0013059F088EB91E008C08AE492E054
:10241000033021F08FE392E00430A9F70E94860B8D
:10242000035089ED93E0033088F48BEB93E00E9436
:10243000860B87E00E94E608082F882319F18FE9B0
:1024400093E00E943303802F0E94CF060E94860BE8
:10245000A0CF87EF91E0083009F348F482E192E0E1
:102460000630E1F286E092E00730C1F2CCCF88EE90
:1024700091E0093099F285EC91E00F3F79F2C3CFFA
:1024800000E0C1CF87E893E00E94860B3E0133E174
:10249000630E711C53E1252E312C412C512C198EC9
:1024A0002A8E81E393E0112369F08DE393E00E948B
:1024B00033034AE064E070E080E090E00E943E0B6D
:1024C00089E393E00E9433038EE293E00E9433039A
:1024D0004AE0C201B1010E943E0B8BE293E00E94F0
:1024E0003303111145C062E16F8B80E389839A8DBC
:1024F0009A839E012D5F3F4F42E0BE016F5F7F4F89
:102500008EE094E00E947007082F811118C0A1E0AE
:10251000AF93812CB12CA12CFE0177966F019E0107
:102520002F5F3F4F790104E040E36CE08EE094E0E0
:102530000E94C707082F0F90882309F487C088EFEF
:1025400092E00E943303802F0E94CF060E94860BE8
:1025500031E0631A710861E0261A31084108510818
:102560008FE0281631044104510409F099CF10C0BE
:1025700080E10E94E608082F882309F4B4CF8FE099
:1025800093E00E943303802F0E94CF060E94860BA7
:102590000E94820B8EE693E00E9433034AE060E1E2
:1025A00070E080E090E00E943E0B89E693E00E949C
:1025B000860B80910001823108F427C180E380936B
:1025C000B70280E18093B80229EB32E042E067EB8A
:1025D00072E08EE094E00E947007182F81111AC0FB
:1025E00091E09F93812CB12CA12C80E0C82E81E03A
:1025F000D82E97EBE92E92E0F92E04E0970140E304
:102600006CE08EE094E00E94C707182F0F9088239B
:1026100009F4FDC082E593E00E943303812F0E94FC
:10262000CF060E94860B8091000190E0E5EAF2E07F
:102630009F01255A3240281739070CF0E8C0219134
:10264000AB8DBC8D2D93BC8FAB8FF2CFCE0101969D
:102650007C0100E0D7018D917D01803108F0D2C06E
:1026600085EF92E00E943303F7013197608170E0BB
:1026700090E080E040E10E943E0B802F8370833029
:1026800021F481EF92E00E9433030F5F003111F7D4
:10269000112309F467C0A8858A2F90E0FC0104E0AB
:1026A000F595E7950A95E1F72985022F0F7030E03F
:1026B000790144E0F594E7944A95E1F76F81402F62
:1026C00050E0762F70957F707E171F0691F470E0B2
:1026D000B4E075956795BA95E1F7BFE06B274617AB
:1026E000570739F4A095AF7011E0AE151F0409F437
:1026F00010E0BF01660F771F660F771F6470DA0165
:10270000AA0FBB1FA270A62B6E2D6170E62EEA2ABF
:10271000EB8A25FB662760F90270062BBF01660F66
:10272000771F6470062B0C8B26FB662760F9E4701C
:10273000E62BBA01759567956270E62BED8BB5E0D7
:1027400095958795BA95E1F78470220F232F221F64
:10275000330B822B55954795559547954270842BA1
:102760008E8B198F8DEE92E00E943303D301139666
:10277000FC90F2FA882780F990E00E94C30C8BEE5F
:1027800092E00E943303F1FA882780F990E00E94DA
:10279000C30C89EE92E00E9433038F2D817090E08C
:1027A0000E94C30C85EE92E00E943303B98DBB23D7
:1027B00021F08FEB92E00E943303EA8DE331F1F0D8
:1027C000F1E0FF1619F026E0F21218C0C980DA8095
:1027D000EB80FC8085EB92E00E94330340E1C7016F
:1027E000B6010E943E0B8DEA92E00E9433036D8594
:1027F00070E090E080E040E10E943E0B0E94820B7E
:1028000010E0A6CE83EF92E02DCF14E003CF83E457
:1028100093E00E9433034AE060E170E080E090E0E2
:102820000E943E0B81E493E00E94860B0E94820B83
:1028300048E060E18EE094E00E943809AACD893238
:1028400029F08E3219F0883109F0B0CD8093D6028C
:1028500002C01092D6028091BA028093D702F09102
:10286000C002EF2FEF77E093D802F695F695F69534
:10287000F0718091C10282958F70F82BF093D9028C
:102880008091BE024091BF02242F26952695269561
:102890002071982F9F70292B2093DA0290E004E09A
:1028A000959587950A95E1F7682F8093DB02842F31
:1028B0008F778093DC029091C2029093DD02909119
:1028C000C3029093DE029091C4029093DF02909134
:1028D000C6029093E00290E0022E000C330BA8E4B5
:1028E000B1E051E0561728F47D91270F311D5F5F4D
:1028F000F9CF633020F0437011F42F5F3F4F6DE646
:1029000071E0869FA001879F500D969F500D112466
:102910004150510903969695879596958795840F12
:10292000951F280F391FA8E1B0E00E94C2179B0134
:10293000AC012F0F311D411D511DACE3B0E00E94D1
:10294000B7179B01AC012E0F311D411D511D0E9477
:10295000B71760587C4B8249974C6093D2027093B2
:10296000D3028093D4029093D50219820091C902B8
:102970001091CA02F80184819581892BD1F0808160
:102980009092410380936303109242031092640378
:1029900040E0BE016F5F7F4FC8010E94E3058823BE
:1029A00041F047E050E0BE016F5F7F4FC8010E94D9
:1029B0009E0B29812F77822F90E054E09595879583
:1029C0005A95E1F7982F990F990F182F191B110F8E
:1029D000120F2A81822F90E064E0959587956A9581
:1029E000E1F7982F990F990F082F091B000F020F7D
:1029F0002B81822F90E074E0959587957A95E1F789
:102A0000982F990F990FF82EF91AFF0CF20E3D81AD
:102A10002E81822F90E0E4E095958795EA95E1F785
:102A2000982F990F990FA82FA91BAA0FA20F2F81DA
:102A3000822F90E0F4E095958795FA95E1F7982F2D
:102A4000990F990F891B880F820F682F70E0432F11
:102A500050E0B4E055954795BA95E1F7942F990F5A
:102A6000990F242F291B220F230F30E0E1E2F4E01D
:102A700091E09A1730F44491240F311D9F5F3196F5
:102A8000F8CFA33020F0837011F42F5F3F4FCB01BC
:102A900003969695879596958795EDE6F1E06E9F5E
:102AA000A0016F9F500D7E9F500D11244150510980
:102AB000840F951F280F391FA8E1B0E00E94C217AC
:102AC0009B01AC012F0D311D411D511DACE3B0E048
:102AD0000E94B7179B01AC01200F311D411D511DF4
:102AE0000E94B717AB01BC01812F90E0B0E0A0E0DD
:102AF00080589C4BA249B74C840F951FA61FB71F47
:102B00008093CE029093CF02A093D002B093D102D3
:102B10008091D6028F3F09F077C08BEC91E00E9444
:102B2000920B84E00E949703892B09F0D5C0109284
:102B3000E2028091E102823019F08F5F8093E1021E
:102B40008091E102823068F181E090E09093E402AC
:102B50008093E30264EF71E080E090E00E944F0414
:102B60000E9481046B017C0185E00E94970301971C
:102B7000C1F461E087E00E94C00385E00E949703F2
:102B8000019759F40E9481046C197D098E099F09EF
:102B9000603D77408105910560F360E087E00E9429
:102BA000C00389E492E00E94310BC090E302D09010
:102BB000E4020D2C000CEE08FF084AE0C701B60144
:102BC000F7FE0DC06DE285E693E00E94E6026627FF
:102BD0007727CB016C197D098E099F094AE00E9475
:102BE0003E0BE091EB02F091EC02E730F10508F0CA
:102BF000A1C0E350FA4E0C94F31796167F16A71651
:102C000019172E17191719176091D2027091D30254
:102C10008091D4029091D5024AE00E943E0B8AED49
:102C200091E00E94310B6091CE027091CF028091B1
:102C3000D0029091D1024AE00E943E0B0E94820B8A
:102C40004091D2025091D3026091D4027091D5028A
:102C50008091CE029091CF02A091D002B091D1028A
:102C6000481759076A077B07A0F18EED91E00E9493
:102C7000920B8091D602982F977F11F08C3019F427
:102C800088EE91E04CCF8E3211F0893219F486E053
:102C900092E045CF8831E9F49091DD028091CB023A
:102CA000981317C089E192E00E94920B9091DE0286
:102CB0008091CC0298130DC083E292E00E94920BA7
:102CC0009091DF028091CD02981303C08EE292E0D2
:102CD00026CF8BE392E023CF1092E1028091E202B3
:102CE000823019F08F5F8093E2028091E20282309D
:102CF00008F457CF1092E4021092E30252CF0E94E0
:102D000081040091E7021091E8022091E9023091DC
:102D1000EA02601B710B820B930B6436710581050F
:102D2000910540F01092EC021092EB0260E086E018
:102D30000E94C00380E090E0892B09F4DFCA0E9462
:102D4000B002882309F4D8CA0E940000D5CA809135
:102D5000E602811124C00E9481040091E7021091D3
:102D6000E8022091E9023091EA02601B710B820BAC
:102D7000930B6436710581059105E0F260E086E011
:102D80000E94C0030E9481046093E7027093E802EE
:102D90008093E9029093EA029092E602CBCF8130D1
:102DA00031F50E9481040091E7021091E802209120
:102DB000E9023091EA02601B710B820B930B6233C4
:102DC00071058105910508F4B5CF61E086E00E94A8
:102DD000C0030E9481046093E7027093E80280932D
:102DE000E9029093EA0282E08093E602A3CF823068
:102DF00009F0A0CF0E9481040091E7021091E8023F
:102E00002091E9023091EA02601B710B820B930B57
:102E1000643671058105910508F48CCF60E086E089
:102E20000E94C0031092EC021092EB021092E60294
:102E300081CF0E9481040091E7021091E802209165
:102E4000E9023091EA02601B710B820B930B643F25
:102E500071408105910508F065CF6CCF8091E50246
:102E6000811125C00E9481040091E7021091E802BF
:102E70002091E9023091EA02601B710B820B930BE7
:102E8000643671058105910508F454CF60E086E051
:102E90000E94C0030E9481046093E7027093E802DD
:102EA0008093E9029093EA029092E50243CF813049
:102EB00031F50E9481040091E7021091E80220910F
:102EC000E9023091EA02601B710B820B930B6233B3
:102ED00071058105910508F42DCF61E086E00E941F
:102EE000C0030E9481046093E7027093E80280931C
:102EF000E9029093EA0282E08093E5021BCF8230E0
:102F000009F018CF0E9481040091E7021091E802B5
:102F10002091E9023091EA02601B710B820B930B46
:102F2000643671058105910508F404CF60E086E000
:102F30000E94C0031092EC021092EB021092E50284
:102F4000F9CEF999FECF92BD81BDF89A992780B547
:102F50000895262FF999FECF1FBA92BD81BD20BDDD
:102F60000FB6F894FA9AF99A0FBE019608950E9446
:102F7000C217A59F900DB49F900DA49F800D911D29
:102F800011240895A29FB001B39FC001A39F700DAB
:102F9000811D1124911DB29F700D811D1124911D61
:102FA0000895A1E21A2EAA1BBB1BFD010DC0AA1F8A
:102FB000BB1FEE1FFF1FA217B307E407F50720F0A2
:102FC000A21BB30BE40BF50B661F771F881F991F1D
:102FD0001A9469F760957095809590959B01AC0166
:102FE000BD01CF010895EE0FFF1F0590F491E02D74
:102FF00009940F931F93CF93DF938230910510F4C0
:1030000082E090E0E0912004F091210430E020E0A3
:10301000B0E0A0E0309799F42115310509F44AC0D9
:10302000281B390B24303105D8F58A819B81611525
:10303000710589F1FB0193838283FE0111C04081F8
:1030400051810281138148175907E0F04817590749
:1030500099F4109761F012960C93129713961C93A3
:103060003296CF01DF91CF911F910F910895009378
:10307000200410932104F4CF2115310551F042179B
:10308000530738F0A901DB019A01BD01DF01F80106
:10309000C1CFEF01F9CF9093210480932004CDCFCD
:1030A000FE01E20FF31F819391932250310939837E
:1030B0002883D7CF20911E0430911F04232B41F485
:1030C000209103013091040130931F0420931E04CA
:1030D00020910101309102012115310541F42DB7F4
:1030E0003EB74091050150910601241B350BE0913C
:1030F0001E04F0911F04E217F307A0F42E1B3F0BF0
:103100002817390778F0AC014E5F5F4F2417350759
:1031100048F04E0F5F1F50931F0440931E0481938D
:1031200091939FCFF0E0E0E09CCFCF93DF930097A7
:10313000E9F0FC01329713821282A0912004B09131
:103140002104ED0130E020E01097A1F420813181CD
:10315000820F931F20911E0430911F0428173907F6
:1031600009F061C0F0931F04E0931E04DF91CF913A
:103170000895EA01CE17DF07E8F54A815B819E01D9
:1031800041155105B1F7E901FB83EA834991599152
:10319000C40FD51FEC17FD0761F480819181029661
:1031A000840F951FE90199838883828193819B8392
:1031B0008A83F0E0E0E012968D919C91139700973E
:1031C000B9F52D913C911197CD010296820F931F75
:1031D00020911E0430911F042817390739F63097C3
:1031E00051F51092210410922004B0931F04A09373
:1031F0001E04BCCFD383C28340815181840F951FAD
:10320000C817D90761F44E5F5F4F88819981480FD5
:10321000591F518340838A819B8193838283211527
:10322000310509F0B0CFF0932104E09320049ECF44
:10323000FD01DC01C0CF13821282D7CFF894FFCFFB
:103240001200002204800006090000FF00000004B4
:103250000300000000000007070000000000000558
:10326000000000000000000100000000000000005D
:10327000000000000000000000000000000000004E
:1032800000000000000000021F1C1F1E1F1E1F1F49
:103290001E1F1E00000000E602460273024E03A439
:1032A000028202960200000000540627068306FDF3
:1032B0000520060D06FE0500000000AF094C09BF01
:1032C000060D0A00436F756C646E27742066696E84
:1032D000642052544300525443206973204E4F548B
:1032E0002072756E6E696E672C206C657427732072
:1032F000736574207468652074696D65210052657A
:103300006164436172644865726500494E56414C80
:1033100049445F53544154453100202020006461EA
:10332000746520646F6E6500415554484F5249538F
:1033300045442D524F4F4D5F54494D4553594E43CF
:1033400020646F6E65004D4153544552206F7220CA
:10335000454D5247414E435900526F6F6D20646F87
:103360006E6500666C6F6F7220646F6E65006275CB
:103370006964696E6720646F6E6500494E56414C02
:1033800049445F535441544500446F6F72203D20BF
:0233900000003B
:107E0000112484B714BE81FFF0D085E080938100F7
:107E100082E08093C00088E18093C10086E0809377
:107E2000C20080E18093C4008EE0C9D0259A86E02C
:107E300020E33CEF91E0309385002093840096BBD3
:107E4000B09BFECF1D9AA8958150A9F7CC24DD24C4
:107E500088248394B5E0AB2EA1E19A2EF3E0BF2EE7
:107E6000A2D0813461F49FD0082FAFD0023811F036
:107E7000013811F484E001C083E08DD089C08234E0
:107E800011F484E103C0853419F485E0A6D080C0E4
:107E9000853579F488D0E82EFF2485D0082F10E0AE
:107EA000102F00270E291F29000F111F8ED06801E7
:107EB0006FC0863521F484E090D080E0DECF843638
:107EC00009F040C070D06FD0082F6DD080E0C81688
:107ED00080E7D80618F4F601B7BEE895C0E0D1E017
:107EE00062D089930C17E1F7F0E0CF16F0E7DF06D8
:107EF00018F0F601B7BEE89568D007B600FCFDCFD4
:107F0000A601A0E0B1E02C9130E011968C91119780
:107F100090E0982F8827822B932B1296FA010C0160
:107F200087BEE89511244E5F5F4FF1E0A038BF0790
:107F300051F7F601A7BEE89507B600FCFDCF97BE46
:107F4000E89526C08437B1F42ED02DD0F82E2BD052
:107F50003CD0F601EF2C8F010F5F1F4F84911BD097
:107F6000EA94F801C1F70894C11CD11CFA94CF0C13
:107F7000D11C0EC0853739F428D08EE10CD085E9AC
:107F80000AD08FE07ACF813511F488E018D01DD067
:107F900080E101D065CF982F8091C00085FFFCCF94
:107FA0009093C60008958091C00087FFFCCF809118
:107FB000C00084FD01C0A8958091C6000895E0E648
:107FC000F0E098E1908380830895EDDF803219F02E
:107FD00088E0F5DFFFCF84E1DECF1F93182FE3DFCA
:107FE0001150E9F7F2DF1F91089580E0E8DFEE27F6
:047FF000FF270994CA
:027FFE00040479
:0400000300007E007B
:00000001FF
