:020000040000FA
:100000000C9417020C94440D0C941D0D0C943F029B
:100010000C943F020C943F020C943F020C943F025C
:100020000C943F020C943F020C943F020C943F024C
:100030000C943F020C943F020C943F020C943F023C
:100040000C94D30C0C943F020C94910D0C946B0DFA
:100050000C943F020C943F020C943F020C943F021C
:100060000C94C30D0C943F02556E6B6E6F776E202F
:100070006572726F720041204D49464152452050D1
:1000800049434320726573706F6E646564207769BD
:100090007468204E414B2E00546865204352435FE4
:1000A0004120646F6573206E6F74206D61746368A6
:1000B0002E00496E76616C696420617267756D65AA
:1000C0006E742E00496E7465726E616C206572727A
:1000D0006F7220696E2074686520636F64652E20DE
:1000E00053686F756C64206E6F7420686170706502
:1000F0006E2E004120627566666572206973206EFF
:100100006F742062696720656E6F7567682E005492
:10011000696D656F757420696E20636F6D6D756EA6
:1001200069636174696F6E2E00436F6C6C697369EB
:100130006F6E2064657465637465642E0045727229
:100140006F7220696E20636F6D6D756E6963617487
:10015000696F6E2E00537563636573732E00000024
:100160000000230026002900556E6B6E6F776E200D
:10017000747970650053414B20696E6469636174E2
:10018000657320554944206973206E6F7420636F36
:100190006D706C6574652E004D4946415245205482
:1001A0004E5033585858004D494641524520444519
:1001B0005346697265004D494641524520506C7561
:1001C00073004D494641524520556C7472616C690B
:1001D000676874206F7220556C7472616C6967680F
:1001E000742043004D494641524520344B42004D56
:1001F000494641524520314B42004D494641524506
:10020000204D696E692C2033323020627974657319
:10021000005049434320636F6D706C69616E7420B8
:10022000776974682049534F2F494543203138304E
:10023000393220284E464329005049434320636FFA
:100240006D706C69616E7420776974682049534FD2
:100250002F4945432031343434332D340020416458
:10026000723D3078002056616C75653D3078002015
:10027000496E76657274656420616363657373208B
:100280006269747320646964206E6F74206D617498
:100290006368212000205D200020002000205B20DA
:1002A00000200020002030004D49464152455F5259
:1002B0006561642829206661696C65643A20005094
:1002C00043445F41757468656E7469636174652841
:1002D00029206661696C65643A2000202000202096
:1002E000002020202020202000202020002020206E
:1002F000003A004461746120696E20626C6F636B28
:1003000020004D49464152455F52656164282920CD
:100310006661696C65643A2000202E2E2E005265BD
:100320006164696E6720646174612066726F6D201C
:10033000626C6F636B200043757272656E7420642B
:1003400061746120696E20736563746F723A005046
:1003500043445F41757468656E74696361746528B0
:1003600029206661696C65643A200041757468658E
:100370006E7469636174696E67207573696E672056
:100380006B657920412E2E2E0054686973207361AD
:100390006D706C65206F6E6C7920776F726B732057
:1003A00077697468204D494641524520436C61731A
:1003B0007369632063617264732E00504943432064
:1003C000747970653A200043617264205549443A5B
:1003D000001F1C1F1E1F1E1F1F1E1F1E00000000CF
:1003E000240027002A0000000000250028002B0020
:1003F00004040404040404040202020202020303CB
:1004000003030303010204081020408001020408D2
:100410001020010204081020000000080002010062
:10042000000304070000000000000000E20E112499
:100430001FBECFEFD8E0DEBFCDBF24E0A0E4B2E026
:1004400001C01D92AE30B207E1F712E0A0E0B1E0CA
:10045000EEEFF0E302C005900D92A034B107D9F79A
:1004600012E0C7E1D2E004C02197FE010E945217BA
:10047000C631D107C9F70E94250F0C947D180C9442
:1004800000008CBD9DBD0895833081F028F481303B
:1004900099F08230A9F008958730A9F08830C9F02A
:1004A0008430B1F4809180008F7D03C08091800002
:1004B0008F7780938000089584B58F7784BD0895E9
:1004C00084B58F7DFBCF8091B0008F778093B00093
:1004D00008958091B0008F7DF9CF1F93CF93DF9364
:1004E000282F30E0F901E85EFB4F8491F901EC5FC1
:1004F000FB4FD491F901E051FC4FC491CC23A9F0FA
:10050000162F81110E944402EC2FF0E0EE0FFF1F26
:10051000EA51FC4FA591B4918FB7F894EC91111169
:1005200008C0D095DE23DC938FBFDF91CF911F9160
:100530000895DE2BF8CFCF93DF9390E0FC01EC5FC2
:10054000FB4F249180519C4FFC0184918823D1F072
:1005500090E0880F991FFC01E452FC4FA591B491E3
:10056000FC01EA51FC4FC591D49161110EC09FB7B7
:10057000F8948C91E22FE0958E238C932881E223CE
:10058000E8839FBFDF91CF9108958FB7F894EC91E6
:10059000E22BEC938FBFF6CF3FB7F8948091D50252
:1005A0009091D602A091D702B091D80226B5A89B0F
:1005B00005C02F3F19F00196A11DB11D3FBFBA2FF5
:1005C000A92F982F8827BC01CD01620F711D811DB5
:1005D000911D42E0660F771F881F991F4A95D1F73A
:1005E00008958F929F92AF92BF92CF92DF92EF9237
:1005F000FF924B015C010E94CC026B017C010E94C6
:10060000CC026C197D098E099F09683E73408105F3
:100610009105A8F321E0821A9108A108B10888EE9B
:10062000C80E83E0D81EE11CF11C81149104A104C2
:10063000B10429F7FF90EF90DF90CF90BF90AF907B
:100640009F908F9008952FB7F8946091D102709188
:10065000D2028091D3029091D4022FBF08950895C1
:1006600008950895AF92BF92CF92DF92EF92FF92DA
:100670000F931F93CF93DF936C017B018B01040FCA
:10068000151FEB015E01AE18BF08C017D10759F066
:100690006991D601ED91FC910190F081E02DC601A8
:1006A0000995892B79F7C501DF91CF911F910F91A2
:1006B000FF90EF90DF90CF90BF90AF900895FC0136
:1006C000538D448D252F30E0842F90E0821B930BB7
:1006D000541710F0CF96089501970895FC01918D5D
:1006E000828D981761F0A28DAE0FBF2FB11D5D9660
:1006F0008C91928D9F5F9F73928F90E008958FEF02
:100700009FEF0895FC01918D828D981731F0828DB5
:10071000E80FF11D858D90E008958FEF9FEF08950C
:10072000FC01918D228D892F90E0805C9F4F821B70
:1007300091098F739927089581E593E00E949003B2
:1007400021E0892B09F420E0822F089580E090E0D9
:10075000892B29F00E949C0381110C9400000895BC
:10076000FC01A48DA80FB92FB11DA35ABF4F2C9126
:10077000848D90E001968F739927848FA689B7891D
:100780002C93A089B1898C91837080648C93938D14
:10079000848D981306C00288F389E02D80818F7DB7
:1007A00080830895EF92FF920F931F93CF93DF936F
:1007B000EC0181E0888F9B8D8C8D98131AC0E8899D
:1007C000F989808185FF15C09FB7F894EE89FF896C
:1007D0006083E889F98980818370806480839FBF0A
:1007E00081E090E0DF91CF911F910F91FF90EF900A
:1007F0000895F62E0B8D10E00F5F1F4F0F7311271A
:10080000E02E8C8D8E110CC00FB607FCFACFE88954
:10081000F989808185FFF5CFCE010E94B003F1CF29
:10082000EB8DEC0FFD2FF11DE35AFF4FF0829FB7C8
:10083000F8940B8FEA89FB8980818062CFCF0F9378
:100840001F93CF93DF938C01D0E0C0E0F801EC0F51
:10085000FD1F6491662341F081E593E00E94D2037D
:10086000892B11F02196F2CFCE01DF91CF911F910C
:100870000F910895CF93DF93EC01888D8823B9F011
:10088000AA89BB89E889F9898C9185FD03C080819B
:1008900086FD0DC00FB607FCF7CF8C9185FFF2CF18
:1008A000808185FFEDCFCE010E94B003E9CFDF91BB
:1008B000CF91089520916102260F3327331F2132F3
:1008C0003105ECF420912703FC0190E080E0243016
:1008D00069F082E00895A09161022191AC014F5B23
:1008E0005D4FA40FB52FB11D2C930196861798F379
:1008F00080916102680F6093610280E0089581E059
:1009000008951092270381E080932603109201033B
:1009100061E082E10E946D0261E083E10E946D026C
:10092000E9EBF0E080818E7F808380818D7F808302
:1009300088E48093B80085E48093BC000895CF9349
:10094000DF9391E0909340028823B9F0C091B80002
:10095000D091BA008091BC008A7B8093BC0060E09B
:1009600082E10E946D0260E083E10E946D020E94BC
:100970008104D093BA00C093B800DF91CF9108955D
:100980008F929F92AF92BF92CF92DF92EF92FF929F
:100990000F931F93CF93DF93D0915003D13208F080
:1009A000D7C0182FC0914F030E94CC026B017C016D
:1009B0008091270381116BC082E0809327031093FD
:1009C00026038FEF8093250310922403D0932303F3
:1009D000AFE2B3E0E3E0F3E080E0D81391C010921F
:1009E000020380910203CC0FC82BC09302038091B5
:1009F0000103813009F088C0109201030E94CC02EB
:100A00006B017C01809102038093BB0080912903DC
:100A100090912A03A0912B03B0912C03892B8A2B50
:100A20008B2BA1F00E94CC020091290310912A0384
:100A300020912B0330912C036C197D098E099F099D
:100A4000061717072807390708F442C08091BC0031
:100A500083FDD8CF85EC8093BC000E94CC026B0153
:100A60007C0180912703823009F450C080912503D6
:100A70008F3F09F46FC080912503803209F46CC068
:100A800080912503803309F469C084E026C08091F9
:100A9000290390912A03A0912B03B0912C03892B59
:100AA0008A2B8B2B09F484CF0E94CC0280902903DF
:100AB00090902A03A0902B03B0902C036C197D0911
:100AC0008E099F0986169706A806B90608F070CF0A
:100AD000809128030E949F0485E010922E031092BB
:100AE000500310922D03DF91CF911F910F91FF9032
:100AF000EF90DF90CF90BF90AF909F908F90089530
:100B00009D9191938F5F69CF85EEA5CF8091290349
:100B100090912A03A0912B03B0912C03892B8A2B4F
:100B20008B2B09F49ECF0E94CC02009129031091D7
:100B30002A0320912B0330912C036C197D098E0917
:100B40009F09061717072807390708F08ACFC0CF73
:100B500081E0C3CF80E0C1CF82E0BFCF83E0BDCFD3
:100B60000895E091E0028091DF02E81730F4F0E0B0
:100B7000EF51FD4F808190E008958FEF9FEF089532
:100B80009091E0028091DF022FEF3FEF981748F439
:100B9000E92FF0E0EF51FD4F208130E09F5F90930F
:100BA000E002C90108958091DF029091E002891B63
:100BB000990B0895CF92DF92EF92FF920F931F93BC
:100BC000CF93DF937C01CB018A0120912D03222357
:100BD00089F0EB016B01C40ED51ECC15DD0569F063
:100BE0006991D701ED91FC910190F081E02DC70151
:100BF0000995F3CF642F0E945A04C801DF91CF9169
:100C00001F910F91FF90EF90DF90CF900895CF93B9
:100C1000DF931F92CDB7DEB7698320912D03222386
:100C2000F9F020915003203258F021E030E0FC012F
:100C30003383228390E080E00F90DF91CF9108957D
:100C400080912E03E82FF0E0E15DFC4F99819083C5
:100C50008F5F80932E038093500381E090E0ECCF70
:100C600061E0CE0101960E945A04F7CF90E080E047
:100C700008951F93CF93DF93EA01122FDC011196A1
:100C80008D919C91DC01ED91FC910280F381E02D2E
:100C90000995C817D90729F4812F0E94C00491E053
:100CA000811190E0892FDF91CF911F910895CF930B
:100CB000DF93EC018B818823A1F0888191E09093F0
:100CC0002D0380934F0310922E031092500381E066
:100CD0000E94C00491E0811190E0892FDF91CF91B3
:100CE00008951092E0021092DF0210922E031092EB
:100CF00050030E9481048FE293E0909387028093D7
:100D0000860280E393E0909385028093840281E0E1
:100D10008B83CE010E945706982F8111CECFDDCF55
:100D2000BC016E5F7F4FDC01ED91FC910190F08181
:100D3000E02D40E0099591E0811190E0892F089520
:100D40008430F1F050F4813091F030F1823091F044
:100D5000833099F088E690E008958630B9F098F0F5
:100D60008730B9F08F3FB1F786E790E008958DE3C3
:100D700091E0089589E291E008958FE091E008956F
:100D800083EF90E0089584EC90E0089582EB90E08A
:100D9000089588E990E0089585E591E00895089523
:100DA0008EBD00000DB407FEFDCF8EB50895DF9215
:100DB000EF92FF920F931F93CF93DF937C01062F47
:100DC000D42E152F80E590E00E94410260E0F701EB
:100DD00086850E946D0282E10E94D006CD2DD12F22
:100DE0000C0F1D2F111DC017D10721F089910E94F2
:100DF000D006F9CF61E0F7018685DF91CF911F9191
:100E00000F91FF90EF90DF900C946D021F93CF93A2
:100E1000DF93EC01162F80E590E00E94410260E034
:100E20008E850E946D02812F80680E94D00680E02E
:100E30000E94D006182F61E08E850E946D02812FDE
:100E4000DF91CF911F9108950F931F93CF93DF935D
:100E5000EC01062F142F80E590E00E94410260E033
:100E60008E850E946D02802F0E94D006812F0E94E5
:100E7000D00661E08E85DF91CF911F910F910C9488
:100E80006D02CF92DF92EF92FF920F931F93CF9359
:100E9000DF93EC016B01F42E890140E062E00E94D7
:100EA000240744E06AE0CE010E94240740E864E1A0
:100EB000CE010E942407A6016F2DCE010E94D70605
:100EC00043E062E0CE010E9424070E9423036B01ED
:100ED0007C0129E5C20ED11CE11CF11C6AE0CE01A7
:100EE0000E94060782FF1BC040E062E0CE010E9424
:100EF000240764E4CE010E940607F801808362E4BF
:100F0000CE010E940607F801818380E0DF91CF9136
:100F10001F910F91FF90EF90DF90CF9008950E9466
:100F200023036C157D058E059F05C0F283E0EECF8F
:100F30002F923F924F925F926F927F928F929F92E9
:100F4000AF92BF92CF92DF92EF92FF920F931F93D7
:100F5000CF93DF9300D0CDB7DEB73C01162F942E90
:100F6000290180E0A114B10411F0F5018081382C31
:100F7000329490EF3922380E40E062E0C3010E94C3
:100F800024074FE768E0C3010E94240740E864E1BA
:100F9000C3010E942407A201602FC3010E94D7064B
:100FA000432D6AE1C3010E942407412F62E0C3017F
:100FB0000E9424071C3051F46AE1C3010E94060715
:100FC000482F40686AE1C3010E9424070E9423035E
:100FD0001B012C01F4E22F0E311C411C511C68E056
:100FE000C3010E940607982F992109F0B6C080FF1F
:100FF00016C083E00F900F90DF91CF911F910F915A
:10100000FF90EF90DF90CF90BF90AF909F908F9028
:101010007F906F905F904F903F902F9008950E9427
:1010200023036215730584059505C8F2E2CFE11428
:10103000F10409F467C0C114D10409F463C064E188
:10104000C3010E940607982EF6018081891508F4D5
:101050007EC090829920C9F180E590E00E94410213
:1010600060E0F30186850E946D029A9482E90E94F5
:10107000D006882099F00FEF10E001C0000F8A948D
:10108000EAF782E90E94D006902F9095F70120811F
:1010900092238023982B9083882483948701080DC2
:1010A000111D891440F482E90E94D006F801819351
:1010B0008F018394F6CF80E00E94D006F8018083F0
:1010C00061E0F30186850E946D0268E1C3010E9420
:1010D00006078770A114B10411F0F501808353FC59
:1010E00038C0E114F104B9F1C114D104A1F19F8910
:1010F000992389F1F6014081413031F4843029F59A
:101100008FEF78CF80E0EBCF4230F8F081111DC037
:1011100042509E012F5F3F4FB701C3010E9441071C
:10112000811168CFF6019081E90EF11CF701329729
:1011300020819981291309C0F1E0EF1AF108F70124
:1011400020819A81291709F455CF87E053CF84E095
:1011500051CF82E04FCF80E04DCF6CE0C3010E94C1
:101160000607582E837109F462CF81E043CF8F9236
:10117000AF92BF92CF92DF92EF92FF920F93CF93F5
:10118000DF93CDB7DEB72C970FB6F894DEBF0FBE56
:10119000CDBF90E699838A83E9EDF2E0DE011396F4
:1011A00081918D9382E0EF3DF807D1F7E091FC0348
:1011B000E150FF0BE650FC4FDE011996CE010D9673
:1011C00021912D93A817B907D9F71F92812CB12C23
:1011D000A12CD12CC12CF12CE12C0CE09E012F5F15
:1011E0003F4F40E16EE08AEF93E00E9498070F9036
:1011F0002C960FB6F894DEBF0FBECDBFDF91CF9116
:101200000F91FF90EF90DF90CF90BF90AF908F90B5
:1012100008950F931F93CF93DF938C01D62FC42F84
:101220000E940607C0954C2F48236D2FC801DF91FF
:10123000CF911F910F910C9424076F927F928F9200
:10124000AF92BF92CF92DF92EF92FF920F93CF9324
:10125000DF9300D000D01F92CDB7DEB73C0182E013
:101260008D8340E064E2C3010E94240740E066E20F
:10127000C3010E94240746E268E4C3010E942407D8
:1012800086E28B838D818230C8F140E86CE1C30136
:101290000E94090987E08C831F92812CCE0104965D
:1012A0005C0101966C0104977C0101E09E012D5FB9
:1012B0003F4F40E36CE0C3010E949807982F0F90C6
:1012C000811119C08D818230C9F48C81811116C0C1
:1012D00081E00F900F900F900F900F90DF91CF91C2
:1012E0000F91FF90EF90DF90CF90BF90AF908F90D5
:1012F0007F906F90089581E0923059F380E0E9CFBC
:101300002F923F924F925F926F927F928F929F9215
:10131000AF92BF92CF92DF92EF92FF920F931F9303
:10132000CF93DF93CDB7DEB72E970FB6F894DEBF1D
:101330000FBECDBF06E0413508F046C14E873B01E8
:101340002C0140E86CE10E94090983E989832E851C
:10135000222329F081E0F3019081953008F480E0A8
:10136000992493941C869C85990F990F990F1E853B
:10137000191B17FD10E032E0882319F098E89B83D1
:1013800033E021E0912F977009F420E0912F95959B
:1013900095959595290FD1F094E0811193E0291747
:1013A00008F4922F2C85E22FF0E03196E60DF71D20
:1013B000232F4191A1E0B0E0AC0FBD1FA20FB11DE2
:1013C0004C932F5F422F431B491798F38111185FED
:1013D00010320CF484C080E78A838B819C8189273A
:1013E0009D8189279E8189278F839E01285F3F4F9A
:1013F00047E0BE016F5F7F4FC2010E944107082F87
:101400008111E2C01A8693E09B871D87FE01379603
:101410001F0109E08A84482D4295407F480D6AE10A
:10142000C2010E9424071F92CE010A965C01FE01B0
:101430003B966F0171019E012F5F3F4F40E36CE0CF
:10144000C2010E949807082F0F90823009F065C0F2
:101450006CE1C2010E94060785FDB6C08F7109F4D8
:1014600080E2282F30E0412F110F550B4217530710
:101470000CF09EC0182FE22FE595E595E595EF5FFE
:10148000922F977081E009F480E0E80F81E090E00E
:101490008C0F9D1F8E0F911DFC012150310927706B
:1014A000332781E090E002C0880F991F2A95E2F768
:1014B0009C018081822B80838BCF85E98983FE8587
:1014C000FF2331F081E0F3019081983008F04BCF99
:1014D00080E049CF87E98983F6E0FC87F9CF912F37
:1014E00097709A87812F8595859585958E5F282F92
:1014F0002295207F290F2A8301E0911101C000E08D
:10150000080F22242394312C2C0E3D1E280E311C52
:10151000F9E0F81BFB871D877DCF811155C010E2D4
:101520009D8590320CF457CF8B81883809F042C0EA
:1015300083E093E02C85E22FF0E03196E60DF71D75
:10154000980FA1E0B0E0AC0FBD1FA80FB11D2C910A
:1015500021938F5F8913F5CF8B858C87833009F0BA
:101560004DC08A8581114AC09E012D5F3F4F41E0E9
:10157000B101C2010E944107082F811125C09B8142
:10158000F101818198133CC09C818281981338C0FD
:10159000808182FF12C09394F2E09F1609F48DCFF0
:1015A00023E0921609F496CF81E0981609F4CDCE87
:1015B00005E00AC082E094E0BDCFF3018387892D66
:1015C000880F980E93949082802F2E960FB6F894E1
:1015D000DEBF0FBECDBFDF91CF911F910F91FF9066
:1015E000EF90DF90CF90BF90AF909F908F907F90C3
:1015F0006F905F904F903F902F90089501E0E4CF5F
:1016000007E0E2CFFC0101900020E9F73197AF013C
:10161000481B590BBC0181E593E00C9432038F9277
:101620009F92AF92BF920F931F93CF93DF93CDB74B
:10163000DEB7A1970FB6F894DEBF0FBECDBF19A2DB
:10164000423008F44AE08E010F5D1F4F842E912C2A
:10165000B12CA12CA50194010E943017E62FB901ED
:10166000CA01EA30F4F4E05DD801EE938D01232B3A
:10167000242B252B79F790E080E0109719F0CD010D
:101680000E94020BA1960FB6F894DEBF0FBECDBF2D
:10169000DF91CF911F910F91BF90AF909F908F904E
:1016A0000895E95CE1CF85E891E00C94020BCF93BB
:1016B000DF930E941F04EC010E94530B8C0F9D1FAF
:1016C000DF91CF910895CF93DF930E94020BEC013D
:1016D0000E94530B8C0F9D1FDF91CF9108952F9285
:1016E0003F924F925F926F927F928F929F92AF92B2
:1016F000BF92CF92DF92EF92FF920F931F93CF93FF
:10170000DF935C011B016A01F12CE12CD5011496D9
:101710008D919C9186010E191F098017910708F47D
:101720008C01F501D0810E94CC022B013C018091FB
:101730002703811172C0C02F013208F0C0E2F1E02E
:10174000F093270321E0C601801B910BE816F906F0
:1017500008F420E0209326038FEF80932503109256
:1017600024038C0F80932303A1E0A09302038091B4
:101770000203DD0FD82BD093020380910103813047
:1017800009F090C0109201030E94CC022B013C0191
:10179000809102038093BB008091290390912A03DA
:1017A000A0912B03B0912C03892B8A2B8B2BA1F0BA
:1017B0000E94CC022091290330912A0340912B03EF
:1017C00050912C0364197509860997092617370764
:1017D0004807590708F442C08091BC0083FDD8CF68
:1017E000B5ECB093BC000E94CC022B013C0180916F
:1017F0002703813009F45AC0809124038C1710F418
:10180000C0912403A3E0B3E0E1EEF2E080E08C17A6
:1018100051F19D9191938F5FFACF8091290390911F
:101820002A03A0912B03B0912C03892B8A2B8B2B9D
:1018300009F47DCF0E94CC022091290330912A0324
:1018400040912B0350912C0364197509860997095F
:10185000261737074807590708F069CF80912803F2
:101860000E949F04C0E01092E002C093DF02C01704
:10187000110609F057C041018E0C9F1CE401CE01F6
:10188000881999098017910798F5D50111968D91BE
:101890009C91DC01ED91FC910284F385E02D09958A
:1018A0008993EDCFE5EEE093BC009DCF80912903B5
:1018B00090912A03A0912B03B0912C03892B8A2BA2
:1018C0008B2B09F494CF0E94CC02209129033091F4
:1018D0002A0340912B0350912C0364197509860942
:1018E0009709261737074807590708F080CFB6CF62
:1018F000E00EF11EEC14FD0408F408CF81E0DF9146
:10190000CF911F910F91FF90EF90DF90CF90BF90FC
:10191000AF909F908F907F906F905F904F903F908F
:101920002F90089580E0EBCFBC01990F880B990BA5
:101930004AE00C940F0B85ED8093BC008091290345
:1019400090912A03A0912B03B0912C030796A11D1F
:10195000B11D23E0B695A795979587952A95D1F760
:101960002091BC0024FD03C01092270308954091EC
:10197000290350912A0360912B0370912C03452B6E
:10198000462B472B69F30097A105B10541F02AE2E8
:101990002A95F1F700C00197A109B109E1CF809123
:1019A00028030C949F041F920F920FB60F921124DC
:1019B0002F933F938F939F93AF93BF938091D102C7
:1019C0009091D202A091D302B091D4023091D00272
:1019D00023E0230F2D3758F50196A11DB11D20934B
:1019E000D0028093D1029093D202A093D302B093FD
:1019F000D4028091D5029091D602A091D702B091E5
:101A0000D8020196A11DB11D8093D5029093D602F4
:101A1000A093D702B093D802BF91AF919F918F91BD
:101A20003F912F910F900FBE0F901F90189526E8B1
:101A3000230F0296A11DB11DD2CF1F920F920FB698
:101A40000F9211242F933F934F935F936F937F9344
:101A50008F939F93AF93BF93EF93FF93E091020116
:101A6000F09103010995FF91EF91BF91AF919F9183
:101A70008F917F916F915F914F913F912F910F9037
:101A80000FBE0F901F9018951F920F920FB60F92D6
:101A900011242F933F934F935F936F937F938F9373
:101AA0009F93AF93BF93EF93FF93E0910001F09169
:101AB00001010995FF91EF91BF91AF919F918F9196
:101AC0007F916F915F914F913F912F910F900FBE3A
:101AD0000F901F9018951F920F920FB60F9211241E
:101AE0002F933F934F935F936F937F938F939F9326
:101AF000AF93BF93EF93FF9381E593E00E94B00310
:101B0000FF91EF91BF91AF919F918F917F916F91D5
:101B10005F914F913F912F910F900FBE0F901F90AB
:101B200018951F920F920FB60F9211242F938F9337
:101B30009F93EF93FF93E0916103F09162038081A3
:101B4000E0916703F091680382FD1BC09081809152
:101B50006A038F5F8F7320916B03821741F0E091CE
:101B60006A03F0E0EF5AFC4F958F80936A03FF9170
:101B7000EF919F918F912F910F900FBE0F901F901B
:101B800018958081F4CF1F920F920FB60F921124F7
:101B90002F933F934F935F936F937F938F939F9375
:101BA000AF93BF93EF93FF938091B900887F803606
:101BB00009F44AC0F0F5883209F4A7C018F580315D
:101BC00009F49BC0B8F4882309F4F9C0883009F4FB
:101BD00094C0FF91EF91BF91AF919F918F917F91B1
:101BE0006F915F914F913F912F910F900FBE0F908A
:101BF0001F901895883109F488C0803251F780937E
:101C0000250314C0803409F49DC040F48033B9F337
:101C10008833F9F68093250385ECB0C0803509F44C
:101C200085C0883509F496C0883499F60E949B0CCB
:101C3000D0CF883909F48CC038F5883729F050F4B2
:101C4000883611F0803729F683E0809327031092BD
:101C5000830257C0883809F47BC0803919F0803876
:101C600009F0B7CF80918302803208F071C0E09113
:101C7000830281E08E0F809383028091BB00F0E0AD
:101C8000ED59FD4F80833DC0803B39F0E0F4803A50
:101C900009F479C0883A09F09CCF84E08093270347
:101CA0001092620210926102E0918602F091870226
:101CB00009958091610281110FC081E080936102DA
:101CC0001092410209C0803C09F4A6CF883C09F477
:101CD000A3CF883B09F07DCFE091620281E08E0FB7
:101CE00080936202F0E0EF5BFD4F80818093BB0048
:101CF000909162028091610229C0809102038093D9
:101D0000BB0085EC8093BC0064CF9091240380914C
:101D10002303981758F5E091240381E08E0F8093F8
:101D20002403F0E0ED5FFC4F8081E9CFE0912403D4
:101D300081E08E0F809324038091BB00F0E0ED5F83
:101D4000FC4F808390912403809123039817C8F25D
:101D500085E8D8CFE091240381E08E0F809324039F
:101D60008091BB00F0E0ED5FFC4F80838091260303
:101D700081115CCF81E08093010384EA8093BC00F1
:101D80001092270326CF85EC8093BC001092270386
:101D900080918302803230F4E0918302F0E0ED59CB
:101DA000FD4F10826091830270E0E0918402F09117
:101DB000850283E692E00995109283020ACF109281
:101DC000250334CFE1E5F3E01382128288EE93E03D
:101DD000A0E0B0E084839583A683B7832BE531E050
:101DE0003183208325EC30E03587248724EC30E0F4
:101DF0003787268720EC30E0318B208B21EC30E0D8
:101E0000338B228B22EC30E0358B248B26EC30E0B8
:101E1000378B268B118E128E138E148EEEEEF3E01E
:101E20001382128284839583A683B7838DE691E023
:101E300091838083EAEFF3E08FE791E091838083E1
:101E40008AE0868789E087870895CF93DF93CDB7AF
:101E5000DEB76C970FB6F894DEBF0FBECDBF789497
:101E600084B5826084BD84B5816084BD85B582609F
:101E700085BD85B5816085BD80916E008160809350
:101E80006E001092810080918100826080938100B9
:101E900080918100816080938100809180008160C9
:101EA000809380008091B10084608093B100809124
:101EB000B00081608093B00080917A00846080934C
:101EC0007A0080917A00826080937A0080917A0013
:101ED000816080937A0080917A00806880937A0094
:101EE0001092C10061E086E00E949B0260E086E003
:101EF0000E946D028091AE029091AF02009711F0A6
:101F00000E94F41786E090E00E9458178C0188E642
:101F1000F80180838EEE93E092838183138280E2C6
:101F200090E0958384831093AF020093AE021092E9
:101F3000E0021092DF0210922E03109250030E94D2
:101F400081048FE293E0909387028093860280E37E
:101F500093E09093850280938402FF24F394F80128
:101F6000F382C8010E94570681110FC088E891E0F2
:101F70000E94630B81E593E00E943A046AE070E0FE
:101F800080E090E00E94F102F9CF188E8091AE02BD
:101F90009091AF02FC0124813581232B89F02081AF
:101FA000F0922D0320934F0310922E0310925003B2
:101FB00021E041E050E0BE01685E7F4F0E9439069B
:101FC00041E050E09E012F5F3F4F3901B901809100
:101FD000AE029091AF020E946F0B898190E0880F52
:101FE000892F881F990B892B21F08AE991E00E94A3
:101FF000630B86E0F30111928A95E9F721E02E83C5
:102000002F8384E288878091AE029091AF02FC0119
:10201000448155814830510570F0308120932D0363
:1020200030934F0310922E031092500348E050E07B
:10203000B3010E9439068091040190E0ECE9F2E0DE
:102040002FEFAF014C5952404817590714F4219310
:10205000F8CF1FB7F89480918802811127C0EAEF6A
:10206000F3E08491EEE0F4E09491E82FF0E0EE0FDD
:10207000FF1FE452FC4FA591B491EC91E92321F4A8
:1020800061E08AE00E946D0261E08AE00E949B02AA
:102090008CB580618CBD8CB580648CBD61E08DE0B9
:1020A0000E949B0261E08BE00E949B02809188026B
:1020B0008F5F809388021FBF61E0809108040E94B7
:1020C0009B0261E0809108040E946D0280910904E6
:1020D0008F3F09F4D0C060E00E949B022091090468
:1020E00030E0F901E85EFB4F8491F901EC5FFB4FB2
:1020F0000491F901E051FC4F14911111ADC061E060
:10210000809109040E949B0260E0809109040E9472
:102110006D0283E090E00197F1F761E0809109049E
:102120000E946D0262E370E080E090E00E94F102A4
:1021300040E064E28AEF93E00E94240740E066E218
:102140008AEF93E00E94240746E268E48AEF93E076
:102150000E94240740E864E58AEF93E00E94240788
:1021600049EA66E58AEF93E00E94240743E068E5C8
:102170008AEF93E00E94240748EE6AE58AEF93E035
:102180000E94240740E46AE28AEF93E00E94240759
:102190004DE362E28AEF93E00E94240768E28AEF4F
:1021A00093E00E940607982F9370933039F0482FE0
:1021B000436068E28AEF93E00E9424078FEF8093E8
:1021C000D9028093DA028093DB028093DC02809351
:1021D000DD028093DE021092C7021092C60281E0F7
:1021E0008093B0028093B10285E08093B20261E0F7
:1021F00088E090E00E9408176091B10289E090E0C9
:102200000E9408176091B2028AE090E00E940817CD
:1022100088E090E00E9400178093B00289E090E08F
:102220000E9400178093B1028AE090E00E9400179C
:102230008093B202992493948091040190E0AAE8DB
:10224000B2E0ECE9F2E09F012C593240281739073F
:102250004CF521912D93F7CF81110E944402E12F7B
:10226000F0E0EE0FFF1FE25AFE4FA591B491EC9102
:102270000E2309F444CF4FE062E08AEF93E00E941E
:10228000240713E062E370E080E090E00E94F10236
:1022900062E08AEF93E00E94060784FF49CF115065
:1022A00089F746CF8AEF93E00E941D09811126C06D
:1022B000809189028F5F80938902863080F08091BF
:1022C000040190E0ECE9F2E02FEFAF014C595240ED
:1022D0004817590714F42193F8CF1092890280917E
:1022E0009C028C3009F454C208F04BC2882309F4D4
:1022F00052C2883009F44CC28FEF4AC28AEF93E091
:102300000E949006182F882351F31092890287ECBF
:1023100093E00E941F040E94530B8BEB93E00E94FA
:102320001F04E0910704EF77E13408F04FC0F0E0BC
:10233000E55FFE4F008184EE91E00530A9F078F56D
:1023400081E192E0023081F038F489E392E00130DB
:1023500059F088E691E008C08AEF91E0033021F05F
:102360008FEE91E00430A9F70E94570B035089E8E3
:1023700093E0033088F48BE693E00E94570B87E0EC
:102380000E94B708082F882319F18FE493E00E9478
:102390001F04802F0E94A0060E94570BA0CF87EA3F
:1023A00091E0083009F348F482EC91E00630E1F264
:1023B00086EB91E00730C1F2CCCF88E991E009309B
:1023C00099F285E791E00F3F79F2C3CF00E0C1CFEA
:1023D00087E393E00E94570B9E012D5E3F4F3A8F9B
:1023E000298F53E1252E312C412C512C1C8E2B8E04
:1023F00081EE92E0112369F08DEE92E00E941F04BD
:102400004AE064E070E080E090E00E940F0B89EE0B
:1024100092E00E941F048EED92E00E941F044AE0A9
:10242000C201B1010E940F0B8BED92E00E941F04CC
:10243000111145C032E13F8B80E389839B8D9A83E4
:102440009E012D5F3F4F42E0B3018AEF93E00E946F
:102450004107082F811117C0E1E0EF93812CB12CC7
:10246000A12C9E01295E3F4F6901730104E0930195
:1024700040E36CE08AEF93E00E949807082F0F90EA
:10248000882309F488C088EA92E00E941F04802F04
:102490000E94A0060E94570B298D3A8D21503109C8
:1024A0003A8F298F31E0231A3108410851088FE013
:1024B000281631044104510409F099CF10C080E17D
:1024C0000E94B708082F882309F4B4CF8FEB92E05D
:1024D0000E941F04802F0E94A0060E94570B0E949A
:1024E000530B8EE193E00E941F044AE060E170E02C
:1024F00080E090E00E940F0B89E193E00E94570B6F
:1025000080910401823108F422C180E380939C020F
:1025100080E180939D022EE932E042E06CE972E0B6
:102520008AEF93E00E944107182F81111AC091E0B1
:102530009F93812CB12CA12CE4E0CE2EE1E0DE2E85
:10254000FCE9EF2EF2E0FF2E04E0970140E36CE09F
:102550008AEF93E00E949807182F0F90882309F4C0
:10256000F8C082E093E00E941F04812F0E94A00621
:102570000E94570B8091040190E0ACE9B2E0EAE8D8
:10258000F2E09F012A583240281739070CF0E1C0C9
:1025900021912D93F6CF00E0F70181917F018031E9
:1025A00008F0D2C085EA92E00E941F04F70131973B
:1025B000608170E090E080E040E10E940F0B802F8E
:1025C0008370833021F481EA92E00E941F040F5F40
:1025D000003111F7112309F469C0F8848F2D90E0C0
:1025E000FC0124E0F595E7952A95E1F72985022F6E
:1025F0000F70D02E30E0D90144E0B595A7954A95EB
:10260000E1F76F81402F50E0762F70957F707E1735
:102610001F0699F470E004E0759567950A95E1F757
:102620000FE060274617570741F47F2D70957F70A4
:1026300011E07A171B0609F410E0BF01660F771F3F
:10264000660F771F64707A01EE0CFF1C7E2D72708E
:10265000672BA1706A2B6B8B25FB662760F90D2D0C
:102660000270602BDF01AA0FBB1FA4706A2B6C8B5A
:1026700026FB662760F9E470E62BBA01759567952D
:102680006270E62BED8BA5E095958795AA95E1F70D
:102690008470220F232F221F330B822B55954795D1
:1026A000559547954270842B8E8B1C8F8DE992E057
:1026B0000E941F04E98DFA8D138112FB882780F98F
:1026C00090E00E94940C8BE992E00E941F0411FBA1
:1026D000882780F990E00E94940C89E992E00E949A
:1026E0001F04812F817090E00E94940C85E992E094
:1026F0000E941F04FC8DFF2321F08FE692E00E94D0
:102700001F040B8D0331E1F0113011F01630C1F4CC
:10271000C980DA80EB80FC8085E692E00E941F048D
:1027200040E1C701B6010E940F0B8DE592E00E94C7
:102730001F046D8570E090E080E040E10E940F0B87
:102740000E94530B10E0A8CE83EA92E02DCF14E054
:1027500008CF83EF92E00E941F044AE060E170E03E
:1027600080E090E00E940F0B81EF92E00E94570BF7
:102770000E94530B48E060E18AEF93E00E94090950
:10278000AECD893229F08E3219F0883109F0B4CDFE
:102790008093BB0202C01092BB0280919F02809383
:1027A000BC02F091A502EF2FEF77E093BD02F69502
:1027B000F695F695F0718091A60282958F70F82BB0
:1027C000F093BE028091A3024091A402242F26958B
:1027D000269526952071982F9F70292B2093BF0254
:1027E00090E074E0959587957A95E1F7682F80934E
:1027F000C002842F8F778093C1029091A70290939B
:10280000C2029091A8029093C3029091A902909362
:10281000C4029091AB029093C50290E0022E000C8E
:10282000330BACE4B1E051E0561728F47D91270F4B
:10283000311D5F5FF9CF633020F0437011F42F5FDB
:102840003F4F6DE671E0869FA001879F500D969FD8
:10285000500D1124415051090396969587959695F0
:102860008795840F951F280F391FA8E1B0E00E94BB
:1028700021179B01AC012F0F311D411D511DACE3F0
:10288000B0E00E9416179B01AC012E0F311D411DB7
:10289000511D0E94161760587C4B8249974C6093DB
:1028A000B7027093B8028093B9029093BA0219826A
:1028B0000091AE021091AF02F80184819581892BBD
:1028C000C1F0808190922D0380934F0310922E03CC
:1028D0001092500320E041E050E0B301C8010E9493
:1028E0003906882331F047E050E0B301C8010E9467
:1028F0006F0B29812F77822F90E074E09595879553
:102900007A95E1F7982F990F990F182F191B110F2E
:10291000120F2A81822F90E0E4E095958795EA9541
:10292000E1F7982F990F990F082F091B000F020F3D
:102930002B81822F90E0F4E095958795FA95E1F749
:10294000982F990F990F582E591A550C520E3D81F8
:102950008E81482F50E0A4E055954795AA95E1F760
:10296000942F990F990F742F791B770F780F8F8100
:10297000482F50E0B4E055954795BA95E1F7942F6C
:10298000990F990F642F691B660F680F462F50E04F
:10299000832F90E024E0959587952A95E1F7982F6D
:1029A000990F990F282F291B220F230F30E0E1EDFB
:1029B000F3E081E0871730F49491290F311D8F5F88
:1029C0003196F8CF733020F0637011F42F5F3F4FD2
:1029D000CA0103969695879596958795EDE6F1E061
:1029E0004E9FB0014F9F700D5E9F700D112461507E
:1029F0007109860F971F280F391FA8E1B0E00E94C8
:102A000021179B01AC01250D311D411D511DACE36A
:102A1000B0E00E9416179B01AC01200F311D411D33
:102A2000511D0E941617AB01BC01812F90E0B0E050
:102A3000A0E080589C4BA249B74C840F951FA61F5D
:102A4000B71F8093B3029093B402A093B502B093E2
:102A5000B6028091BB028F3F49F482EC91E00E9464
:102A6000630B1092C7021092C60247C06091B70272
:102A70007091B8028091B9029091BA024AE00E9426
:102A80000F0B81ED91E00E94020B6091B3027091F7
:102A9000B4028091B5029091B6024AE00E940F0BF9
:102AA0000E94530B4091B7025091B8026091B90255
:102AB0007091BA028091B3029091B402A091B502D4
:102AC000B091B602481759076A077B0708F45BC044
:102AD00085ED91E00E94630B8091BB02982F977F58
:102AE00011F08C3051F58FED91E00E94630B81E085
:102AF00090E09093C7028093C60210E08091C602D6
:102B00009091C7021817190611F00CF03FC061E050
:102B100086E00E946D0264E670E080E090E00E9432
:102B2000F10260E086E00E946D0268EC70E080E0F7
:102B300090E00E94F1021F5FE1CF8E3211F08932E6
:102B400019F48DEF91E0D1CF8831E9F49091C20270
:102B50008091B002981317C080E192E00E94630B4D
:102B60009091C3028091B10298130DC08AE192E066
:102B70000E94630B9091C4028091B202981303C02B
:102B800085E292E0B2CF82E392E069CF60ED77E038
:102B900080E090E00E94F102E091CE02F091CF023D
:102BA000E730F10530F5E952FA4E0C945217F5155D
:102BB000DE15061678168D16781678160E942303F1
:102BC0000091CA021091CB022091CC023091CD022B
:102BD000601B710B820B930B6436710581059105A7
:102BE00040F01092CF021092CE0260E086E00E9488
:102BF0006D0280E090E0892B09F41ECB0E949C03BB
:102C0000882309F417CB0E94000014CB8091C902DD
:102C1000811124C00E9423030091CA021091CB02AB
:102C20002091CC023091CD02601B710B820B930B73
:102C30006436710581059105E0F260E086E00E944E
:102C40006D020E9423036093CA027093CB028093AB
:102C5000CC029093CD029092C902CBCF813031F556
:102C60000E9423030091CA021091CB022091CC0252
:102C70003091CD02601B710B820B930B6233710597
:102C80008105910508F4B5CF61E086E00E946D02F0
:102C90000E9423036093CA027093CB028093CC02FC
:102CA0009093CD0282E08093C902A3CF823009F0D5
:102CB000A0CF0E9423030091CA021091CB02209161
:102CC000CC023091CD02601B710B820B930B6436EA
:102CD00071058105910508F48CCF60E086E00E94C3
:102CE0006D021092CF021092CE021092C90281CFD3
:102CF0000E9423030091CA021091CB022091CC02C2
:102D00003091CD02601B710B820B930B643F7140BD
:102D10008105910508F065CF6CCF8091C8028111C3
:102D200025C00E9423030091CA021091CB0220917A
:102D3000CC023091CD02601B710B820B930B643679
:102D400071058105910508F454CF60E086E00E948A
:102D50006D020E9423036093CA027093CB0280939A
:102D6000CC029093CD029092C80243CF813031F5CE
:102D70000E9423030091CA021091CB022091CC0241
:102D80003091CD02601B710B820B930B6233710586
:102D90008105910508F42DCF61E086E00E946D0267
:102DA0000E9423036093CA027093CB028093CC02EB
:102DB0009093CD0282E08093C8021BCF823009F04D
:102DC00018CF0E9423030091CA021091CB022091D8
:102DD000CC023091CD02601B710B820B930B6436D9
:102DE00071058105910508F404CF60E086E00E943A
:102DF0006D021092CF021092CE021092C802F9CE4C
:102E0000F999FECF92BD81BDF89A992780B50895B2
:102E1000262FF999FECF1FBA92BD81BD20BD0FB6F6
:102E2000F894FA9AF99A0FBE019608950E94211714
:102E3000A59F900DB49F900DA49F800D911D11240E
:102E40000895A29FB001B39FC001A39F700D811D83
:102E50001124911DB29F700D811D1124911D0895A3
:102E6000A1E21A2EAA1BBB1BFD010DC0AA1FBB1F8E
:102E7000EE1FFF1FA217B307E407F50720F0A21B00
:102E8000B30BE40BF50B661F771F881F991F1A946D
:102E900069F760957095809590959B01AC01BD0197
:102EA000CF010895EE0FFF1F0590F491E02D0994D6
:102EB0000F931F93CF93DF938230910510F482E03C
:102EC00090E0E0910C04F0910D0430E020E0B0E0DF
:102ED000A0E0309799F42115310509F44AC0281B68
:102EE000390B24303105D8F58A819B816115710534
:102EF00089F1FB0193838283FE0111C040815181DE
:102F00000281138148175907E0F04817590799F4CF
:102F1000109761F012960C93129713961C933296A9
:102F2000CF01DF91CF911F910F91089500930C0471
:102F300010930D04F4CF2115310551F042175307BA
:102F400038F0A901DB019A01BD01DF01F801C1CF11
:102F5000EF01F9CF90930D0480930C04CDCFFE01C7
:102F6000E20FF31F81939193225031093983288313
:102F7000D7CF20910A0430910B04232B41F42091E8
:102F800007013091080130930B0420930A0420912B
:102F90000501309106012115310541F42DB73EB7E9
:102FA0004091090150910A01241B350BE0910A045C
:102FB000F0910B04E217F307A0F42E1B3F0B281728
:102FC000390778F0AC014E5F5F4F2417350748F0A2
:102FD0004E0F5F1F50930B0440930A04819391930B
:102FE0009FCFF0E0E0E09CCFCF93DF930097E9F034
:102FF000FC01329713821282A0910C04B0910D044F
:10300000ED0130E020E01097A1F420813181820FA2
:10301000931F20910A0430910B042817390709F0F7
:1030200061C0F0930B04E0930A04DF91CF910895FF
:10303000EA01CE17DF07E8F54A815B819E01411561
:103040005105B1F7E901FB83EA8349915991C40F16
:10305000D51FEC17FD0761F4808191810296840FE2
:10306000951FE90199838883828193819B838A8359
:10307000F0E0E0E012968D919C9113970097B9F5DE
:103080002D913C911197CD010296820F931F2091B3
:103090000A0430910B042817390739F6309751F597
:1030A00010920D0410920C04B0930B04A0930A0428
:1030B000BCCFD383C28340815181840F951FC81731
:1030C000D90761F44E5F5F4F88819981480F591F7E
:1030D000518340838A819B819383828321153105AB
:1030E00009F0B0CFF0930D04E0930C049ECFFD01E6
:1030F000DC01C0CF13821282D7CFF894FFCF310307
:1031000031031200000E04800006090000FF0000D9
:10311000000403000000000000070700000000009A
:103120000005000000000000000100000000000099
:10313000000000000000000000000000000000008F
:10314000000000000000000000021F1C1F1E1F1EC8
:103150001F1F1E1F1E00000000D20332035F033A30
:103160000490036E038203000000000706DA0536B0
:1031700006B005D305C005B1050000000080091D9B
:103180000990060D0A00436F756C646E2774206603
:10319000696E642052544300525443206973204E98
:1031A0004F542072756E6E696E672C206C657427A3
:1031B0007320736574207468652074696D652100DF
:1031C000494E56414C49445F5354415445310020C7
:1031D0002020006461746520646F6E650041555461
:1031E000484F52495345442D524F4F4D5F54494D1E
:1031F0004553594E4320646F6E65004D415354450D
:1032000052206F7220454D5247414E435900526F34
:103210006F6D20646F6E6500666C6F6F7220646FF7
:103220006E650062756964696E6720646F6E650023
:0E323000494E56414C49445F535441544500A9
:107E0000112484B714BE81FFF0D085E080938100F7
:107E100082E08093C00088E18093C10086E0809377
:107E2000C20080E18093C4008EE0C9D0259A86E02C
:107E300020E33CEF91E0309385002093840096BBD3
:107E4000B09BFECF1D9AA8958150A9F7CC24DD24C4
:107E500088248394B5E0AB2EA1E19A2EF3E0BF2EE7
:107E6000A2D0813461F49FD0082FAFD0023811F036
:107E7000013811F484E001C083E08DD089C08234E0
:107E800011F484E103C0853419F485E0A6D080C0E4
:107E9000853579F488D0E82EFF2485D0082F10E0AE
:107EA000102F00270E291F29000F111F8ED06801E7
:107EB0006FC0863521F484E090D080E0DECF843638
:107EC00009F040C070D06FD0082F6DD080E0C81688
:107ED00080E7D80618F4F601B7BEE895C0E0D1E017
:107EE00062D089930C17E1F7F0E0CF16F0E7DF06D8
:107EF00018F0F601B7BEE89568D007B600FCFDCFD4
:107F0000A601A0E0B1E02C9130E011968C91119780
:107F100090E0982F8827822B932B1296FA010C0160
:107F200087BEE89511244E5F5F4FF1E0A038BF0790
:107F300051F7F601A7BEE89507B600FCFDCF97BE46
:107F4000E89526C08437B1F42ED02DD0F82E2BD052
:107F50003CD0F601EF2C8F010F5F1F4F84911BD097
:107F6000EA94F801C1F70894C11CD11CFA94CF0C13
:107F7000D11C0EC0853739F428D08EE10CD085E9AC
:107F80000AD08FE07ACF813511F488E018D01DD067
:107F900080E101D065CF982F8091C00085FFFCCF94
:107FA0009093C60008958091C00087FFFCCF809118
:107FB000C00084FD01C0A8958091C6000895E0E648
:107FC000F0E098E1908380830895EDDF803219F02E
:107FD00088E0F5DFFFCF84E1DECF1F93182FE3DFCA
:107FE0001150E9F7F2DF1F91089580E0E8DFEE27F6
:047FF000FF270994CA
:027FFE00040479
:00000001FF
